{
	"MainKYC/kyc1.sol": {
		"KYCGasConsumer": {
			"abi": [
				{
					"inputs": [],
					"stateMutability": "nonpayable",
					"type": "constructor"
				},
				{
					"anonymous": false,
					"inputs": [
						{
							"indexed": true,
							"internalType": "address",
							"name": "user",
							"type": "address"
						},
						{
							"indexed": true,
							"internalType": "address",
							"name": "provider",
							"type": "address"
						}
					],
					"name": "AppliedToProvider",
					"type": "event"
				},
				{
					"anonymous": false,
					"inputs": [
						{
							"indexed": true,
							"internalType": "address",
							"name": "user",
							"type": "address"
						},
						{
							"indexed": true,
							"internalType": "address",
							"name": "provider",
							"type": "address"
						},
						{
							"indexed": false,
							"internalType": "uint256",
							"name": "blockNumber",
							"type": "uint256"
						},
						{
							"indexed": false,
							"internalType": "uint256",
							"name": "timestamp",
							"type": "uint256"
						}
					],
					"name": "Approved",
					"type": "event"
				},
				{
					"anonymous": false,
					"inputs": [
						{
							"indexed": true,
							"internalType": "address",
							"name": "user",
							"type": "address"
						},
						{
							"indexed": false,
							"internalType": "string",
							"name": "aadharHash",
							"type": "string"
						},
						{
							"indexed": false,
							"internalType": "string",
							"name": "electricityHash",
							"type": "string"
						},
						{
							"indexed": true,
							"internalType": "address",
							"name": "provider",
							"type": "address"
						}
					],
					"name": "KYCSubmitted",
					"type": "event"
				},
				{
					"anonymous": false,
					"inputs": [
						{
							"indexed": true,
							"internalType": "address",
							"name": "requester",
							"type": "address"
						},
						{
							"indexed": true,
							"internalType": "address",
							"name": "user",
							"type": "address"
						}
					],
					"name": "KYCViewed",
					"type": "event"
				},
				{
					"anonymous": false,
					"inputs": [
						{
							"indexed": true,
							"internalType": "address",
							"name": "provider",
							"type": "address"
						}
					],
					"name": "ProviderAdded",
					"type": "event"
				},
				{
					"anonymous": false,
					"inputs": [
						{
							"indexed": true,
							"internalType": "address",
							"name": "user",
							"type": "address"
						},
						{
							"indexed": true,
							"internalType": "address",
							"name": "newProvider",
							"type": "address"
						}
					],
					"name": "ProviderChangeRequested",
					"type": "event"
				},
				{
					"anonymous": false,
					"inputs": [
						{
							"indexed": true,
							"internalType": "address",
							"name": "user",
							"type": "address"
						},
						{
							"indexed": true,
							"internalType": "address",
							"name": "oldProvider",
							"type": "address"
						},
						{
							"indexed": true,
							"internalType": "address",
							"name": "newProvider",
							"type": "address"
						}
					],
					"name": "ProviderChanged",
					"type": "event"
				},
				{
					"anonymous": false,
					"inputs": [
						{
							"indexed": true,
							"internalType": "address",
							"name": "provider",
							"type": "address"
						}
					],
					"name": "ProviderRemoved",
					"type": "event"
				},
				{
					"anonymous": false,
					"inputs": [
						{
							"indexed": true,
							"internalType": "address",
							"name": "user",
							"type": "address"
						},
						{
							"indexed": true,
							"internalType": "address",
							"name": "provider",
							"type": "address"
						}
					],
					"name": "Rejected",
					"type": "event"
				},
				{
					"inputs": [
						{
							"internalType": "address",
							"name": "_provider",
							"type": "address"
						}
					],
					"name": "addProvider",
					"outputs": [],
					"stateMutability": "nonpayable",
					"type": "function"
				},
				{
					"inputs": [
						{
							"internalType": "address",
							"name": "_user",
							"type": "address"
						}
					],
					"name": "approveUser",
					"outputs": [],
					"stateMutability": "nonpayable",
					"type": "function"
				},
				{
					"inputs": [
						{
							"internalType": "address",
							"name": "_provider",
							"type": "address"
						}
					],
					"name": "getApprovedUsers",
					"outputs": [
						{
							"internalType": "address[]",
							"name": "",
							"type": "address[]"
						}
					],
					"stateMutability": "view",
					"type": "function"
				},
				{
					"inputs": [
						{
							"internalType": "address",
							"name": "_user",
							"type": "address"
						}
					],
					"name": "getKYC",
					"outputs": [
						{
							"internalType": "string",
							"name": "",
							"type": "string"
						},
						{
							"internalType": "string",
							"name": "",
							"type": "string"
						},
						{
							"internalType": "address",
							"name": "",
							"type": "address"
						},
						{
							"internalType": "enum KYCGasConsumer.KYCStatus",
							"name": "",
							"type": "uint8"
						}
					],
					"stateMutability": "view",
					"type": "function"
				},
				{
					"inputs": [
						{
							"internalType": "address",
							"name": "_provider",
							"type": "address"
						}
					],
					"name": "getPendingUsers",
					"outputs": [
						{
							"internalType": "address[]",
							"name": "",
							"type": "address[]"
						}
					],
					"stateMutability": "view",
					"type": "function"
				},
				{
					"inputs": [
						{
							"internalType": "address",
							"name": "_provider",
							"type": "address"
						}
					],
					"name": "getRejectedUsers",
					"outputs": [
						{
							"internalType": "address[]",
							"name": "",
							"type": "address[]"
						}
					],
					"stateMutability": "view",
					"type": "function"
				},
				{
					"inputs": [
						{
							"internalType": "address",
							"name": "",
							"type": "address"
						},
						{
							"internalType": "address",
							"name": "",
							"type": "address"
						}
					],
					"name": "hasApplied",
					"outputs": [
						{
							"internalType": "bool",
							"name": "",
							"type": "bool"
						}
					],
					"stateMutability": "view",
					"type": "function"
				},
				{
					"inputs": [
						{
							"internalType": "address",
							"name": "",
							"type": "address"
						}
					],
					"name": "isGasProvider",
					"outputs": [
						{
							"internalType": "bool",
							"name": "",
							"type": "bool"
						}
					],
					"stateMutability": "view",
					"type": "function"
				},
				{
					"inputs": [],
					"name": "owner",
					"outputs": [
						{
							"internalType": "address",
							"name": "",
							"type": "address"
						}
					],
					"stateMutability": "view",
					"type": "function"
				},
				{
					"inputs": [
						{
							"internalType": "address",
							"name": "",
							"type": "address"
						},
						{
							"internalType": "uint256",
							"name": "",
							"type": "uint256"
						}
					],
					"name": "providerApprovedUsers",
					"outputs": [
						{
							"internalType": "address",
							"name": "",
							"type": "address"
						}
					],
					"stateMutability": "view",
					"type": "function"
				},
				{
					"inputs": [
						{
							"internalType": "address",
							"name": "",
							"type": "address"
						},
						{
							"internalType": "uint256",
							"name": "",
							"type": "uint256"
						}
					],
					"name": "providerPendingUsers",
					"outputs": [
						{
							"internalType": "address",
							"name": "",
							"type": "address"
						}
					],
					"stateMutability": "view",
					"type": "function"
				},
				{
					"inputs": [
						{
							"internalType": "address",
							"name": "",
							"type": "address"
						},
						{
							"internalType": "uint256",
							"name": "",
							"type": "uint256"
						}
					],
					"name": "providerRejectedUsers",
					"outputs": [
						{
							"internalType": "address",
							"name": "",
							"type": "address"
						}
					],
					"stateMutability": "view",
					"type": "function"
				},
				{
					"inputs": [
						{
							"internalType": "address",
							"name": "_user",
							"type": "address"
						}
					],
					"name": "rejectUser",
					"outputs": [],
					"stateMutability": "nonpayable",
					"type": "function"
				},
				{
					"inputs": [
						{
							"internalType": "address",
							"name": "_provider",
							"type": "address"
						}
					],
					"name": "removeProvider",
					"outputs": [],
					"stateMutability": "nonpayable",
					"type": "function"
				},
				{
					"inputs": [
						{
							"internalType": "address",
							"name": "_newProvider",
							"type": "address"
						}
					],
					"name": "requestChangeProvider",
					"outputs": [],
					"stateMutability": "nonpayable",
					"type": "function"
				},
				{
					"inputs": [
						{
							"internalType": "string",
							"name": "a_ipfsHash",
							"type": "string"
						},
						{
							"internalType": "string",
							"name": "e_ipfsHash",
							"type": "string"
						},
						{
							"internalType": "address",
							"name": "selectedProvider",
							"type": "address"
						}
					],
					"name": "submitKYC",
					"outputs": [],
					"stateMutability": "nonpayable",
					"type": "function"
				},
				{
					"inputs": [
						{
							"internalType": "address",
							"name": "",
							"type": "address"
						}
					],
					"name": "users",
					"outputs": [
						{
							"internalType": "string",
							"name": "aadhar_ipfsHash",
							"type": "string"
						},
						{
							"internalType": "string",
							"name": "electricity_ipfsHash",
							"type": "string"
						},
						{
							"internalType": "address",
							"name": "currentProvider",
							"type": "address"
						},
						{
							"internalType": "bool",
							"name": "kycSubmitted",
							"type": "bool"
						},
						{
							"internalType": "enum KYCGasConsumer.KYCStatus",
							"name": "Status",
							"type": "uint8"
						},
						{
							"internalType": "uint256",
							"name": "submittedAt",
							"type": "uint256"
						}
					],
					"stateMutability": "view",
					"type": "function"
				},
				{
					"inputs": [
						{
							"internalType": "address",
							"name": "_user",
							"type": "address"
						}
					],
					"name": "viewKYC",
					"outputs": [
						{
							"internalType": "string",
							"name": "",
							"type": "string"
						},
						{
							"internalType": "string",
							"name": "",
							"type": "string"
						},
						{
							"internalType": "address",
							"name": "",
							"type": "address"
						}
					],
					"stateMutability": "nonpayable",
					"type": "function"
				}
			],
			"devdoc": {
				"kind": "dev",
				"methods": {},
				"version": 1
			},
			"evm": {
				"assembly": "    /* \"MainKYC/kyc1.sol\":61:6512  contract KYCGasConsumer {... */\n  mstore(0x40, 0x80)\n    /* \"MainKYC/kyc1.sol\":1729:1864  constructor() {... */\n  callvalue\n  dup1\n  iszero\n  tag_1\n  jumpi\n  0x00\n  dup1\n  revert\ntag_1:\n  pop\n    /* \"MainKYC/kyc1.sol\":1762:1772  msg.sender */\n  caller\n    /* \"MainKYC/kyc1.sol\":1754:1759  owner */\n  0x00\n  dup1\n    /* \"MainKYC/kyc1.sol\":1754:1772  owner = msg.sender */\n  0x0100\n  exp\n  dup2\n  sload\n  dup2\n  0xffffffffffffffffffffffffffffffffffffffff\n  mul\n  not\n  and\n  swap1\n  dup4\n  0xffffffffffffffffffffffffffffffffffffffff\n  and\n  mul\n  or\n  swap1\n  sstore\n  pop\n    /* \"MainKYC/kyc1.sol\":1811:1815  true */\n  0x01\n    /* \"MainKYC/kyc1.sol\":1783:1796  isGasProvider */\n  0x02\n    /* \"MainKYC/kyc1.sol\":1783:1808  isGasProvider[msg.sender] */\n  0x00\n    /* \"MainKYC/kyc1.sol\":1797:1807  msg.sender */\n  caller\n    /* \"MainKYC/kyc1.sol\":1783:1808  isGasProvider[msg.sender] */\n  0xffffffffffffffffffffffffffffffffffffffff\n  and\n  0xffffffffffffffffffffffffffffffffffffffff\n  and\n  dup2\n  mstore\n  0x20\n  add\n  swap1\n  dup2\n  mstore\n  0x20\n  add\n  0x00\n  keccak256\n  0x00\n    /* \"MainKYC/kyc1.sol\":1783:1815  isGasProvider[msg.sender] = true */\n  0x0100\n  exp\n  dup2\n  sload\n  dup2\n  0xff\n  mul\n  not\n  and\n  swap1\n  dup4\n  iszero\n  iszero\n  mul\n  or\n  swap1\n  sstore\n  pop\n    /* \"MainKYC/kyc1.sol\":1845:1855  msg.sender */\n  caller\n    /* \"MainKYC/kyc1.sol\":1831:1856  ProviderAdded(msg.sender) */\n  0xffffffffffffffffffffffffffffffffffffffff\n  and\n  0xae9c2c6481964847714ce58f65a7f6dcc41d0d8394449bacdf161b5920c4744a\n  mload(0x40)\n  mload(0x40)\n  dup1\n  swap2\n  sub\n  swap1\n  log2\n    /* \"MainKYC/kyc1.sol\":61:6512  contract KYCGasConsumer {... */\n  dataSize(sub_0)\n  dup1\n  dataOffset(sub_0)\n  0x00\n  codecopy\n  0x00\n  return\nstop\n\nsub_0: assembly {\n        /* \"MainKYC/kyc1.sol\":61:6512  contract KYCGasConsumer {... */\n      mstore(0x40, 0x80)\n      callvalue\n      dup1\n      iszero\n      tag_1\n      jumpi\n      0x00\n      dup1\n      revert\n    tag_1:\n      pop\n      jumpi(tag_2, lt(calldatasize, 0x04))\n      shr(0xe0, calldataload(0x00))\n      dup1\n      0x8a355a57\n      gt\n      tag_21\n      jumpi\n      dup1\n      0xc41dc267\n      gt\n      tag_22\n      jumpi\n      dup1\n      0xc41dc267\n      eq\n      tag_16\n      jumpi\n      dup1\n      0xd624fdb6\n      eq\n      tag_17\n      jumpi\n      dup1\n      0xd9b18f04\n      eq\n      tag_18\n      jumpi\n      dup1\n      0xdf017a04\n      eq\n      tag_19\n      jumpi\n      dup1\n      0xeece635a\n      eq\n      tag_20\n      jumpi\n      jump(tag_2)\n    tag_22:\n      dup1\n      0x8a355a57\n      eq\n      tag_12\n      jumpi\n      dup1\n      0x8da5cb5b\n      eq\n      tag_13\n      jumpi\n      dup1\n      0x98b99021\n      eq\n      tag_14\n      jumpi\n      dup1\n      0xa87430ba\n      eq\n      tag_15\n      jumpi\n      jump(tag_2)\n    tag_21:\n      dup1\n      0x46e2577a\n      gt\n      tag_23\n      jumpi\n      dup1\n      0x46e2577a\n      eq\n      tag_7\n      jumpi\n      dup1\n      0x4d1a687d\n      eq\n      tag_8\n      jumpi\n      dup1\n      0x4dc92885\n      eq\n      tag_9\n      jumpi\n      dup1\n      0x5c593d74\n      eq\n      tag_10\n      jumpi\n      dup1\n      0x726b2763\n      eq\n      tag_11\n      jumpi\n      jump(tag_2)\n    tag_23:\n      dup1\n      0x0a7b31ab\n      eq\n      tag_3\n      jumpi\n      dup1\n      0x1e721429\n      eq\n      tag_4\n      jumpi\n      dup1\n      0x266e9a7c\n      eq\n      tag_5\n      jumpi\n      dup1\n      0x321dbe17\n      eq\n      tag_6\n      jumpi\n    tag_2:\n      0x00\n      dup1\n      revert\n        /* \"MainKYC/kyc1.sol\":5858:6002  function getApprovedUsers(address _provider) external view returns (address[] memory) {... */\n    tag_3:\n      tag_24\n      0x04\n      dup1\n      calldatasize\n      sub\n      dup2\n      add\n      swap1\n      tag_25\n      swap2\n      swap1\n      tag_26\n      jump\t// in\n    tag_25:\n      tag_27\n      jump\t// in\n    tag_24:\n      mload(0x40)\n      tag_28\n      swap2\n      swap1\n      tag_29\n      jump\t// in\n    tag_28:\n      mload(0x40)\n      dup1\n      swap2\n      sub\n      swap1\n      return\n        /* \"MainKYC/kyc1.sol\":549:606  mapping(address => address[]) public providerPendingUsers */\n    tag_4:\n      tag_30\n      0x04\n      dup1\n      calldatasize\n      sub\n      dup2\n      add\n      swap1\n      tag_31\n      swap2\n      swap1\n      tag_32\n      jump\t// in\n    tag_31:\n      tag_33\n      jump\t// in\n    tag_30:\n      mload(0x40)\n      tag_34\n      swap2\n      swap1\n      tag_35\n      jump\t// in\n    tag_34:\n      mload(0x40)\n      dup1\n      swap2\n      sub\n      swap1\n      return\n        /* \"MainKYC/kyc1.sol\":484:542  mapping(address => address[]) public providerApprovedUsers */\n    tag_5:\n      tag_36\n      0x04\n      dup1\n      calldatasize\n      sub\n      dup2\n      add\n      swap1\n      tag_37\n      swap2\n      swap1\n      tag_32\n      jump\t// in\n    tag_37:\n      tag_38\n      jump\t// in\n    tag_36:\n      mload(0x40)\n      tag_39\n      swap2\n      swap1\n      tag_35\n      jump\t// in\n    tag_39:\n      mload(0x40)\n      dup1\n      swap2\n      sub\n      swap1\n      return\n        /* \"MainKYC/kyc1.sol\":5708:5850  function getPendingUsers(address _provider) external view returns (address[] memory) {... */\n    tag_6:\n      tag_40\n      0x04\n      dup1\n      calldatasize\n      sub\n      dup2\n      add\n      swap1\n      tag_41\n      swap2\n      swap1\n      tag_26\n      jump\t// in\n    tag_41:\n      tag_42\n      jump\t// in\n    tag_40:\n      mload(0x40)\n      tag_43\n      swap2\n      swap1\n      tag_29\n      jump\t// in\n    tag_43:\n      mload(0x40)\n      dup1\n      swap2\n      sub\n      swap1\n      return\n        /* \"MainKYC/kyc1.sol\":1872:2092  function addProvider(address _provider) external onlyOwner {... */\n    tag_7:\n      tag_44\n      0x04\n      dup1\n      calldatasize\n      sub\n      dup2\n      add\n      swap1\n      tag_45\n      swap2\n      swap1\n      tag_26\n      jump\t// in\n    tag_45:\n      tag_46\n      jump\t// in\n    tag_44:\n      stop\n        /* \"MainKYC/kyc1.sol\":5191:5432  function getKYC(address _user) external view returns (string memory, string memory, address, KYCStatus) {... */\n    tag_8:\n      tag_47\n      0x04\n      dup1\n      calldatasize\n      sub\n      dup2\n      add\n      swap1\n      tag_48\n      swap2\n      swap1\n      tag_26\n      jump\t// in\n    tag_48:\n      tag_49\n      jump\t// in\n    tag_47:\n      mload(0x40)\n      tag_50\n      swap5\n      swap4\n      swap3\n      swap2\n      swap1\n      tag_51\n      jump\t// in\n    tag_50:\n      mload(0x40)\n      dup1\n      swap2\n      sub\n      swap1\n      return\n        /* \"MainKYC/kyc1.sol\":4184:4609  function rejectUser(address _user) external onlyProvider {... */\n    tag_9:\n      tag_52\n      0x04\n      dup1\n      calldatasize\n      sub\n      dup2\n      add\n      swap1\n      tag_53\n      swap2\n      swap1\n      tag_26\n      jump\t// in\n    tag_53:\n      tag_54\n      jump\t// in\n    tag_52:\n      stop\n        /* \"MainKYC/kyc1.sol\":4617:5181  function requestChangeProvider(address _newProvider) external {... */\n    tag_10:\n      tag_55\n      0x04\n      dup1\n      calldatasize\n      sub\n      dup2\n      add\n      swap1\n      tag_56\n      swap2\n      swap1\n      tag_26\n      jump\t// in\n    tag_56:\n      tag_57\n      jump\t// in\n    tag_55:\n      stop\n        /* \"MainKYC/kyc1.sol\":432:477  mapping(address => bool) public isGasProvider */\n    tag_11:\n      tag_58\n      0x04\n      dup1\n      calldatasize\n      sub\n      dup2\n      add\n      swap1\n      tag_59\n      swap2\n      swap1\n      tag_26\n      jump\t// in\n    tag_59:\n      tag_60\n      jump\t// in\n    tag_58:\n      mload(0x40)\n      tag_61\n      swap2\n      swap1\n      tag_62\n      jump\t// in\n    tag_61:\n      mload(0x40)\n      dup1\n      swap2\n      sub\n      swap1\n      return\n        /* \"MainKYC/kyc1.sol\":2100:2326  function removeProvider(address _provider) external onlyOwner {... */\n    tag_12:\n      tag_63\n      0x04\n      dup1\n      calldatasize\n      sub\n      dup2\n      add\n      swap1\n      tag_64\n      swap2\n      swap1\n      tag_26\n      jump\t// in\n    tag_64:\n      tag_65\n      jump\t// in\n    tag_63:\n      stop\n        /* \"MainKYC/kyc1.sol\":92:112  address public owner */\n    tag_13:\n      tag_66\n      tag_67\n      jump\t// in\n    tag_66:\n      mload(0x40)\n      tag_68\n      swap2\n      swap1\n      tag_35\n      jump\t// in\n    tag_68:\n      mload(0x40)\n      dup1\n      swap2\n      sub\n      swap1\n      return\n        /* \"MainKYC/kyc1.sol\":6010:6154  function getRejectedUsers(address _provider) external view returns (address[] memory) {... */\n    tag_14:\n      tag_69\n      0x04\n      dup1\n      calldatasize\n      sub\n      dup2\n      add\n      swap1\n      tag_70\n      swap2\n      swap1\n      tag_26\n      jump\t// in\n    tag_70:\n      tag_71\n      jump\t// in\n    tag_69:\n      mload(0x40)\n      tag_72\n      swap2\n      swap1\n      tag_29\n      jump\t// in\n    tag_72:\n      mload(0x40)\n      dup1\n      swap2\n      sub\n      swap1\n      return\n        /* \"MainKYC/kyc1.sol\":388:425  mapping(address => User) public users */\n    tag_15:\n      tag_73\n      0x04\n      dup1\n      calldatasize\n      sub\n      dup2\n      add\n      swap1\n      tag_74\n      swap2\n      swap1\n      tag_26\n      jump\t// in\n    tag_74:\n      tag_75\n      jump\t// in\n    tag_73:\n      mload(0x40)\n      tag_76\n      swap7\n      swap6\n      swap5\n      swap4\n      swap3\n      swap2\n      swap1\n      tag_77\n      jump\t// in\n    tag_76:\n      mload(0x40)\n      dup1\n      swap2\n      sub\n      swap1\n      return\n        /* \"MainKYC/kyc1.sol\":678:740  mapping(address => mapping(address => bool)) public hasApplied */\n    tag_16:\n      tag_78\n      0x04\n      dup1\n      calldatasize\n      sub\n      dup2\n      add\n      swap1\n      tag_79\n      swap2\n      swap1\n      tag_80\n      jump\t// in\n    tag_79:\n      tag_81\n      jump\t// in\n    tag_78:\n      mload(0x40)\n      tag_82\n      swap2\n      swap1\n      tag_62\n      jump\t// in\n    tag_82:\n      mload(0x40)\n      dup1\n      swap2\n      sub\n      swap1\n      return\n        /* \"MainKYC/kyc1.sol\":3328:4176  function approveUser(address _user) external onlyProvider {... */\n    tag_17:\n      tag_83\n      0x04\n      dup1\n      calldatasize\n      sub\n      dup2\n      add\n      swap1\n      tag_84\n      swap2\n      swap1\n      tag_26\n      jump\t// in\n    tag_84:\n      tag_85\n      jump\t// in\n    tag_83:\n      stop\n        /* \"MainKYC/kyc1.sol\":5440:5700  function viewKYC(address _user) external returns (string memory, string memory, address) {... */\n    tag_18:\n      tag_86\n      0x04\n      dup1\n      calldatasize\n      sub\n      dup2\n      add\n      swap1\n      tag_87\n      swap2\n      swap1\n      tag_26\n      jump\t// in\n    tag_87:\n      tag_88\n      jump\t// in\n    tag_86:\n      mload(0x40)\n      tag_89\n      swap4\n      swap3\n      swap2\n      swap1\n      tag_90\n      jump\t// in\n    tag_89:\n      mload(0x40)\n      dup1\n      swap2\n      sub\n      swap1\n      return\n        /* \"MainKYC/kyc1.sol\":2399:3320  function submitKYC(... */\n    tag_19:\n      tag_91\n      0x04\n      dup1\n      calldatasize\n      sub\n      dup2\n      add\n      swap1\n      tag_92\n      swap2\n      swap1\n      tag_93\n      jump\t// in\n    tag_92:\n      tag_94\n      jump\t// in\n    tag_91:\n      stop\n        /* \"MainKYC/kyc1.sol\":613:671  mapping(address => address[]) public providerRejectedUsers */\n    tag_20:\n      tag_95\n      0x04\n      dup1\n      calldatasize\n      sub\n      dup2\n      add\n      swap1\n      tag_96\n      swap2\n      swap1\n      tag_32\n      jump\t// in\n    tag_96:\n      tag_97\n      jump\t// in\n    tag_95:\n      mload(0x40)\n      tag_98\n      swap2\n      swap1\n      tag_35\n      jump\t// in\n    tag_98:\n      mload(0x40)\n      dup1\n      swap2\n      sub\n      swap1\n      return\n        /* \"MainKYC/kyc1.sol\":5858:6002  function getApprovedUsers(address _provider) external view returns (address[] memory) {... */\n    tag_27:\n        /* \"MainKYC/kyc1.sol\":5926:5942  address[] memory */\n      0x60\n        /* \"MainKYC/kyc1.sol\":5962:5983  providerApprovedUsers */\n      0x03\n        /* \"MainKYC/kyc1.sol\":5962:5994  providerApprovedUsers[_provider] */\n      0x00\n        /* \"MainKYC/kyc1.sol\":5984:5993  _provider */\n      dup4\n        /* \"MainKYC/kyc1.sol\":5962:5994  providerApprovedUsers[_provider] */\n      0xffffffffffffffffffffffffffffffffffffffff\n      and\n      0xffffffffffffffffffffffffffffffffffffffff\n      and\n      dup2\n      mstore\n      0x20\n      add\n      swap1\n      dup2\n      mstore\n      0x20\n      add\n      0x00\n      keccak256\n        /* \"MainKYC/kyc1.sol\":5955:5994  return providerApprovedUsers[_provider] */\n      dup1\n      sload\n      dup1\n      0x20\n      mul\n      0x20\n      add\n      mload(0x40)\n      swap1\n      dup2\n      add\n      0x40\n      mstore\n      dup1\n      swap3\n      swap2\n      swap1\n      dup2\n      dup2\n      mstore\n      0x20\n      add\n      dup3\n      dup1\n      sload\n      dup1\n      iszero\n      tag_100\n      jumpi\n      0x20\n      mul\n      dup3\n      add\n      swap2\n      swap1\n      0x00\n      mstore\n      keccak256(0x00, 0x20)\n      swap1\n    tag_101:\n      dup2\n      0x00\n      swap1\n      sload\n      swap1\n      0x0100\n      exp\n      swap1\n      div\n      0xffffffffffffffffffffffffffffffffffffffff\n      and\n      0xffffffffffffffffffffffffffffffffffffffff\n      and\n      dup2\n      mstore\n      0x20\n      add\n      swap1\n      0x01\n      add\n      swap1\n      dup1\n      dup4\n      gt\n      tag_101\n      jumpi\n    tag_100:\n      pop\n      pop\n      pop\n      pop\n      pop\n      swap1\n      pop\n        /* \"MainKYC/kyc1.sol\":5858:6002  function getApprovedUsers(address _provider) external view returns (address[] memory) {... */\n      swap2\n      swap1\n      pop\n      jump\t// out\n        /* \"MainKYC/kyc1.sol\":549:606  mapping(address => address[]) public providerPendingUsers */\n    tag_33:\n      mstore(0x20, 0x04)\n      dup2\n      0x00\n      mstore\n      keccak256(0x00, 0x40)\n      dup2\n      dup2\n      sload\n      dup2\n      lt\n      tag_102\n      jumpi\n      0x00\n      dup1\n      revert\n    tag_102:\n      swap1\n      0x00\n      mstore\n      keccak256(0x00, 0x20)\n      add\n      0x00\n      swap2\n      pop\n      swap2\n      pop\n      swap1\n      sload\n      swap1\n      0x0100\n      exp\n      swap1\n      div\n      0xffffffffffffffffffffffffffffffffffffffff\n      and\n      dup2\n      jump\t// out\n        /* \"MainKYC/kyc1.sol\":484:542  mapping(address => address[]) public providerApprovedUsers */\n    tag_38:\n      mstore(0x20, 0x03)\n      dup2\n      0x00\n      mstore\n      keccak256(0x00, 0x40)\n      dup2\n      dup2\n      sload\n      dup2\n      lt\n      tag_104\n      jumpi\n      0x00\n      dup1\n      revert\n    tag_104:\n      swap1\n      0x00\n      mstore\n      keccak256(0x00, 0x20)\n      add\n      0x00\n      swap2\n      pop\n      swap2\n      pop\n      swap1\n      sload\n      swap1\n      0x0100\n      exp\n      swap1\n      div\n      0xffffffffffffffffffffffffffffffffffffffff\n      and\n      dup2\n      jump\t// out\n        /* \"MainKYC/kyc1.sol\":5708:5850  function getPendingUsers(address _provider) external view returns (address[] memory) {... */\n    tag_42:\n        /* \"MainKYC/kyc1.sol\":5775:5791  address[] memory */\n      0x60\n        /* \"MainKYC/kyc1.sol\":5811:5831  providerPendingUsers */\n      0x04\n        /* \"MainKYC/kyc1.sol\":5811:5842  providerPendingUsers[_provider] */\n      0x00\n        /* \"MainKYC/kyc1.sol\":5832:5841  _provider */\n      dup4\n        /* \"MainKYC/kyc1.sol\":5811:5842  providerPendingUsers[_provider] */\n      0xffffffffffffffffffffffffffffffffffffffff\n      and\n      0xffffffffffffffffffffffffffffffffffffffff\n      and\n      dup2\n      mstore\n      0x20\n      add\n      swap1\n      dup2\n      mstore\n      0x20\n      add\n      0x00\n      keccak256\n        /* \"MainKYC/kyc1.sol\":5804:5842  return providerPendingUsers[_provider] */\n      dup1\n      sload\n      dup1\n      0x20\n      mul\n      0x20\n      add\n      mload(0x40)\n      swap1\n      dup2\n      add\n      0x40\n      mstore\n      dup1\n      swap3\n      swap2\n      swap1\n      dup2\n      dup2\n      mstore\n      0x20\n      add\n      dup3\n      dup1\n      sload\n      dup1\n      iszero\n      tag_107\n      jumpi\n      0x20\n      mul\n      dup3\n      add\n      swap2\n      swap1\n      0x00\n      mstore\n      keccak256(0x00, 0x20)\n      swap1\n    tag_108:\n      dup2\n      0x00\n      swap1\n      sload\n      swap1\n      0x0100\n      exp\n      swap1\n      div\n      0xffffffffffffffffffffffffffffffffffffffff\n      and\n      0xffffffffffffffffffffffffffffffffffffffff\n      and\n      dup2\n      mstore\n      0x20\n      add\n      swap1\n      0x01\n      add\n      swap1\n      dup1\n      dup4\n      gt\n      tag_108\n      jumpi\n    tag_107:\n      pop\n      pop\n      pop\n      pop\n      pop\n      swap1\n      pop\n        /* \"MainKYC/kyc1.sol\":5708:5850  function getPendingUsers(address _provider) external view returns (address[] memory) {... */\n      swap2\n      swap1\n      pop\n      jump\t// out\n        /* \"MainKYC/kyc1.sol\":1872:2092  function addProvider(address _provider) external onlyOwner {... */\n    tag_46:\n        /* \"MainKYC/kyc1.sol\":1543:1548  owner */\n      0x00\n      dup1\n      sload\n      swap1\n      0x0100\n      exp\n      swap1\n      div\n      0xffffffffffffffffffffffffffffffffffffffff\n      and\n        /* \"MainKYC/kyc1.sol\":1529:1548  msg.sender == owner */\n      0xffffffffffffffffffffffffffffffffffffffff\n      and\n        /* \"MainKYC/kyc1.sol\":1529:1539  msg.sender */\n      caller\n        /* \"MainKYC/kyc1.sol\":1529:1548  msg.sender == owner */\n      0xffffffffffffffffffffffffffffffffffffffff\n      and\n      eq\n        /* \"MainKYC/kyc1.sol\":1521:1571  require(msg.sender == owner, \"Not contract owner\") */\n      tag_110\n      jumpi\n      mload(0x40)\n      0x08c379a000000000000000000000000000000000000000000000000000000000\n      dup2\n      mstore\n      0x04\n      add\n      tag_111\n      swap1\n      tag_112\n      jump\t// in\n    tag_111:\n      mload(0x40)\n      dup1\n      swap2\n      sub\n      swap1\n      revert\n    tag_110:\n        /* \"MainKYC/kyc1.sol\":1971:1972  0 */\n      0x00\n        /* \"MainKYC/kyc1.sol\":1950:1973  _provider != address(0) */\n      0xffffffffffffffffffffffffffffffffffffffff\n      and\n        /* \"MainKYC/kyc1.sol\":1950:1959  _provider */\n      dup2\n        /* \"MainKYC/kyc1.sol\":1950:1973  _provider != address(0) */\n      0xffffffffffffffffffffffffffffffffffffffff\n      and\n      sub\n        /* \"MainKYC/kyc1.sol\":1942:2002  require(_provider != address(0), \"Invalid provider address\") */\n      tag_114\n      jumpi\n      mload(0x40)\n      0x08c379a000000000000000000000000000000000000000000000000000000000\n      dup2\n      mstore\n      0x04\n      add\n      tag_115\n      swap1\n      tag_116\n      jump\t// in\n    tag_115:\n      mload(0x40)\n      dup1\n      swap2\n      sub\n      swap1\n      revert\n    tag_114:\n        /* \"MainKYC/kyc1.sol\":2040:2044  true */\n      0x01\n        /* \"MainKYC/kyc1.sol\":2013:2026  isGasProvider */\n      0x02\n        /* \"MainKYC/kyc1.sol\":2013:2037  isGasProvider[_provider] */\n      0x00\n        /* \"MainKYC/kyc1.sol\":2027:2036  _provider */\n      dup4\n        /* \"MainKYC/kyc1.sol\":2013:2037  isGasProvider[_provider] */\n      0xffffffffffffffffffffffffffffffffffffffff\n      and\n      0xffffffffffffffffffffffffffffffffffffffff\n      and\n      dup2\n      mstore\n      0x20\n      add\n      swap1\n      dup2\n      mstore\n      0x20\n      add\n      0x00\n      keccak256\n      0x00\n        /* \"MainKYC/kyc1.sol\":2013:2044  isGasProvider[_provider] = true */\n      0x0100\n      exp\n      dup2\n      sload\n      dup2\n      0xff\n      mul\n      not\n      and\n      swap1\n      dup4\n      iszero\n      iszero\n      mul\n      or\n      swap1\n      sstore\n      pop\n        /* \"MainKYC/kyc1.sol\":2074:2083  _provider */\n      dup1\n        /* \"MainKYC/kyc1.sol\":2060:2084  ProviderAdded(_provider) */\n      0xffffffffffffffffffffffffffffffffffffffff\n      and\n      0xae9c2c6481964847714ce58f65a7f6dcc41d0d8394449bacdf161b5920c4744a\n      mload(0x40)\n      mload(0x40)\n      dup1\n      swap2\n      sub\n      swap1\n      log2\n        /* \"MainKYC/kyc1.sol\":1872:2092  function addProvider(address _provider) external onlyOwner {... */\n      pop\n      jump\t// out\n        /* \"MainKYC/kyc1.sol\":5191:5432  function getKYC(address _user) external view returns (string memory, string memory, address, KYCStatus) {... */\n    tag_49:\n        /* \"MainKYC/kyc1.sol\":5245:5258  string memory */\n      0x60\n        /* \"MainKYC/kyc1.sol\":5260:5273  string memory */\n      dup1\n        /* \"MainKYC/kyc1.sol\":5275:5282  address */\n      0x00\n        /* \"MainKYC/kyc1.sol\":5284:5293  KYCStatus */\n      dup1\n        /* \"MainKYC/kyc1.sol\":5306:5319  User memory u */\n      0x00\n        /* \"MainKYC/kyc1.sol\":5322:5327  users */\n      0x01\n        /* \"MainKYC/kyc1.sol\":5322:5334  users[_user] */\n      0x00\n        /* \"MainKYC/kyc1.sol\":5328:5333  _user */\n      dup8\n        /* \"MainKYC/kyc1.sol\":5322:5334  users[_user] */\n      0xffffffffffffffffffffffffffffffffffffffff\n      and\n      0xffffffffffffffffffffffffffffffffffffffff\n      and\n      dup2\n      mstore\n      0x20\n      add\n      swap1\n      dup2\n      mstore\n      0x20\n      add\n      0x00\n      keccak256\n        /* \"MainKYC/kyc1.sol\":5306:5334  User memory u = users[_user] */\n      mload(0x40)\n      dup1\n      0xc0\n      add\n      0x40\n      mstore\n      swap1\n      dup2\n      0x00\n      dup3\n      add\n      dup1\n      sload\n      tag_118\n      swap1\n      tag_119\n      jump\t// in\n    tag_118:\n      dup1\n      0x1f\n      add\n      0x20\n      dup1\n      swap2\n      div\n      mul\n      0x20\n      add\n      mload(0x40)\n      swap1\n      dup2\n      add\n      0x40\n      mstore\n      dup1\n      swap3\n      swap2\n      swap1\n      dup2\n      dup2\n      mstore\n      0x20\n      add\n      dup3\n      dup1\n      sload\n      tag_120\n      swap1\n      tag_119\n      jump\t// in\n    tag_120:\n      dup1\n      iszero\n      tag_121\n      jumpi\n      dup1\n      0x1f\n      lt\n      tag_122\n      jumpi\n      0x0100\n      dup1\n      dup4\n      sload\n      div\n      mul\n      dup4\n      mstore\n      swap2\n      0x20\n      add\n      swap2\n      jump(tag_121)\n    tag_122:\n      dup3\n      add\n      swap2\n      swap1\n      0x00\n      mstore\n      keccak256(0x00, 0x20)\n      swap1\n    tag_123:\n      dup2\n      sload\n      dup2\n      mstore\n      swap1\n      0x01\n      add\n      swap1\n      0x20\n      add\n      dup1\n      dup4\n      gt\n      tag_123\n      jumpi\n      dup3\n      swap1\n      sub\n      0x1f\n      and\n      dup3\n      add\n      swap2\n    tag_121:\n      pop\n      pop\n      pop\n      pop\n      pop\n      dup2\n      mstore\n      0x20\n      add\n      0x01\n      dup3\n      add\n      dup1\n      sload\n      tag_124\n      swap1\n      tag_119\n      jump\t// in\n    tag_124:\n      dup1\n      0x1f\n      add\n      0x20\n      dup1\n      swap2\n      div\n      mul\n      0x20\n      add\n      mload(0x40)\n      swap1\n      dup2\n      add\n      0x40\n      mstore\n      dup1\n      swap3\n      swap2\n      swap1\n      dup2\n      dup2\n      mstore\n      0x20\n      add\n      dup3\n      dup1\n      sload\n      tag_125\n      swap1\n      tag_119\n      jump\t// in\n    tag_125:\n      dup1\n      iszero\n      tag_126\n      jumpi\n      dup1\n      0x1f\n      lt\n      tag_127\n      jumpi\n      0x0100\n      dup1\n      dup4\n      sload\n      div\n      mul\n      dup4\n      mstore\n      swap2\n      0x20\n      add\n      swap2\n      jump(tag_126)\n    tag_127:\n      dup3\n      add\n      swap2\n      swap1\n      0x00\n      mstore\n      keccak256(0x00, 0x20)\n      swap1\n    tag_128:\n      dup2\n      sload\n      dup2\n      mstore\n      swap1\n      0x01\n      add\n      swap1\n      0x20\n      add\n      dup1\n      dup4\n      gt\n      tag_128\n      jumpi\n      dup3\n      swap1\n      sub\n      0x1f\n      and\n      dup3\n      add\n      swap2\n    tag_126:\n      pop\n      pop\n      pop\n      pop\n      pop\n      dup2\n      mstore\n      0x20\n      add\n      0x02\n      dup3\n      add\n      0x00\n      swap1\n      sload\n      swap1\n      0x0100\n      exp\n      swap1\n      div\n      0xffffffffffffffffffffffffffffffffffffffff\n      and\n      0xffffffffffffffffffffffffffffffffffffffff\n      and\n      0xffffffffffffffffffffffffffffffffffffffff\n      and\n      dup2\n      mstore\n      0x20\n      add\n      0x02\n      dup3\n      add\n      0x14\n      swap1\n      sload\n      swap1\n      0x0100\n      exp\n      swap1\n      div\n      0xff\n      and\n      iszero\n      iszero\n      iszero\n      iszero\n      dup2\n      mstore\n      0x20\n      add\n      0x02\n      dup3\n      add\n      0x15\n      swap1\n      sload\n      swap1\n      0x0100\n      exp\n      swap1\n      div\n      0xff\n      and\n      0x02\n      dup2\n      gt\n      iszero\n      tag_129\n      jumpi\n      tag_130\n      tag_131\n      jump\t// in\n    tag_130:\n    tag_129:\n      0x02\n      dup2\n      gt\n      iszero\n      tag_132\n      jumpi\n      tag_133\n      tag_131\n      jump\t// in\n    tag_133:\n    tag_132:\n      dup2\n      mstore\n      0x20\n      add\n      0x03\n      dup3\n      add\n      sload\n      dup2\n      mstore\n      pop\n      pop\n      swap1\n      pop\n        /* \"MainKYC/kyc1.sol\":5353:5354  u */\n      dup1\n        /* \"MainKYC/kyc1.sol\":5353:5370  u.aadhar_ipfsHash */\n      0x00\n      add\n      mload\n        /* \"MainKYC/kyc1.sol\":5372:5373  u */\n      dup2\n        /* \"MainKYC/kyc1.sol\":5372:5394  u.electricity_ipfsHash */\n      0x20\n      add\n      mload\n        /* \"MainKYC/kyc1.sol\":5396:5397  u */\n      dup3\n        /* \"MainKYC/kyc1.sol\":5396:5413  u.currentProvider */\n      0x40\n      add\n      mload\n        /* \"MainKYC/kyc1.sol\":5415:5416  u */\n      dup4\n        /* \"MainKYC/kyc1.sol\":5415:5423  u.Status */\n      0x80\n      add\n      mload\n        /* \"MainKYC/kyc1.sol\":5345:5424  return (u.aadhar_ipfsHash, u.electricity_ipfsHash, u.currentProvider, u.Status) */\n      swap5\n      pop\n      swap5\n      pop\n      swap5\n      pop\n      swap5\n      pop\n      pop\n        /* \"MainKYC/kyc1.sol\":5191:5432  function getKYC(address _user) external view returns (string memory, string memory, address, KYCStatus) {... */\n      swap2\n      swap4\n      pop\n      swap2\n      swap4\n      jump\t// out\n        /* \"MainKYC/kyc1.sol\":4184:4609  function rejectUser(address _user) external onlyProvider {... */\n    tag_54:\n        /* \"MainKYC/kyc1.sol\":1642:1655  isGasProvider */\n      0x02\n        /* \"MainKYC/kyc1.sol\":1642:1667  isGasProvider[msg.sender] */\n      0x00\n        /* \"MainKYC/kyc1.sol\":1656:1666  msg.sender */\n      caller\n        /* \"MainKYC/kyc1.sol\":1642:1667  isGasProvider[msg.sender] */\n      0xffffffffffffffffffffffffffffffffffffffff\n      and\n      0xffffffffffffffffffffffffffffffffffffffff\n      and\n      dup2\n      mstore\n      0x20\n      add\n      swap1\n      dup2\n      mstore\n      0x20\n      add\n      0x00\n      keccak256\n      0x00\n      swap1\n      sload\n      swap1\n      0x0100\n      exp\n      swap1\n      div\n      0xff\n      and\n        /* \"MainKYC/kyc1.sol\":1634:1701  require(isGasProvider[msg.sender], \"Not a registered gas provider\") */\n      tag_135\n      jumpi\n      mload(0x40)\n      0x08c379a000000000000000000000000000000000000000000000000000000000\n      dup2\n      mstore\n      0x04\n      add\n      tag_136\n      swap1\n      tag_137\n      jump\t// in\n    tag_136:\n      mload(0x40)\n      dup1\n      swap2\n      sub\n      swap1\n      revert\n    tag_135:\n        /* \"MainKYC/kyc1.sol\":4260:4270  hasApplied */\n      0x06\n        /* \"MainKYC/kyc1.sol\":4260:4282  hasApplied[msg.sender] */\n      0x00\n        /* \"MainKYC/kyc1.sol\":4271:4281  msg.sender */\n      caller\n        /* \"MainKYC/kyc1.sol\":4260:4282  hasApplied[msg.sender] */\n      0xffffffffffffffffffffffffffffffffffffffff\n      and\n      0xffffffffffffffffffffffffffffffffffffffff\n      and\n      dup2\n      mstore\n      0x20\n      add\n      swap1\n      dup2\n      mstore\n      0x20\n      add\n      0x00\n      keccak256\n        /* \"MainKYC/kyc1.sol\":4260:4289  hasApplied[msg.sender][_user] */\n      0x00\n        /* \"MainKYC/kyc1.sol\":4283:4288  _user */\n      dup3\n        /* \"MainKYC/kyc1.sol\":4260:4289  hasApplied[msg.sender][_user] */\n      0xffffffffffffffffffffffffffffffffffffffff\n      and\n      0xffffffffffffffffffffffffffffffffffffffff\n      and\n      dup2\n      mstore\n      0x20\n      add\n      swap1\n      dup2\n      mstore\n      0x20\n      add\n      0x00\n      keccak256\n      0x00\n      swap1\n      sload\n      swap1\n      0x0100\n      exp\n      swap1\n      div\n      0xff\n      and\n        /* \"MainKYC/kyc1.sol\":4252:4329  require(hasApplied[msg.sender][_user], \"User did not apply to this provider\") */\n      tag_139\n      jumpi\n      mload(0x40)\n      0x08c379a000000000000000000000000000000000000000000000000000000000\n      dup2\n      mstore\n      0x04\n      add\n      tag_140\n      swap1\n      tag_141\n      jump\t// in\n    tag_140:\n      mload(0x40)\n      dup1\n      swap2\n      sub\n      swap1\n      revert\n    tag_139:\n        /* \"MainKYC/kyc1.sol\":4342:4399  _removeFromArray(providerPendingUsers[msg.sender], _user) */\n      tag_142\n        /* \"MainKYC/kyc1.sol\":4359:4379  providerPendingUsers */\n      0x04\n        /* \"MainKYC/kyc1.sol\":4359:4391  providerPendingUsers[msg.sender] */\n      0x00\n        /* \"MainKYC/kyc1.sol\":4380:4390  msg.sender */\n      caller\n        /* \"MainKYC/kyc1.sol\":4359:4391  providerPendingUsers[msg.sender] */\n      0xffffffffffffffffffffffffffffffffffffffff\n      and\n      0xffffffffffffffffffffffffffffffffffffffff\n      and\n      dup2\n      mstore\n      0x20\n      add\n      swap1\n      dup2\n      mstore\n      0x20\n      add\n      0x00\n      keccak256\n        /* \"MainKYC/kyc1.sol\":4393:4398  _user */\n      dup3\n        /* \"MainKYC/kyc1.sol\":4342:4358  _removeFromArray */\n      tag_143\n        /* \"MainKYC/kyc1.sol\":4342:4399  _removeFromArray(providerPendingUsers[msg.sender], _user) */\n      jump\t// in\n    tag_142:\n      pop\n        /* \"MainKYC/kyc1.sol\":4442:4447  false */\n      0x00\n        /* \"MainKYC/kyc1.sol\":4410:4420  hasApplied */\n      0x06\n        /* \"MainKYC/kyc1.sol\":4410:4432  hasApplied[msg.sender] */\n      0x00\n        /* \"MainKYC/kyc1.sol\":4421:4431  msg.sender */\n      caller\n        /* \"MainKYC/kyc1.sol\":4410:4432  hasApplied[msg.sender] */\n      0xffffffffffffffffffffffffffffffffffffffff\n      and\n      0xffffffffffffffffffffffffffffffffffffffff\n      and\n      dup2\n      mstore\n      0x20\n      add\n      swap1\n      dup2\n      mstore\n      0x20\n      add\n      0x00\n      keccak256\n        /* \"MainKYC/kyc1.sol\":4410:4439  hasApplied[msg.sender][_user] */\n      0x00\n        /* \"MainKYC/kyc1.sol\":4433:4438  _user */\n      dup4\n        /* \"MainKYC/kyc1.sol\":4410:4439  hasApplied[msg.sender][_user] */\n      0xffffffffffffffffffffffffffffffffffffffff\n      and\n      0xffffffffffffffffffffffffffffffffffffffff\n      and\n      dup2\n      mstore\n      0x20\n      add\n      swap1\n      dup2\n      mstore\n      0x20\n      add\n      0x00\n      keccak256\n      0x00\n        /* \"MainKYC/kyc1.sol\":4410:4447  hasApplied[msg.sender][_user] = false */\n      0x0100\n      exp\n      dup2\n      sload\n      dup2\n      0xff\n      mul\n      not\n      and\n      swap1\n      dup4\n      iszero\n      iszero\n      mul\n      or\n      swap1\n      sstore\n      pop\n        /* \"MainKYC/kyc1.sol\":4458:4479  providerRejectedUsers */\n      0x05\n        /* \"MainKYC/kyc1.sol\":4458:4491  providerRejectedUsers[msg.sender] */\n      0x00\n        /* \"MainKYC/kyc1.sol\":4480:4490  msg.sender */\n      caller\n        /* \"MainKYC/kyc1.sol\":4458:4491  providerRejectedUsers[msg.sender] */\n      0xffffffffffffffffffffffffffffffffffffffff\n      and\n      0xffffffffffffffffffffffffffffffffffffffff\n      and\n      dup2\n      mstore\n      0x20\n      add\n      swap1\n      dup2\n      mstore\n      0x20\n      add\n      0x00\n      keccak256\n        /* \"MainKYC/kyc1.sol\":4497:4502  _user */\n      dup2\n        /* \"MainKYC/kyc1.sol\":4458:4503  providerRejectedUsers[msg.sender].push(_user) */\n      swap1\n      dup1\n      0x01\n      dup2\n      sload\n      add\n      dup1\n      dup3\n      sstore\n      dup1\n      swap2\n      pop\n      pop\n      0x01\n      swap1\n      sub\n      swap1\n      0x00\n      mstore\n      keccak256(0x00, 0x20)\n      add\n      0x00\n      swap1\n      swap2\n      swap1\n      swap2\n      swap1\n      swap2\n      0x0100\n      exp\n      dup2\n      sload\n      dup2\n      0xffffffffffffffffffffffffffffffffffffffff\n      mul\n      not\n      and\n      swap1\n      dup4\n      0xffffffffffffffffffffffffffffffffffffffff\n      and\n      mul\n      or\n      swap1\n      sstore\n      pop\n        /* \"MainKYC/kyc1.sol\":4538:4556  KYCStatus.REJECTED */\n      0x02\n        /* \"MainKYC/kyc1.sol\":4516:4521  users */\n      0x01\n        /* \"MainKYC/kyc1.sol\":4516:4528  users[_user] */\n      0x00\n        /* \"MainKYC/kyc1.sol\":4522:4527  _user */\n      dup4\n        /* \"MainKYC/kyc1.sol\":4516:4528  users[_user] */\n      0xffffffffffffffffffffffffffffffffffffffff\n      and\n      0xffffffffffffffffffffffffffffffffffffffff\n      and\n      dup2\n      mstore\n      0x20\n      add\n      swap1\n      dup2\n      mstore\n      0x20\n      add\n      0x00\n      keccak256\n        /* \"MainKYC/kyc1.sol\":4516:4535  users[_user].Status */\n      0x02\n      add\n      0x15\n        /* \"MainKYC/kyc1.sol\":4516:4556  users[_user].Status = KYCStatus.REJECTED */\n      0x0100\n      exp\n      dup2\n      sload\n      dup2\n      0xff\n      mul\n      not\n      and\n      swap1\n      dup4\n      0x02\n      dup2\n      gt\n      iszero\n      tag_145\n      jumpi\n      tag_146\n      tag_131\n      jump\t// in\n    tag_146:\n    tag_145:\n      mul\n      or\n      swap1\n      sstore\n      pop\n        /* \"MainKYC/kyc1.sol\":4590:4600  msg.sender */\n      caller\n        /* \"MainKYC/kyc1.sol\":4574:4601  Rejected(_user, msg.sender) */\n      0xffffffffffffffffffffffffffffffffffffffff\n      and\n        /* \"MainKYC/kyc1.sol\":4583:4588  _user */\n      dup2\n        /* \"MainKYC/kyc1.sol\":4574:4601  Rejected(_user, msg.sender) */\n      0xffffffffffffffffffffffffffffffffffffffff\n      and\n      0x1fd08c43ff018b384f5037a68179f90e0808a91887eeb0c991bc72dbc96a53fd\n      mload(0x40)\n      mload(0x40)\n      dup1\n      swap2\n      sub\n      swap1\n      log3\n        /* \"MainKYC/kyc1.sol\":4184:4609  function rejectUser(address _user) external onlyProvider {... */\n      pop\n      jump\t// out\n        /* \"MainKYC/kyc1.sol\":4617:5181  function requestChangeProvider(address _newProvider) external {... */\n    tag_57:\n        /* \"MainKYC/kyc1.sol\":4698:4703  users */\n      0x01\n        /* \"MainKYC/kyc1.sol\":4698:4715  users[msg.sender] */\n      0x00\n        /* \"MainKYC/kyc1.sol\":4704:4714  msg.sender */\n      caller\n        /* \"MainKYC/kyc1.sol\":4698:4715  users[msg.sender] */\n      0xffffffffffffffffffffffffffffffffffffffff\n      and\n      0xffffffffffffffffffffffffffffffffffffffff\n      and\n      dup2\n      mstore\n      0x20\n      add\n      swap1\n      dup2\n      mstore\n      0x20\n      add\n      0x00\n      keccak256\n        /* \"MainKYC/kyc1.sol\":4698:4728  users[msg.sender].kycSubmitted */\n      0x02\n      add\n      0x14\n      swap1\n      sload\n      swap1\n      0x0100\n      exp\n      swap1\n      div\n      0xff\n      and\n        /* \"MainKYC/kyc1.sol\":4690:4750  require(users[msg.sender].kycSubmitted, \"KYC not submitted\") */\n      tag_148\n      jumpi\n      mload(0x40)\n      0x08c379a000000000000000000000000000000000000000000000000000000000\n      dup2\n      mstore\n      0x04\n      add\n      tag_149\n      swap1\n      tag_150\n      jump\t// in\n    tag_149:\n      mload(0x40)\n      dup1\n      swap2\n      sub\n      swap1\n      revert\n    tag_148:\n        /* \"MainKYC/kyc1.sol\":4769:4782  isGasProvider */\n      0x02\n        /* \"MainKYC/kyc1.sol\":4769:4796  isGasProvider[_newProvider] */\n      0x00\n        /* \"MainKYC/kyc1.sol\":4783:4795  _newProvider */\n      dup3\n        /* \"MainKYC/kyc1.sol\":4769:4796  isGasProvider[_newProvider] */\n      0xffffffffffffffffffffffffffffffffffffffff\n      and\n      0xffffffffffffffffffffffffffffffffffffffff\n      and\n      dup2\n      mstore\n      0x20\n      add\n      swap1\n      dup2\n      mstore\n      0x20\n      add\n      0x00\n      keccak256\n      0x00\n      swap1\n      sload\n      swap1\n      0x0100\n      exp\n      swap1\n      div\n      0xff\n      and\n        /* \"MainKYC/kyc1.sol\":4761:4817  require(isGasProvider[_newProvider], \"Invalid provider\") */\n      tag_151\n      jumpi\n      mload(0x40)\n      0x08c379a000000000000000000000000000000000000000000000000000000000\n      dup2\n      mstore\n      0x04\n      add\n      tag_152\n      swap1\n      tag_153\n      jump\t// in\n    tag_152:\n      mload(0x40)\n      dup1\n      swap2\n      sub\n      swap1\n      revert\n    tag_151:\n        /* \"MainKYC/kyc1.sol\":4852:4857  users */\n      0x01\n        /* \"MainKYC/kyc1.sol\":4852:4869  users[msg.sender] */\n      0x00\n        /* \"MainKYC/kyc1.sol\":4858:4868  msg.sender */\n      caller\n        /* \"MainKYC/kyc1.sol\":4852:4869  users[msg.sender] */\n      0xffffffffffffffffffffffffffffffffffffffff\n      and\n      0xffffffffffffffffffffffffffffffffffffffff\n      and\n      dup2\n      mstore\n      0x20\n      add\n      swap1\n      dup2\n      mstore\n      0x20\n      add\n      0x00\n      keccak256\n        /* \"MainKYC/kyc1.sol\":4852:4885  users[msg.sender].currentProvider */\n      0x02\n      add\n      0x00\n      swap1\n      sload\n      swap1\n      0x0100\n      exp\n      swap1\n      div\n      0xffffffffffffffffffffffffffffffffffffffff\n      and\n        /* \"MainKYC/kyc1.sol\":4836:4885  _newProvider != users[msg.sender].currentProvider */\n      0xffffffffffffffffffffffffffffffffffffffff\n      and\n        /* \"MainKYC/kyc1.sol\":4836:4848  _newProvider */\n      dup2\n        /* \"MainKYC/kyc1.sol\":4836:4885  _newProvider != users[msg.sender].currentProvider */\n      0xffffffffffffffffffffffffffffffffffffffff\n      and\n      sub\n        /* \"MainKYC/kyc1.sol\":4828:4916  require(_newProvider != users[msg.sender].currentProvider, \"Already with this provider\") */\n      tag_154\n      jumpi\n      mload(0x40)\n      0x08c379a000000000000000000000000000000000000000000000000000000000\n      dup2\n      mstore\n      0x04\n      add\n      tag_155\n      swap1\n      tag_156\n      jump\t// in\n    tag_155:\n      mload(0x40)\n      dup1\n      swap2\n      sub\n      swap1\n      revert\n    tag_154:\n        /* \"MainKYC/kyc1.sol\":4936:4946  hasApplied */\n      0x06\n        /* \"MainKYC/kyc1.sol\":4936:4960  hasApplied[_newProvider] */\n      0x00\n        /* \"MainKYC/kyc1.sol\":4947:4959  _newProvider */\n      dup3\n        /* \"MainKYC/kyc1.sol\":4936:4960  hasApplied[_newProvider] */\n      0xffffffffffffffffffffffffffffffffffffffff\n      and\n      0xffffffffffffffffffffffffffffffffffffffff\n      and\n      dup2\n      mstore\n      0x20\n      add\n      swap1\n      dup2\n      mstore\n      0x20\n      add\n      0x00\n      keccak256\n        /* \"MainKYC/kyc1.sol\":4936:4972  hasApplied[_newProvider][msg.sender] */\n      0x00\n        /* \"MainKYC/kyc1.sol\":4961:4971  msg.sender */\n      caller\n        /* \"MainKYC/kyc1.sol\":4936:4972  hasApplied[_newProvider][msg.sender] */\n      0xffffffffffffffffffffffffffffffffffffffff\n      and\n      0xffffffffffffffffffffffffffffffffffffffff\n      and\n      dup2\n      mstore\n      0x20\n      add\n      swap1\n      dup2\n      mstore\n      0x20\n      add\n      0x00\n      keccak256\n      0x00\n      swap1\n      sload\n      swap1\n      0x0100\n      exp\n      swap1\n      div\n      0xff\n      and\n        /* \"MainKYC/kyc1.sol\":4935:4972  !hasApplied[_newProvider][msg.sender] */\n      iszero\n        /* \"MainKYC/kyc1.sol\":4927:4994  require(!hasApplied[_newProvider][msg.sender], \"Already requested\") */\n      tag_157\n      jumpi\n      mload(0x40)\n      0x08c379a000000000000000000000000000000000000000000000000000000000\n      dup2\n      mstore\n      0x04\n      add\n      tag_158\n      swap1\n      tag_159\n      jump\t// in\n    tag_158:\n      mload(0x40)\n      dup1\n      swap2\n      sub\n      swap1\n      revert\n    tag_157:\n        /* \"MainKYC/kyc1.sol\":5007:5027  providerPendingUsers */\n      0x04\n        /* \"MainKYC/kyc1.sol\":5007:5041  providerPendingUsers[_newProvider] */\n      0x00\n        /* \"MainKYC/kyc1.sol\":5028:5040  _newProvider */\n      dup3\n        /* \"MainKYC/kyc1.sol\":5007:5041  providerPendingUsers[_newProvider] */\n      0xffffffffffffffffffffffffffffffffffffffff\n      and\n      0xffffffffffffffffffffffffffffffffffffffff\n      and\n      dup2\n      mstore\n      0x20\n      add\n      swap1\n      dup2\n      mstore\n      0x20\n      add\n      0x00\n      keccak256\n        /* \"MainKYC/kyc1.sol\":5047:5057  msg.sender */\n      caller\n        /* \"MainKYC/kyc1.sol\":5007:5058  providerPendingUsers[_newProvider].push(msg.sender) */\n      swap1\n      dup1\n      0x01\n      dup2\n      sload\n      add\n      dup1\n      dup3\n      sstore\n      dup1\n      swap2\n      pop\n      pop\n      0x01\n      swap1\n      sub\n      swap1\n      0x00\n      mstore\n      keccak256(0x00, 0x20)\n      add\n      0x00\n      swap1\n      swap2\n      swap1\n      swap2\n      swap1\n      swap2\n      0x0100\n      exp\n      dup2\n      sload\n      dup2\n      0xffffffffffffffffffffffffffffffffffffffff\n      mul\n      not\n      and\n      swap1\n      dup4\n      0xffffffffffffffffffffffffffffffffffffffff\n      and\n      mul\n      or\n      swap1\n      sstore\n      pop\n        /* \"MainKYC/kyc1.sol\":5108:5112  true */\n      0x01\n        /* \"MainKYC/kyc1.sol\":5069:5079  hasApplied */\n      0x06\n        /* \"MainKYC/kyc1.sol\":5069:5093  hasApplied[_newProvider] */\n      0x00\n        /* \"MainKYC/kyc1.sol\":5080:5092  _newProvider */\n      dup4\n        /* \"MainKYC/kyc1.sol\":5069:5093  hasApplied[_newProvider] */\n      0xffffffffffffffffffffffffffffffffffffffff\n      and\n      0xffffffffffffffffffffffffffffffffffffffff\n      and\n      dup2\n      mstore\n      0x20\n      add\n      swap1\n      dup2\n      mstore\n      0x20\n      add\n      0x00\n      keccak256\n        /* \"MainKYC/kyc1.sol\":5069:5105  hasApplied[_newProvider][msg.sender] */\n      0x00\n        /* \"MainKYC/kyc1.sol\":5094:5104  msg.sender */\n      caller\n        /* \"MainKYC/kyc1.sol\":5069:5105  hasApplied[_newProvider][msg.sender] */\n      0xffffffffffffffffffffffffffffffffffffffff\n      and\n      0xffffffffffffffffffffffffffffffffffffffff\n      and\n      dup2\n      mstore\n      0x20\n      add\n      swap1\n      dup2\n      mstore\n      0x20\n      add\n      0x00\n      keccak256\n      0x00\n        /* \"MainKYC/kyc1.sol\":5069:5112  hasApplied[_newProvider][msg.sender] = true */\n      0x0100\n      exp\n      dup2\n      sload\n      dup2\n      0xff\n      mul\n      not\n      and\n      swap1\n      dup4\n      iszero\n      iszero\n      mul\n      or\n      swap1\n      sstore\n      pop\n        /* \"MainKYC/kyc1.sol\":5160:5172  _newProvider */\n      dup1\n        /* \"MainKYC/kyc1.sol\":5130:5173  AppliedToProvider(msg.sender, _newProvider) */\n      0xffffffffffffffffffffffffffffffffffffffff\n      and\n        /* \"MainKYC/kyc1.sol\":5148:5158  msg.sender */\n      caller\n        /* \"MainKYC/kyc1.sol\":5130:5173  AppliedToProvider(msg.sender, _newProvider) */\n      0xffffffffffffffffffffffffffffffffffffffff\n      and\n      0xa222276c388157fdc7ad53e39fb6ac4d993fad09b12db3cce6cb691657c04d3a\n      mload(0x40)\n      mload(0x40)\n      dup1\n      swap2\n      sub\n      swap1\n      log3\n        /* \"MainKYC/kyc1.sol\":4617:5181  function requestChangeProvider(address _newProvider) external {... */\n      pop\n      jump\t// out\n        /* \"MainKYC/kyc1.sol\":432:477  mapping(address => bool) public isGasProvider */\n    tag_60:\n      mstore(0x20, 0x02)\n      dup1\n      0x00\n      mstore\n      keccak256(0x00, 0x40)\n      0x00\n      swap2\n      pop\n      sload\n      swap1\n      0x0100\n      exp\n      swap1\n      div\n      0xff\n      and\n      dup2\n      jump\t// out\n        /* \"MainKYC/kyc1.sol\":2100:2326  function removeProvider(address _provider) external onlyOwner {... */\n    tag_65:\n        /* \"MainKYC/kyc1.sol\":1543:1548  owner */\n      0x00\n      dup1\n      sload\n      swap1\n      0x0100\n      exp\n      swap1\n      div\n      0xffffffffffffffffffffffffffffffffffffffff\n      and\n        /* \"MainKYC/kyc1.sol\":1529:1548  msg.sender == owner */\n      0xffffffffffffffffffffffffffffffffffffffff\n      and\n        /* \"MainKYC/kyc1.sol\":1529:1539  msg.sender */\n      caller\n        /* \"MainKYC/kyc1.sol\":1529:1548  msg.sender == owner */\n      0xffffffffffffffffffffffffffffffffffffffff\n      and\n      eq\n        /* \"MainKYC/kyc1.sol\":1521:1571  require(msg.sender == owner, \"Not contract owner\") */\n      tag_162\n      jumpi\n      mload(0x40)\n      0x08c379a000000000000000000000000000000000000000000000000000000000\n      dup2\n      mstore\n      0x04\n      add\n      tag_163\n      swap1\n      tag_112\n      jump\t// in\n    tag_163:\n      mload(0x40)\n      dup1\n      swap2\n      sub\n      swap1\n      revert\n    tag_162:\n        /* \"MainKYC/kyc1.sol\":2181:2194  isGasProvider */\n      0x02\n        /* \"MainKYC/kyc1.sol\":2181:2205  isGasProvider[_provider] */\n      0x00\n        /* \"MainKYC/kyc1.sol\":2195:2204  _provider */\n      dup3\n        /* \"MainKYC/kyc1.sol\":2181:2205  isGasProvider[_provider] */\n      0xffffffffffffffffffffffffffffffffffffffff\n      and\n      0xffffffffffffffffffffffffffffffffffffffff\n      and\n      dup2\n      mstore\n      0x20\n      add\n      swap1\n      dup2\n      mstore\n      0x20\n      add\n      0x00\n      keccak256\n      0x00\n      swap1\n      sload\n      swap1\n      0x0100\n      exp\n      swap1\n      div\n      0xff\n      and\n        /* \"MainKYC/kyc1.sol\":2173:2233  require(isGasProvider[_provider], \"Provider not registered\") */\n      tag_165\n      jumpi\n      mload(0x40)\n      0x08c379a000000000000000000000000000000000000000000000000000000000\n      dup2\n      mstore\n      0x04\n      add\n      tag_166\n      swap1\n      tag_167\n      jump\t// in\n    tag_166:\n      mload(0x40)\n      dup1\n      swap2\n      sub\n      swap1\n      revert\n    tag_165:\n        /* \"MainKYC/kyc1.sol\":2271:2276  false */\n      0x00\n        /* \"MainKYC/kyc1.sol\":2244:2257  isGasProvider */\n      0x02\n        /* \"MainKYC/kyc1.sol\":2244:2268  isGasProvider[_provider] */\n      0x00\n        /* \"MainKYC/kyc1.sol\":2258:2267  _provider */\n      dup4\n        /* \"MainKYC/kyc1.sol\":2244:2268  isGasProvider[_provider] */\n      0xffffffffffffffffffffffffffffffffffffffff\n      and\n      0xffffffffffffffffffffffffffffffffffffffff\n      and\n      dup2\n      mstore\n      0x20\n      add\n      swap1\n      dup2\n      mstore\n      0x20\n      add\n      0x00\n      keccak256\n      0x00\n        /* \"MainKYC/kyc1.sol\":2244:2276  isGasProvider[_provider] = false */\n      0x0100\n      exp\n      dup2\n      sload\n      dup2\n      0xff\n      mul\n      not\n      and\n      swap1\n      dup4\n      iszero\n      iszero\n      mul\n      or\n      swap1\n      sstore\n      pop\n        /* \"MainKYC/kyc1.sol\":2308:2317  _provider */\n      dup1\n        /* \"MainKYC/kyc1.sol\":2292:2318  ProviderRemoved(_provider) */\n      0xffffffffffffffffffffffffffffffffffffffff\n      and\n      0x1589f8555933761a3cff8aa925061be3b46e2dd43f621322ab611d300f62b1d9\n      mload(0x40)\n      mload(0x40)\n      dup1\n      swap2\n      sub\n      swap1\n      log2\n        /* \"MainKYC/kyc1.sol\":2100:2326  function removeProvider(address _provider) external onlyOwner {... */\n      pop\n      jump\t// out\n        /* \"MainKYC/kyc1.sol\":92:112  address public owner */\n    tag_67:\n      0x00\n      dup1\n      sload\n      swap1\n      0x0100\n      exp\n      swap1\n      div\n      0xffffffffffffffffffffffffffffffffffffffff\n      and\n      dup2\n      jump\t// out\n        /* \"MainKYC/kyc1.sol\":6010:6154  function getRejectedUsers(address _provider) external view returns (address[] memory) {... */\n    tag_71:\n        /* \"MainKYC/kyc1.sol\":6078:6094  address[] memory */\n      0x60\n        /* \"MainKYC/kyc1.sol\":6114:6135  providerRejectedUsers */\n      0x05\n        /* \"MainKYC/kyc1.sol\":6114:6146  providerRejectedUsers[_provider] */\n      0x00\n        /* \"MainKYC/kyc1.sol\":6136:6145  _provider */\n      dup4\n        /* \"MainKYC/kyc1.sol\":6114:6146  providerRejectedUsers[_provider] */\n      0xffffffffffffffffffffffffffffffffffffffff\n      and\n      0xffffffffffffffffffffffffffffffffffffffff\n      and\n      dup2\n      mstore\n      0x20\n      add\n      swap1\n      dup2\n      mstore\n      0x20\n      add\n      0x00\n      keccak256\n        /* \"MainKYC/kyc1.sol\":6107:6146  return providerRejectedUsers[_provider] */\n      dup1\n      sload\n      dup1\n      0x20\n      mul\n      0x20\n      add\n      mload(0x40)\n      swap1\n      dup2\n      add\n      0x40\n      mstore\n      dup1\n      swap3\n      swap2\n      swap1\n      dup2\n      dup2\n      mstore\n      0x20\n      add\n      dup3\n      dup1\n      sload\n      dup1\n      iszero\n      tag_169\n      jumpi\n      0x20\n      mul\n      dup3\n      add\n      swap2\n      swap1\n      0x00\n      mstore\n      keccak256(0x00, 0x20)\n      swap1\n    tag_170:\n      dup2\n      0x00\n      swap1\n      sload\n      swap1\n      0x0100\n      exp\n      swap1\n      div\n      0xffffffffffffffffffffffffffffffffffffffff\n      and\n      0xffffffffffffffffffffffffffffffffffffffff\n      and\n      dup2\n      mstore\n      0x20\n      add\n      swap1\n      0x01\n      add\n      swap1\n      dup1\n      dup4\n      gt\n      tag_170\n      jumpi\n    tag_169:\n      pop\n      pop\n      pop\n      pop\n      pop\n      swap1\n      pop\n        /* \"MainKYC/kyc1.sol\":6010:6154  function getRejectedUsers(address _provider) external view returns (address[] memory) {... */\n      swap2\n      swap1\n      pop\n      jump\t// out\n        /* \"MainKYC/kyc1.sol\":388:425  mapping(address => User) public users */\n    tag_75:\n      mstore(0x20, 0x01)\n      dup1\n      0x00\n      mstore\n      keccak256(0x00, 0x40)\n      0x00\n      swap2\n      pop\n      swap1\n      pop\n      dup1\n      0x00\n      add\n      dup1\n      sload\n      tag_171\n      swap1\n      tag_119\n      jump\t// in\n    tag_171:\n      dup1\n      0x1f\n      add\n      0x20\n      dup1\n      swap2\n      div\n      mul\n      0x20\n      add\n      mload(0x40)\n      swap1\n      dup2\n      add\n      0x40\n      mstore\n      dup1\n      swap3\n      swap2\n      swap1\n      dup2\n      dup2\n      mstore\n      0x20\n      add\n      dup3\n      dup1\n      sload\n      tag_172\n      swap1\n      tag_119\n      jump\t// in\n    tag_172:\n      dup1\n      iszero\n      tag_173\n      jumpi\n      dup1\n      0x1f\n      lt\n      tag_174\n      jumpi\n      0x0100\n      dup1\n      dup4\n      sload\n      div\n      mul\n      dup4\n      mstore\n      swap2\n      0x20\n      add\n      swap2\n      jump(tag_173)\n    tag_174:\n      dup3\n      add\n      swap2\n      swap1\n      0x00\n      mstore\n      keccak256(0x00, 0x20)\n      swap1\n    tag_175:\n      dup2\n      sload\n      dup2\n      mstore\n      swap1\n      0x01\n      add\n      swap1\n      0x20\n      add\n      dup1\n      dup4\n      gt\n      tag_175\n      jumpi\n      dup3\n      swap1\n      sub\n      0x1f\n      and\n      dup3\n      add\n      swap2\n    tag_173:\n      pop\n      pop\n      pop\n      pop\n      pop\n      swap1\n      dup1\n      0x01\n      add\n      dup1\n      sload\n      tag_176\n      swap1\n      tag_119\n      jump\t// in\n    tag_176:\n      dup1\n      0x1f\n      add\n      0x20\n      dup1\n      swap2\n      div\n      mul\n      0x20\n      add\n      mload(0x40)\n      swap1\n      dup2\n      add\n      0x40\n      mstore\n      dup1\n      swap3\n      swap2\n      swap1\n      dup2\n      dup2\n      mstore\n      0x20\n      add\n      dup3\n      dup1\n      sload\n      tag_177\n      swap1\n      tag_119\n      jump\t// in\n    tag_177:\n      dup1\n      iszero\n      tag_178\n      jumpi\n      dup1\n      0x1f\n      lt\n      tag_179\n      jumpi\n      0x0100\n      dup1\n      dup4\n      sload\n      div\n      mul\n      dup4\n      mstore\n      swap2\n      0x20\n      add\n      swap2\n      jump(tag_178)\n    tag_179:\n      dup3\n      add\n      swap2\n      swap1\n      0x00\n      mstore\n      keccak256(0x00, 0x20)\n      swap1\n    tag_180:\n      dup2\n      sload\n      dup2\n      mstore\n      swap1\n      0x01\n      add\n      swap1\n      0x20\n      add\n      dup1\n      dup4\n      gt\n      tag_180\n      jumpi\n      dup3\n      swap1\n      sub\n      0x1f\n      and\n      dup3\n      add\n      swap2\n    tag_178:\n      pop\n      pop\n      pop\n      pop\n      pop\n      swap1\n      dup1\n      0x02\n      add\n      0x00\n      swap1\n      sload\n      swap1\n      0x0100\n      exp\n      swap1\n      div\n      0xffffffffffffffffffffffffffffffffffffffff\n      and\n      swap1\n      dup1\n      0x02\n      add\n      0x14\n      swap1\n      sload\n      swap1\n      0x0100\n      exp\n      swap1\n      div\n      0xff\n      and\n      swap1\n      dup1\n      0x02\n      add\n      0x15\n      swap1\n      sload\n      swap1\n      0x0100\n      exp\n      swap1\n      div\n      0xff\n      and\n      swap1\n      dup1\n      0x03\n      add\n      sload\n      swap1\n      pop\n      dup7\n      jump\t// out\n        /* \"MainKYC/kyc1.sol\":678:740  mapping(address => mapping(address => bool)) public hasApplied */\n    tag_81:\n      mstore(0x20, 0x06)\n      dup2\n      0x00\n      mstore\n      mstore(0x20, keccak256(0x00, 0x40))\n      dup1\n      0x00\n      mstore\n      keccak256(0x00, 0x40)\n      0x00\n      swap2\n      pop\n      swap2\n      pop\n      swap1\n      sload\n      swap1\n      0x0100\n      exp\n      swap1\n      div\n      0xff\n      and\n      dup2\n      jump\t// out\n        /* \"MainKYC/kyc1.sol\":3328:4176  function approveUser(address _user) external onlyProvider {... */\n    tag_85:\n        /* \"MainKYC/kyc1.sol\":1642:1655  isGasProvider */\n      0x02\n        /* \"MainKYC/kyc1.sol\":1642:1667  isGasProvider[msg.sender] */\n      0x00\n        /* \"MainKYC/kyc1.sol\":1656:1666  msg.sender */\n      caller\n        /* \"MainKYC/kyc1.sol\":1642:1667  isGasProvider[msg.sender] */\n      0xffffffffffffffffffffffffffffffffffffffff\n      and\n      0xffffffffffffffffffffffffffffffffffffffff\n      and\n      dup2\n      mstore\n      0x20\n      add\n      swap1\n      dup2\n      mstore\n      0x20\n      add\n      0x00\n      keccak256\n      0x00\n      swap1\n      sload\n      swap1\n      0x0100\n      exp\n      swap1\n      div\n      0xff\n      and\n        /* \"MainKYC/kyc1.sol\":1634:1701  require(isGasProvider[msg.sender], \"Not a registered gas provider\") */\n      tag_182\n      jumpi\n      mload(0x40)\n      0x08c379a000000000000000000000000000000000000000000000000000000000\n      dup2\n      mstore\n      0x04\n      add\n      tag_183\n      swap1\n      tag_137\n      jump\t// in\n    tag_183:\n      mload(0x40)\n      dup1\n      swap2\n      sub\n      swap1\n      revert\n    tag_182:\n        /* \"MainKYC/kyc1.sol\":3405:3415  hasApplied */\n      0x06\n        /* \"MainKYC/kyc1.sol\":3405:3427  hasApplied[msg.sender] */\n      0x00\n        /* \"MainKYC/kyc1.sol\":3416:3426  msg.sender */\n      caller\n        /* \"MainKYC/kyc1.sol\":3405:3427  hasApplied[msg.sender] */\n      0xffffffffffffffffffffffffffffffffffffffff\n      and\n      0xffffffffffffffffffffffffffffffffffffffff\n      and\n      dup2\n      mstore\n      0x20\n      add\n      swap1\n      dup2\n      mstore\n      0x20\n      add\n      0x00\n      keccak256\n        /* \"MainKYC/kyc1.sol\":3405:3434  hasApplied[msg.sender][_user] */\n      0x00\n        /* \"MainKYC/kyc1.sol\":3428:3433  _user */\n      dup3\n        /* \"MainKYC/kyc1.sol\":3405:3434  hasApplied[msg.sender][_user] */\n      0xffffffffffffffffffffffffffffffffffffffff\n      and\n      0xffffffffffffffffffffffffffffffffffffffff\n      and\n      dup2\n      mstore\n      0x20\n      add\n      swap1\n      dup2\n      mstore\n      0x20\n      add\n      0x00\n      keccak256\n      0x00\n      swap1\n      sload\n      swap1\n      0x0100\n      exp\n      swap1\n      div\n      0xff\n      and\n        /* \"MainKYC/kyc1.sol\":3397:3474  require(hasApplied[msg.sender][_user], \"User did not apply to this provider\") */\n      tag_185\n      jumpi\n      mload(0x40)\n      0x08c379a000000000000000000000000000000000000000000000000000000000\n      dup2\n      mstore\n      0x04\n      add\n      tag_186\n      swap1\n      tag_141\n      jump\t// in\n    tag_186:\n      mload(0x40)\n      dup1\n      swap2\n      sub\n      swap1\n      revert\n    tag_185:\n        /* \"MainKYC/kyc1.sol\":3487:3544  _removeFromArray(providerPendingUsers[msg.sender], _user) */\n      tag_187\n        /* \"MainKYC/kyc1.sol\":3504:3524  providerPendingUsers */\n      0x04\n        /* \"MainKYC/kyc1.sol\":3504:3536  providerPendingUsers[msg.sender] */\n      0x00\n        /* \"MainKYC/kyc1.sol\":3525:3535  msg.sender */\n      caller\n        /* \"MainKYC/kyc1.sol\":3504:3536  providerPendingUsers[msg.sender] */\n      0xffffffffffffffffffffffffffffffffffffffff\n      and\n      0xffffffffffffffffffffffffffffffffffffffff\n      and\n      dup2\n      mstore\n      0x20\n      add\n      swap1\n      dup2\n      mstore\n      0x20\n      add\n      0x00\n      keccak256\n        /* \"MainKYC/kyc1.sol\":3538:3543  _user */\n      dup3\n        /* \"MainKYC/kyc1.sol\":3487:3503  _removeFromArray */\n      tag_143\n        /* \"MainKYC/kyc1.sol\":3487:3544  _removeFromArray(providerPendingUsers[msg.sender], _user) */\n      jump\t// in\n    tag_187:\n      pop\n        /* \"MainKYC/kyc1.sol\":3587:3592  false */\n      0x00\n        /* \"MainKYC/kyc1.sol\":3555:3565  hasApplied */\n      0x06\n        /* \"MainKYC/kyc1.sol\":3555:3577  hasApplied[msg.sender] */\n      0x00\n        /* \"MainKYC/kyc1.sol\":3566:3576  msg.sender */\n      caller\n        /* \"MainKYC/kyc1.sol\":3555:3577  hasApplied[msg.sender] */\n      0xffffffffffffffffffffffffffffffffffffffff\n      and\n      0xffffffffffffffffffffffffffffffffffffffff\n      and\n      dup2\n      mstore\n      0x20\n      add\n      swap1\n      dup2\n      mstore\n      0x20\n      add\n      0x00\n      keccak256\n        /* \"MainKYC/kyc1.sol\":3555:3584  hasApplied[msg.sender][_user] */\n      0x00\n        /* \"MainKYC/kyc1.sol\":3578:3583  _user */\n      dup4\n        /* \"MainKYC/kyc1.sol\":3555:3584  hasApplied[msg.sender][_user] */\n      0xffffffffffffffffffffffffffffffffffffffff\n      and\n      0xffffffffffffffffffffffffffffffffffffffff\n      and\n      dup2\n      mstore\n      0x20\n      add\n      swap1\n      dup2\n      mstore\n      0x20\n      add\n      0x00\n      keccak256\n      0x00\n        /* \"MainKYC/kyc1.sol\":3555:3592  hasApplied[msg.sender][_user] = false */\n      0x0100\n      exp\n      dup2\n      sload\n      dup2\n      0xff\n      mul\n      not\n      and\n      swap1\n      dup4\n      iszero\n      iszero\n      mul\n      or\n      swap1\n      sstore\n      pop\n        /* \"MainKYC/kyc1.sol\":3605:3624  address oldProvider */\n      0x00\n        /* \"MainKYC/kyc1.sol\":3627:3632  users */\n      0x01\n        /* \"MainKYC/kyc1.sol\":3627:3639  users[_user] */\n      0x00\n        /* \"MainKYC/kyc1.sol\":3633:3638  _user */\n      dup4\n        /* \"MainKYC/kyc1.sol\":3627:3639  users[_user] */\n      0xffffffffffffffffffffffffffffffffffffffff\n      and\n      0xffffffffffffffffffffffffffffffffffffffff\n      and\n      dup2\n      mstore\n      0x20\n      add\n      swap1\n      dup2\n      mstore\n      0x20\n      add\n      0x00\n      keccak256\n        /* \"MainKYC/kyc1.sol\":3627:3655  users[_user].currentProvider */\n      0x02\n      add\n      0x00\n      swap1\n      sload\n      swap1\n      0x0100\n      exp\n      swap1\n      div\n      0xffffffffffffffffffffffffffffffffffffffff\n      and\n        /* \"MainKYC/kyc1.sol\":3605:3655  address oldProvider = users[_user].currentProvider */\n      swap1\n      pop\n        /* \"MainKYC/kyc1.sol\":3693:3694  0 */\n      0x00\n        /* \"MainKYC/kyc1.sol\":3670:3695  oldProvider != address(0) */\n      0xffffffffffffffffffffffffffffffffffffffff\n      and\n        /* \"MainKYC/kyc1.sol\":3670:3681  oldProvider */\n      dup2\n        /* \"MainKYC/kyc1.sol\":3670:3695  oldProvider != address(0) */\n      0xffffffffffffffffffffffffffffffffffffffff\n      and\n      eq\n      iszero\n        /* \"MainKYC/kyc1.sol\":3670:3724  oldProvider != address(0) && oldProvider != msg.sender */\n      dup1\n      iszero\n      tag_188\n      jumpi\n      pop\n        /* \"MainKYC/kyc1.sol\":3714:3724  msg.sender */\n      caller\n        /* \"MainKYC/kyc1.sol\":3699:3724  oldProvider != msg.sender */\n      0xffffffffffffffffffffffffffffffffffffffff\n      and\n        /* \"MainKYC/kyc1.sol\":3699:3710  oldProvider */\n      dup2\n        /* \"MainKYC/kyc1.sol\":3699:3724  oldProvider != msg.sender */\n      0xffffffffffffffffffffffffffffffffffffffff\n      and\n      eq\n      iszero\n        /* \"MainKYC/kyc1.sol\":3670:3724  oldProvider != address(0) && oldProvider != msg.sender */\n    tag_188:\n        /* \"MainKYC/kyc1.sol\":3666:3879  if (oldProvider != address(0) && oldProvider != msg.sender) {... */\n      iszero\n      tag_189\n      jumpi\n        /* \"MainKYC/kyc1.sol\":3741:3800  _removeFromArray(providerApprovedUsers[oldProvider], _user) */\n      tag_190\n        /* \"MainKYC/kyc1.sol\":3758:3779  providerApprovedUsers */\n      0x03\n        /* \"MainKYC/kyc1.sol\":3758:3792  providerApprovedUsers[oldProvider] */\n      0x00\n        /* \"MainKYC/kyc1.sol\":3780:3791  oldProvider */\n      dup4\n        /* \"MainKYC/kyc1.sol\":3758:3792  providerApprovedUsers[oldProvider] */\n      0xffffffffffffffffffffffffffffffffffffffff\n      and\n      0xffffffffffffffffffffffffffffffffffffffff\n      and\n      dup2\n      mstore\n      0x20\n      add\n      swap1\n      dup2\n      mstore\n      0x20\n      add\n      0x00\n      keccak256\n        /* \"MainKYC/kyc1.sol\":3794:3799  _user */\n      dup4\n        /* \"MainKYC/kyc1.sol\":3741:3757  _removeFromArray */\n      tag_143\n        /* \"MainKYC/kyc1.sol\":3741:3800  _removeFromArray(providerApprovedUsers[oldProvider], _user) */\n      jump\t// in\n    tag_190:\n      pop\n        /* \"MainKYC/kyc1.sol\":3856:3866  msg.sender */\n      caller\n        /* \"MainKYC/kyc1.sol\":3820:3867  ProviderChanged(_user, oldProvider, msg.sender) */\n      0xffffffffffffffffffffffffffffffffffffffff\n      and\n        /* \"MainKYC/kyc1.sol\":3843:3854  oldProvider */\n      dup2\n        /* \"MainKYC/kyc1.sol\":3820:3867  ProviderChanged(_user, oldProvider, msg.sender) */\n      0xffffffffffffffffffffffffffffffffffffffff\n      and\n        /* \"MainKYC/kyc1.sol\":3836:3841  _user */\n      dup4\n        /* \"MainKYC/kyc1.sol\":3820:3867  ProviderChanged(_user, oldProvider, msg.sender) */\n      0xffffffffffffffffffffffffffffffffffffffff\n      and\n      0x055c82a6b32b2e2dea7f4e2a04b12a041302f02402b487929279529d06142849\n      mload(0x40)\n      mload(0x40)\n      dup1\n      swap2\n      sub\n      swap1\n      log4\n        /* \"MainKYC/kyc1.sol\":3666:3879  if (oldProvider != address(0) && oldProvider != msg.sender) {... */\n    tag_189:\n        /* \"MainKYC/kyc1.sol\":3891:3912  providerApprovedUsers */\n      0x03\n        /* \"MainKYC/kyc1.sol\":3891:3924  providerApprovedUsers[msg.sender] */\n      0x00\n        /* \"MainKYC/kyc1.sol\":3913:3923  msg.sender */\n      caller\n        /* \"MainKYC/kyc1.sol\":3891:3924  providerApprovedUsers[msg.sender] */\n      0xffffffffffffffffffffffffffffffffffffffff\n      and\n      0xffffffffffffffffffffffffffffffffffffffff\n      and\n      dup2\n      mstore\n      0x20\n      add\n      swap1\n      dup2\n      mstore\n      0x20\n      add\n      0x00\n      keccak256\n        /* \"MainKYC/kyc1.sol\":3930:3935  _user */\n      dup3\n        /* \"MainKYC/kyc1.sol\":3891:3936  providerApprovedUsers[msg.sender].push(_user) */\n      swap1\n      dup1\n      0x01\n      dup2\n      sload\n      add\n      dup1\n      dup3\n      sstore\n      dup1\n      swap2\n      pop\n      pop\n      0x01\n      swap1\n      sub\n      swap1\n      0x00\n      mstore\n      keccak256(0x00, 0x20)\n      add\n      0x00\n      swap1\n      swap2\n      swap1\n      swap2\n      swap1\n      swap2\n      0x0100\n      exp\n      dup2\n      sload\n      dup2\n      0xffffffffffffffffffffffffffffffffffffffff\n      mul\n      not\n      and\n      swap1\n      dup4\n      0xffffffffffffffffffffffffffffffffffffffff\n      and\n      mul\n      or\n      swap1\n      sstore\n      pop\n        /* \"MainKYC/kyc1.sol\":3978:3988  msg.sender */\n      caller\n        /* \"MainKYC/kyc1.sol\":3947:3952  users */\n      0x01\n        /* \"MainKYC/kyc1.sol\":3947:3959  users[_user] */\n      0x00\n        /* \"MainKYC/kyc1.sol\":3953:3958  _user */\n      dup5\n        /* \"MainKYC/kyc1.sol\":3947:3959  users[_user] */\n      0xffffffffffffffffffffffffffffffffffffffff\n      and\n      0xffffffffffffffffffffffffffffffffffffffff\n      and\n      dup2\n      mstore\n      0x20\n      add\n      swap1\n      dup2\n      mstore\n      0x20\n      add\n      0x00\n      keccak256\n        /* \"MainKYC/kyc1.sol\":3947:3975  users[_user].currentProvider */\n      0x02\n      add\n      0x00\n        /* \"MainKYC/kyc1.sol\":3947:3988  users[_user].currentProvider = msg.sender */\n      0x0100\n      exp\n      dup2\n      sload\n      dup2\n      0xffffffffffffffffffffffffffffffffffffffff\n      mul\n      not\n      and\n      swap1\n      dup4\n      0xffffffffffffffffffffffffffffffffffffffff\n      and\n      mul\n      or\n      swap1\n      sstore\n      pop\n        /* \"MainKYC/kyc1.sol\":4021:4039  KYCStatus.APPROVED */\n      0x01\n        /* \"MainKYC/kyc1.sol\":3999:4004  users */\n      dup1\n        /* \"MainKYC/kyc1.sol\":3999:4011  users[_user] */\n      0x00\n        /* \"MainKYC/kyc1.sol\":4005:4010  _user */\n      dup5\n        /* \"MainKYC/kyc1.sol\":3999:4011  users[_user] */\n      0xffffffffffffffffffffffffffffffffffffffff\n      and\n      0xffffffffffffffffffffffffffffffffffffffff\n      and\n      dup2\n      mstore\n      0x20\n      add\n      swap1\n      dup2\n      mstore\n      0x20\n      add\n      0x00\n      keccak256\n        /* \"MainKYC/kyc1.sol\":3999:4018  users[_user].Status */\n      0x02\n      add\n      0x15\n        /* \"MainKYC/kyc1.sol\":3999:4039  users[_user].Status = KYCStatus.APPROVED */\n      0x0100\n      exp\n      dup2\n      sload\n      dup2\n      0xff\n      mul\n      not\n      and\n      swap1\n      dup4\n      0x02\n      dup2\n      gt\n      iszero\n      tag_192\n      jumpi\n      tag_193\n      tag_131\n      jump\t// in\n    tag_193:\n    tag_192:\n      mul\n      or\n      swap1\n      sstore\n      pop\n        /* \"MainKYC/kyc1.sol\":4126:4136  msg.sender */\n      caller\n        /* \"MainKYC/kyc1.sol\":4110:4168  Approved(_user, msg.sender, block.number, block.timestamp) */\n      0xffffffffffffffffffffffffffffffffffffffff\n      and\n        /* \"MainKYC/kyc1.sol\":4119:4124  _user */\n      dup3\n        /* \"MainKYC/kyc1.sol\":4110:4168  Approved(_user, msg.sender, block.number, block.timestamp) */\n      0xffffffffffffffffffffffffffffffffffffffff\n      and\n      0x71594b34a69973da9bff6f72cc0aad2c51069b6b8e9c70c0648b58d10d7bd84b\n        /* \"MainKYC/kyc1.sol\":4138:4150  block.number */\n      number\n        /* \"MainKYC/kyc1.sol\":4152:4167  block.timestamp */\n      timestamp\n        /* \"MainKYC/kyc1.sol\":4110:4168  Approved(_user, msg.sender, block.number, block.timestamp) */\n      mload(0x40)\n      tag_194\n      swap3\n      swap2\n      swap1\n      tag_195\n      jump\t// in\n    tag_194:\n      mload(0x40)\n      dup1\n      swap2\n      sub\n      swap1\n      log3\n        /* \"MainKYC/kyc1.sol\":3386:4176  {... */\n      pop\n        /* \"MainKYC/kyc1.sol\":3328:4176  function approveUser(address _user) external onlyProvider {... */\n      pop\n      jump\t// out\n        /* \"MainKYC/kyc1.sol\":5440:5700  function viewKYC(address _user) external returns (string memory, string memory, address) {... */\n    tag_88:\n        /* \"MainKYC/kyc1.sol\":5490:5503  string memory */\n      0x60\n        /* \"MainKYC/kyc1.sol\":5505:5518  string memory */\n      dup1\n        /* \"MainKYC/kyc1.sol\":5520:5527  address */\n      0x00\n        /* \"MainKYC/kyc1.sol\":5567:5572  _user */\n      dup4\n        /* \"MainKYC/kyc1.sol\":5545:5573  KYCViewed(msg.sender, _user) */\n      0xffffffffffffffffffffffffffffffffffffffff\n      and\n        /* \"MainKYC/kyc1.sol\":5555:5565  msg.sender */\n      caller\n        /* \"MainKYC/kyc1.sol\":5545:5573  KYCViewed(msg.sender, _user) */\n      0xffffffffffffffffffffffffffffffffffffffff\n      and\n      0x77062e8f0e8e0eda223a7e9844e2eac2a5cddcfa57a93c432300daa0f3e20f2c\n      mload(0x40)\n      mload(0x40)\n      dup1\n      swap2\n      sub\n      swap1\n      log3\n        /* \"MainKYC/kyc1.sol\":5584:5597  User memory u */\n      0x00\n        /* \"MainKYC/kyc1.sol\":5600:5605  users */\n      0x01\n        /* \"MainKYC/kyc1.sol\":5600:5612  users[_user] */\n      0x00\n        /* \"MainKYC/kyc1.sol\":5606:5611  _user */\n      dup7\n        /* \"MainKYC/kyc1.sol\":5600:5612  users[_user] */\n      0xffffffffffffffffffffffffffffffffffffffff\n      and\n      0xffffffffffffffffffffffffffffffffffffffff\n      and\n      dup2\n      mstore\n      0x20\n      add\n      swap1\n      dup2\n      mstore\n      0x20\n      add\n      0x00\n      keccak256\n        /* \"MainKYC/kyc1.sol\":5584:5612  User memory u = users[_user] */\n      mload(0x40)\n      dup1\n      0xc0\n      add\n      0x40\n      mstore\n      swap1\n      dup2\n      0x00\n      dup3\n      add\n      dup1\n      sload\n      tag_197\n      swap1\n      tag_119\n      jump\t// in\n    tag_197:\n      dup1\n      0x1f\n      add\n      0x20\n      dup1\n      swap2\n      div\n      mul\n      0x20\n      add\n      mload(0x40)\n      swap1\n      dup2\n      add\n      0x40\n      mstore\n      dup1\n      swap3\n      swap2\n      swap1\n      dup2\n      dup2\n      mstore\n      0x20\n      add\n      dup3\n      dup1\n      sload\n      tag_198\n      swap1\n      tag_119\n      jump\t// in\n    tag_198:\n      dup1\n      iszero\n      tag_199\n      jumpi\n      dup1\n      0x1f\n      lt\n      tag_200\n      jumpi\n      0x0100\n      dup1\n      dup4\n      sload\n      div\n      mul\n      dup4\n      mstore\n      swap2\n      0x20\n      add\n      swap2\n      jump(tag_199)\n    tag_200:\n      dup3\n      add\n      swap2\n      swap1\n      0x00\n      mstore\n      keccak256(0x00, 0x20)\n      swap1\n    tag_201:\n      dup2\n      sload\n      dup2\n      mstore\n      swap1\n      0x01\n      add\n      swap1\n      0x20\n      add\n      dup1\n      dup4\n      gt\n      tag_201\n      jumpi\n      dup3\n      swap1\n      sub\n      0x1f\n      and\n      dup3\n      add\n      swap2\n    tag_199:\n      pop\n      pop\n      pop\n      pop\n      pop\n      dup2\n      mstore\n      0x20\n      add\n      0x01\n      dup3\n      add\n      dup1\n      sload\n      tag_202\n      swap1\n      tag_119\n      jump\t// in\n    tag_202:\n      dup1\n      0x1f\n      add\n      0x20\n      dup1\n      swap2\n      div\n      mul\n      0x20\n      add\n      mload(0x40)\n      swap1\n      dup2\n      add\n      0x40\n      mstore\n      dup1\n      swap3\n      swap2\n      swap1\n      dup2\n      dup2\n      mstore\n      0x20\n      add\n      dup3\n      dup1\n      sload\n      tag_203\n      swap1\n      tag_119\n      jump\t// in\n    tag_203:\n      dup1\n      iszero\n      tag_204\n      jumpi\n      dup1\n      0x1f\n      lt\n      tag_205\n      jumpi\n      0x0100\n      dup1\n      dup4\n      sload\n      div\n      mul\n      dup4\n      mstore\n      swap2\n      0x20\n      add\n      swap2\n      jump(tag_204)\n    tag_205:\n      dup3\n      add\n      swap2\n      swap1\n      0x00\n      mstore\n      keccak256(0x00, 0x20)\n      swap1\n    tag_206:\n      dup2\n      sload\n      dup2\n      mstore\n      swap1\n      0x01\n      add\n      swap1\n      0x20\n      add\n      dup1\n      dup4\n      gt\n      tag_206\n      jumpi\n      dup3\n      swap1\n      sub\n      0x1f\n      and\n      dup3\n      add\n      swap2\n    tag_204:\n      pop\n      pop\n      pop\n      pop\n      pop\n      dup2\n      mstore\n      0x20\n      add\n      0x02\n      dup3\n      add\n      0x00\n      swap1\n      sload\n      swap1\n      0x0100\n      exp\n      swap1\n      div\n      0xffffffffffffffffffffffffffffffffffffffff\n      and\n      0xffffffffffffffffffffffffffffffffffffffff\n      and\n      0xffffffffffffffffffffffffffffffffffffffff\n      and\n      dup2\n      mstore\n      0x20\n      add\n      0x02\n      dup3\n      add\n      0x14\n      swap1\n      sload\n      swap1\n      0x0100\n      exp\n      swap1\n      div\n      0xff\n      and\n      iszero\n      iszero\n      iszero\n      iszero\n      dup2\n      mstore\n      0x20\n      add\n      0x02\n      dup3\n      add\n      0x15\n      swap1\n      sload\n      swap1\n      0x0100\n      exp\n      swap1\n      div\n      0xff\n      and\n      0x02\n      dup2\n      gt\n      iszero\n      tag_207\n      jumpi\n      tag_208\n      tag_131\n      jump\t// in\n    tag_208:\n    tag_207:\n      0x02\n      dup2\n      gt\n      iszero\n      tag_209\n      jumpi\n      tag_210\n      tag_131\n      jump\t// in\n    tag_210:\n    tag_209:\n      dup2\n      mstore\n      0x20\n      add\n      0x03\n      dup3\n      add\n      sload\n      dup2\n      mstore\n      pop\n      pop\n      swap1\n      pop\n        /* \"MainKYC/kyc1.sol\":5631:5632  u */\n      dup1\n        /* \"MainKYC/kyc1.sol\":5631:5648  u.aadhar_ipfsHash */\n      0x00\n      add\n      mload\n        /* \"MainKYC/kyc1.sol\":5650:5651  u */\n      dup2\n        /* \"MainKYC/kyc1.sol\":5650:5672  u.electricity_ipfsHash */\n      0x20\n      add\n      mload\n        /* \"MainKYC/kyc1.sol\":5674:5675  u */\n      dup3\n        /* \"MainKYC/kyc1.sol\":5674:5691  u.currentProvider */\n      0x40\n      add\n      mload\n        /* \"MainKYC/kyc1.sol\":5623:5692  return (u.aadhar_ipfsHash, u.electricity_ipfsHash, u.currentProvider) */\n      swap4\n      pop\n      swap4\n      pop\n      swap4\n      pop\n      pop\n        /* \"MainKYC/kyc1.sol\":5440:5700  function viewKYC(address _user) external returns (string memory, string memory, address) {... */\n      swap2\n      swap4\n      swap1\n      swap3\n      pop\n      jump\t// out\n        /* \"MainKYC/kyc1.sol\":2399:3320  function submitKYC(... */\n    tag_94:\n        /* \"MainKYC/kyc1.sol\":2589:2590  0 */\n      0x00\n        /* \"MainKYC/kyc1.sol\":2568:2578  a_ipfsHash */\n      dup6\n      dup6\n        /* \"MainKYC/kyc1.sol\":2562:2586  bytes(a_ipfsHash).length */\n      swap1\n      pop\n        /* \"MainKYC/kyc1.sol\":2562:2590  bytes(a_ipfsHash).length > 0 */\n      gt\n        /* \"MainKYC/kyc1.sol\":2562:2622  bytes(a_ipfsHash).length > 0 && bytes(e_ipfsHash).length > 0 */\n      dup1\n      iszero\n      tag_212\n      jumpi\n      pop\n        /* \"MainKYC/kyc1.sol\":2621:2622  0 */\n      0x00\n        /* \"MainKYC/kyc1.sol\":2600:2610  e_ipfsHash */\n      dup4\n      dup4\n        /* \"MainKYC/kyc1.sol\":2594:2618  bytes(e_ipfsHash).length */\n      swap1\n      pop\n        /* \"MainKYC/kyc1.sol\":2594:2622  bytes(e_ipfsHash).length > 0 */\n      gt\n        /* \"MainKYC/kyc1.sol\":2562:2622  bytes(a_ipfsHash).length > 0 && bytes(e_ipfsHash).length > 0 */\n    tag_212:\n        /* \"MainKYC/kyc1.sol\":2554:2652  require(bytes(a_ipfsHash).length > 0 && bytes(e_ipfsHash).length > 0, \"IPFS hash cannot be empty\") */\n      tag_213\n      jumpi\n      mload(0x40)\n      0x08c379a000000000000000000000000000000000000000000000000000000000\n      dup2\n      mstore\n      0x04\n      add\n      tag_214\n      swap1\n      tag_215\n      jump\t// in\n    tag_214:\n      mload(0x40)\n      dup1\n      swap2\n      sub\n      swap1\n      revert\n    tag_213:\n        /* \"MainKYC/kyc1.sol\":2672:2677  users */\n      0x01\n        /* \"MainKYC/kyc1.sol\":2672:2689  users[msg.sender] */\n      0x00\n        /* \"MainKYC/kyc1.sol\":2678:2688  msg.sender */\n      caller\n        /* \"MainKYC/kyc1.sol\":2672:2689  users[msg.sender] */\n      0xffffffffffffffffffffffffffffffffffffffff\n      and\n      0xffffffffffffffffffffffffffffffffffffffff\n      and\n      dup2\n      mstore\n      0x20\n      add\n      swap1\n      dup2\n      mstore\n      0x20\n      add\n      0x00\n      keccak256\n        /* \"MainKYC/kyc1.sol\":2672:2702  users[msg.sender].kycSubmitted */\n      0x02\n      add\n      0x14\n      swap1\n      sload\n      swap1\n      0x0100\n      exp\n      swap1\n      div\n      0xff\n      and\n        /* \"MainKYC/kyc1.sol\":2671:2702  !users[msg.sender].kycSubmitted */\n      iszero\n        /* \"MainKYC/kyc1.sol\":2663:2728  require(!users[msg.sender].kycSubmitted, \"KYC already submitted\") */\n      tag_216\n      jumpi\n      mload(0x40)\n      0x08c379a000000000000000000000000000000000000000000000000000000000\n      dup2\n      mstore\n      0x04\n      add\n      tag_217\n      swap1\n      tag_218\n      jump\t// in\n    tag_217:\n      mload(0x40)\n      dup1\n      swap2\n      sub\n      swap1\n      revert\n    tag_216:\n        /* \"MainKYC/kyc1.sol\":2747:2760  isGasProvider */\n      0x02\n        /* \"MainKYC/kyc1.sol\":2747:2778  isGasProvider[selectedProvider] */\n      0x00\n        /* \"MainKYC/kyc1.sol\":2761:2777  selectedProvider */\n      dup3\n        /* \"MainKYC/kyc1.sol\":2747:2778  isGasProvider[selectedProvider] */\n      0xffffffffffffffffffffffffffffffffffffffff\n      and\n      0xffffffffffffffffffffffffffffffffffffffff\n      and\n      dup2\n      mstore\n      0x20\n      add\n      swap1\n      dup2\n      mstore\n      0x20\n      add\n      0x00\n      keccak256\n      0x00\n      swap1\n      sload\n      swap1\n      0x0100\n      exp\n      swap1\n      div\n      0xff\n      and\n        /* \"MainKYC/kyc1.sol\":2739:2799  require(isGasProvider[selectedProvider], \"Invalid provider\") */\n      tag_219\n      jumpi\n      mload(0x40)\n      0x08c379a000000000000000000000000000000000000000000000000000000000\n      dup2\n      mstore\n      0x04\n      add\n      tag_220\n      swap1\n      tag_153\n      jump\t// in\n    tag_220:\n      mload(0x40)\n      dup1\n      swap2\n      sub\n      swap1\n      revert\n    tag_219:\n        /* \"MainKYC/kyc1.sol\":2832:3102  User({... */\n      mload(0x40)\n      dup1\n      0xc0\n      add\n      0x40\n      mstore\n      dup1\n        /* \"MainKYC/kyc1.sol\":2869:2879  a_ipfsHash */\n      dup7\n      dup7\n        /* \"MainKYC/kyc1.sol\":2832:3102  User({... */\n      dup1\n      dup1\n      0x1f\n      add\n      0x20\n      dup1\n      swap2\n      div\n      mul\n      0x20\n      add\n      mload(0x40)\n      swap1\n      dup2\n      add\n      0x40\n      mstore\n      dup1\n      swap4\n      swap3\n      swap2\n      swap1\n      dup2\n      dup2\n      mstore\n      0x20\n      add\n      dup4\n      dup4\n      dup1\n      dup3\n      dup5\n      calldatacopy\n      0x00\n      dup2\n      dup5\n      add\n      mstore\n      not(0x1f)\n      0x1f\n      dup3\n      add\n      and\n      swap1\n      pop\n      dup1\n      dup4\n      add\n      swap3\n      pop\n      pop\n      pop\n      pop\n      pop\n      pop\n      pop\n      dup2\n      mstore\n      0x20\n      add\n        /* \"MainKYC/kyc1.sol\":2916:2926  e_ipfsHash */\n      dup5\n      dup5\n        /* \"MainKYC/kyc1.sol\":2832:3102  User({... */\n      dup1\n      dup1\n      0x1f\n      add\n      0x20\n      dup1\n      swap2\n      div\n      mul\n      0x20\n      add\n      mload(0x40)\n      swap1\n      dup2\n      add\n      0x40\n      mstore\n      dup1\n      swap4\n      swap3\n      swap2\n      swap1\n      dup2\n      dup2\n      mstore\n      0x20\n      add\n      dup4\n      dup4\n      dup1\n      dup3\n      dup5\n      calldatacopy\n      0x00\n      dup2\n      dup5\n      add\n      mstore\n      not(0x1f)\n      0x1f\n      dup3\n      add\n      and\n      swap1\n      pop\n      dup1\n      dup4\n      add\n      swap3\n      pop\n      pop\n      pop\n      pop\n      pop\n      pop\n      pop\n      dup2\n      mstore\n      0x20\n      add\n        /* \"MainKYC/kyc1.sol\":2958:2974  selectedProvider */\n      dup3\n        /* \"MainKYC/kyc1.sol\":2832:3102  User({... */\n      0xffffffffffffffffffffffffffffffffffffffff\n      and\n      dup2\n      mstore\n      0x20\n      add\n        /* \"MainKYC/kyc1.sol\":3003:3007  true */\n      0x01\n        /* \"MainKYC/kyc1.sol\":2832:3102  User({... */\n      iszero\n      iszero\n      dup2\n      mstore\n      0x20\n      add\n        /* \"MainKYC/kyc1.sol\":3030:3047  KYCStatus.PENDING */\n      0x00\n        /* \"MainKYC/kyc1.sol\":2832:3102  User({... */\n      0x02\n      dup2\n      gt\n      iszero\n      tag_221\n      jumpi\n      tag_222\n      tag_131\n      jump\t// in\n    tag_222:\n    tag_221:\n      dup2\n      mstore\n      0x20\n      add\n        /* \"MainKYC/kyc1.sol\":3075:3090  block.timestamp */\n      timestamp\n        /* \"MainKYC/kyc1.sol\":2832:3102  User({... */\n      dup2\n      mstore\n      pop\n        /* \"MainKYC/kyc1.sol\":2812:2817  users */\n      0x01\n        /* \"MainKYC/kyc1.sol\":2812:2829  users[msg.sender] */\n      0x00\n        /* \"MainKYC/kyc1.sol\":2818:2828  msg.sender */\n      caller\n        /* \"MainKYC/kyc1.sol\":2812:2829  users[msg.sender] */\n      0xffffffffffffffffffffffffffffffffffffffff\n      and\n      0xffffffffffffffffffffffffffffffffffffffff\n      and\n      dup2\n      mstore\n      0x20\n      add\n      swap1\n      dup2\n      mstore\n      0x20\n      add\n      0x00\n      keccak256\n        /* \"MainKYC/kyc1.sol\":2812:3102  users[msg.sender] = User({... */\n      0x00\n      dup3\n      add\n      mload\n      dup2\n      0x00\n      add\n      swap1\n      dup2\n      tag_223\n      swap2\n      swap1\n      tag_224\n      jump\t// in\n    tag_223:\n      pop\n      0x20\n      dup3\n      add\n      mload\n      dup2\n      0x01\n      add\n      swap1\n      dup2\n      tag_225\n      swap2\n      swap1\n      tag_224\n      jump\t// in\n    tag_225:\n      pop\n      0x40\n      dup3\n      add\n      mload\n      dup2\n      0x02\n      add\n      exp(0x0100, 0x00)\n      dup2\n      sload\n      dup2\n      0xffffffffffffffffffffffffffffffffffffffff\n      mul\n      not\n      and\n      swap1\n      dup4\n      0xffffffffffffffffffffffffffffffffffffffff\n      and\n      mul\n      or\n      swap1\n      sstore\n      pop\n      0x60\n      dup3\n      add\n      mload\n      dup2\n      0x02\n      add\n      exp(0x0100, 0x14)\n      dup2\n      sload\n      dup2\n      0xff\n      mul\n      not\n      and\n      swap1\n      dup4\n      iszero\n      iszero\n      mul\n      or\n      swap1\n      sstore\n      pop\n      0x80\n      dup3\n      add\n      mload\n      dup2\n      0x02\n      add\n      exp(0x0100, 0x15)\n      dup2\n      sload\n      dup2\n      0xff\n      mul\n      not\n      and\n      swap1\n      dup4\n      0x02\n      dup2\n      gt\n      iszero\n      tag_226\n      jumpi\n      tag_227\n      tag_131\n      jump\t// in\n    tag_227:\n    tag_226:\n      mul\n      or\n      swap1\n      sstore\n      pop\n      0xa0\n      dup3\n      add\n      mload\n      dup2\n      0x03\n      add\n      sstore\n      swap1\n      pop\n      pop\n        /* \"MainKYC/kyc1.sol\":3115:3135  providerPendingUsers */\n      0x04\n        /* \"MainKYC/kyc1.sol\":3115:3153  providerPendingUsers[selectedProvider] */\n      0x00\n        /* \"MainKYC/kyc1.sol\":3136:3152  selectedProvider */\n      dup3\n        /* \"MainKYC/kyc1.sol\":3115:3153  providerPendingUsers[selectedProvider] */\n      0xffffffffffffffffffffffffffffffffffffffff\n      and\n      0xffffffffffffffffffffffffffffffffffffffff\n      and\n      dup2\n      mstore\n      0x20\n      add\n      swap1\n      dup2\n      mstore\n      0x20\n      add\n      0x00\n      keccak256\n        /* \"MainKYC/kyc1.sol\":3159:3169  msg.sender */\n      caller\n        /* \"MainKYC/kyc1.sol\":3115:3170  providerPendingUsers[selectedProvider].push(msg.sender) */\n      swap1\n      dup1\n      0x01\n      dup2\n      sload\n      add\n      dup1\n      dup3\n      sstore\n      dup1\n      swap2\n      pop\n      pop\n      0x01\n      swap1\n      sub\n      swap1\n      0x00\n      mstore\n      keccak256(0x00, 0x20)\n      add\n      0x00\n      swap1\n      swap2\n      swap1\n      swap2\n      swap1\n      swap2\n      0x0100\n      exp\n      dup2\n      sload\n      dup2\n      0xffffffffffffffffffffffffffffffffffffffff\n      mul\n      not\n      and\n      swap1\n      dup4\n      0xffffffffffffffffffffffffffffffffffffffff\n      and\n      mul\n      or\n      swap1\n      sstore\n      pop\n        /* \"MainKYC/kyc1.sol\":3224:3228  true */\n      0x01\n        /* \"MainKYC/kyc1.sol\":3181:3191  hasApplied */\n      0x06\n        /* \"MainKYC/kyc1.sol\":3181:3209  hasApplied[selectedProvider] */\n      0x00\n        /* \"MainKYC/kyc1.sol\":3192:3208  selectedProvider */\n      dup4\n        /* \"MainKYC/kyc1.sol\":3181:3209  hasApplied[selectedProvider] */\n      0xffffffffffffffffffffffffffffffffffffffff\n      and\n      0xffffffffffffffffffffffffffffffffffffffff\n      and\n      dup2\n      mstore\n      0x20\n      add\n      swap1\n      dup2\n      mstore\n      0x20\n      add\n      0x00\n      keccak256\n        /* \"MainKYC/kyc1.sol\":3181:3221  hasApplied[selectedProvider][msg.sender] */\n      0x00\n        /* \"MainKYC/kyc1.sol\":3210:3220  msg.sender */\n      caller\n        /* \"MainKYC/kyc1.sol\":3181:3221  hasApplied[selectedProvider][msg.sender] */\n      0xffffffffffffffffffffffffffffffffffffffff\n      and\n      0xffffffffffffffffffffffffffffffffffffffff\n      and\n      dup2\n      mstore\n      0x20\n      add\n      swap1\n      dup2\n      mstore\n      0x20\n      add\n      0x00\n      keccak256\n      0x00\n        /* \"MainKYC/kyc1.sol\":3181:3228  hasApplied[selectedProvider][msg.sender] = true */\n      0x0100\n      exp\n      dup2\n      sload\n      dup2\n      0xff\n      mul\n      not\n      and\n      swap1\n      dup4\n      iszero\n      iszero\n      mul\n      or\n      swap1\n      sstore\n      pop\n        /* \"MainKYC/kyc1.sol\":3295:3311  selectedProvider */\n      dup1\n        /* \"MainKYC/kyc1.sol\":3246:3312  KYCSubmitted(msg.sender, a_ipfsHash, e_ipfsHash, selectedProvider) */\n      0xffffffffffffffffffffffffffffffffffffffff\n      and\n        /* \"MainKYC/kyc1.sol\":3259:3269  msg.sender */\n      caller\n        /* \"MainKYC/kyc1.sol\":3246:3312  KYCSubmitted(msg.sender, a_ipfsHash, e_ipfsHash, selectedProvider) */\n      0xffffffffffffffffffffffffffffffffffffffff\n      and\n      0x90935b2e8ea2a16f5cb7d5b4437f4637e6824afa100ee9b42a9647cde7316f63\n        /* \"MainKYC/kyc1.sol\":3271:3281  a_ipfsHash */\n      dup8\n      dup8\n        /* \"MainKYC/kyc1.sol\":3283:3293  e_ipfsHash */\n      dup8\n      dup8\n        /* \"MainKYC/kyc1.sol\":3246:3312  KYCSubmitted(msg.sender, a_ipfsHash, e_ipfsHash, selectedProvider) */\n      mload(0x40)\n      tag_229\n      swap5\n      swap4\n      swap3\n      swap2\n      swap1\n      tag_230\n      jump\t// in\n    tag_229:\n      mload(0x40)\n      dup1\n      swap2\n      sub\n      swap1\n      log3\n        /* \"MainKYC/kyc1.sol\":2399:3320  function submitKYC(... */\n      pop\n      pop\n      pop\n      pop\n      pop\n      jump\t// out\n        /* \"MainKYC/kyc1.sol\":613:671  mapping(address => address[]) public providerRejectedUsers */\n    tag_97:\n      mstore(0x20, 0x05)\n      dup2\n      0x00\n      mstore\n      keccak256(0x00, 0x40)\n      dup2\n      dup2\n      sload\n      dup2\n      lt\n      tag_231\n      jumpi\n      0x00\n      dup1\n      revert\n    tag_231:\n      swap1\n      0x00\n      mstore\n      keccak256(0x00, 0x20)\n      add\n      0x00\n      swap2\n      pop\n      swap2\n      pop\n      swap1\n      sload\n      swap1\n      0x0100\n      exp\n      swap1\n      div\n      0xffffffffffffffffffffffffffffffffffffffff\n      and\n      dup2\n      jump\t// out\n        /* \"MainKYC/kyc1.sol\":6162:6509  function _removeFromArray(address[] storage array, address user) internal returns (bool) {... */\n    tag_143:\n        /* \"MainKYC/kyc1.sol\":6245:6249  bool */\n      0x00\n        /* \"MainKYC/kyc1.sol\":6267:6273  uint i */\n      dup1\n        /* \"MainKYC/kyc1.sol\":6276:6277  0 */\n      0x00\n        /* \"MainKYC/kyc1.sol\":6267:6277  uint i = 0 */\n      swap1\n      pop\n        /* \"MainKYC/kyc1.sol\":6262:6479  for (uint i = 0; i < array.length; i++) {... */\n    tag_234:\n        /* \"MainKYC/kyc1.sol\":6283:6288  array */\n      dup4\n        /* \"MainKYC/kyc1.sol\":6283:6295  array.length */\n      dup1\n      sload\n      swap1\n      pop\n        /* \"MainKYC/kyc1.sol\":6279:6280  i */\n      dup2\n        /* \"MainKYC/kyc1.sol\":6279:6295  i < array.length */\n      lt\n        /* \"MainKYC/kyc1.sol\":6262:6479  for (uint i = 0; i < array.length; i++) {... */\n      iszero\n      tag_235\n      jumpi\n        /* \"MainKYC/kyc1.sol\":6333:6337  user */\n      dup3\n        /* \"MainKYC/kyc1.sol\":6321:6337  array[i] == user */\n      0xffffffffffffffffffffffffffffffffffffffff\n      and\n        /* \"MainKYC/kyc1.sol\":6321:6326  array */\n      dup5\n        /* \"MainKYC/kyc1.sol\":6327:6328  i */\n      dup3\n        /* \"MainKYC/kyc1.sol\":6321:6329  array[i] */\n      dup2\n      sload\n      dup2\n      lt\n      tag_237\n      jumpi\n      tag_238\n      tag_239\n      jump\t// in\n    tag_238:\n    tag_237:\n      swap1\n      0x00\n      mstore\n      keccak256(0x00, 0x20)\n      add\n      0x00\n      swap1\n      sload\n      swap1\n      0x0100\n      exp\n      swap1\n      div\n      0xffffffffffffffffffffffffffffffffffffffff\n      and\n        /* \"MainKYC/kyc1.sol\":6321:6337  array[i] == user */\n      0xffffffffffffffffffffffffffffffffffffffff\n      and\n      sub\n        /* \"MainKYC/kyc1.sol\":6317:6468  if (array[i] == user) {... */\n      tag_241\n      jumpi\n        /* \"MainKYC/kyc1.sol\":6369:6374  array */\n      dup4\n        /* \"MainKYC/kyc1.sol\":6390:6391  1 */\n      0x01\n        /* \"MainKYC/kyc1.sol\":6375:6380  array */\n      dup6\n        /* \"MainKYC/kyc1.sol\":6375:6387  array.length */\n      dup1\n      sload\n      swap1\n      pop\n        /* \"MainKYC/kyc1.sol\":6375:6391  array.length - 1 */\n      tag_242\n      swap2\n      swap1\n      tag_243\n      jump\t// in\n    tag_242:\n        /* \"MainKYC/kyc1.sol\":6369:6392  array[array.length - 1] */\n      dup2\n      sload\n      dup2\n      lt\n      tag_244\n      jumpi\n      tag_245\n      tag_239\n      jump\t// in\n    tag_245:\n    tag_244:\n      swap1\n      0x00\n      mstore\n      keccak256(0x00, 0x20)\n      add\n      0x00\n      swap1\n      sload\n      swap1\n      0x0100\n      exp\n      swap1\n      div\n      0xffffffffffffffffffffffffffffffffffffffff\n      and\n        /* \"MainKYC/kyc1.sol\":6358:6363  array */\n      dup5\n        /* \"MainKYC/kyc1.sol\":6364:6365  i */\n      dup3\n        /* \"MainKYC/kyc1.sol\":6358:6366  array[i] */\n      dup2\n      sload\n      dup2\n      lt\n      tag_247\n      jumpi\n      tag_248\n      tag_239\n      jump\t// in\n    tag_248:\n    tag_247:\n      swap1\n      0x00\n      mstore\n      keccak256(0x00, 0x20)\n      add\n      0x00\n        /* \"MainKYC/kyc1.sol\":6358:6392  array[i] = array[array.length - 1] */\n      0x0100\n      exp\n      dup2\n      sload\n      dup2\n      0xffffffffffffffffffffffffffffffffffffffff\n      mul\n      not\n      and\n      swap1\n      dup4\n      0xffffffffffffffffffffffffffffffffffffffff\n      and\n      mul\n      or\n      swap1\n      sstore\n      pop\n        /* \"MainKYC/kyc1.sol\":6411:6416  array */\n      dup4\n        /* \"MainKYC/kyc1.sol\":6411:6422  array.pop() */\n      dup1\n      sload\n      dup1\n      tag_250\n      jumpi\n      tag_251\n      tag_252\n      jump\t// in\n    tag_251:\n    tag_250:\n      0x01\n      swap1\n      sub\n      dup2\n      dup2\n      swap1\n      0x00\n      mstore\n      keccak256(0x00, 0x20)\n      add\n      exp(0x0100, 0x00)\n      dup2\n      sload\n      swap1\n      0xffffffffffffffffffffffffffffffffffffffff\n      mul\n      not\n      and\n      swap1\n      sstore\n      swap1\n      sstore\n        /* \"MainKYC/kyc1.sol\":6448:6452  true */\n      0x01\n        /* \"MainKYC/kyc1.sol\":6441:6452  return true */\n      swap2\n      pop\n      pop\n      jump(tag_233)\n        /* \"MainKYC/kyc1.sol\":6317:6468  if (array[i] == user) {... */\n    tag_241:\n        /* \"MainKYC/kyc1.sol\":6297:6300  i++ */\n      dup1\n      dup1\n      0x01\n      add\n      swap2\n      pop\n      pop\n        /* \"MainKYC/kyc1.sol\":6262:6479  for (uint i = 0; i < array.length; i++) {... */\n      jump(tag_234)\n    tag_235:\n      pop\n        /* \"MainKYC/kyc1.sol\":6496:6501  false */\n      0x00\n        /* \"MainKYC/kyc1.sol\":6489:6501  return false */\n      swap1\n      pop\n        /* \"MainKYC/kyc1.sol\":6162:6509  function _removeFromArray(address[] storage array, address user) internal returns (bool) {... */\n    tag_233:\n      swap3\n      swap2\n      pop\n      pop\n      jump\t// out\n        /* \"#utility.yul\":88:205   */\n    tag_255:\n        /* \"#utility.yul\":197:198   */\n      0x00\n        /* \"#utility.yul\":194:195   */\n      dup1\n        /* \"#utility.yul\":187:199   */\n      revert\n        /* \"#utility.yul\":211:328   */\n    tag_256:\n        /* \"#utility.yul\":320:321   */\n      0x00\n        /* \"#utility.yul\":317:318   */\n      dup1\n        /* \"#utility.yul\":310:322   */\n      revert\n        /* \"#utility.yul\":334:460   */\n    tag_257:\n        /* \"#utility.yul\":371:378   */\n      0x00\n        /* \"#utility.yul\":411:453   */\n      0xffffffffffffffffffffffffffffffffffffffff\n        /* \"#utility.yul\":404:409   */\n      dup3\n        /* \"#utility.yul\":400:454   */\n      and\n        /* \"#utility.yul\":389:454   */\n      swap1\n      pop\n        /* \"#utility.yul\":334:460   */\n      swap2\n      swap1\n      pop\n      jump\t// out\n        /* \"#utility.yul\":466:562   */\n    tag_258:\n        /* \"#utility.yul\":503:510   */\n      0x00\n        /* \"#utility.yul\":532:556   */\n      tag_336\n        /* \"#utility.yul\":550:555   */\n      dup3\n        /* \"#utility.yul\":532:556   */\n      tag_257\n      jump\t// in\n    tag_336:\n        /* \"#utility.yul\":521:556   */\n      swap1\n      pop\n        /* \"#utility.yul\":466:562   */\n      swap2\n      swap1\n      pop\n      jump\t// out\n        /* \"#utility.yul\":568:690   */\n    tag_259:\n        /* \"#utility.yul\":641:665   */\n      tag_338\n        /* \"#utility.yul\":659:664   */\n      dup2\n        /* \"#utility.yul\":641:665   */\n      tag_258\n      jump\t// in\n    tag_338:\n        /* \"#utility.yul\":634:639   */\n      dup2\n        /* \"#utility.yul\":631:666   */\n      eq\n        /* \"#utility.yul\":621:684   */\n      tag_339\n      jumpi\n        /* \"#utility.yul\":680:681   */\n      0x00\n        /* \"#utility.yul\":677:678   */\n      dup1\n        /* \"#utility.yul\":670:682   */\n      revert\n        /* \"#utility.yul\":621:684   */\n    tag_339:\n        /* \"#utility.yul\":568:690   */\n      pop\n      jump\t// out\n        /* \"#utility.yul\":696:835   */\n    tag_260:\n        /* \"#utility.yul\":742:747   */\n      0x00\n        /* \"#utility.yul\":780:786   */\n      dup2\n        /* \"#utility.yul\":767:787   */\n      calldataload\n        /* \"#utility.yul\":758:787   */\n      swap1\n      pop\n        /* \"#utility.yul\":796:829   */\n      tag_341\n        /* \"#utility.yul\":823:828   */\n      dup2\n        /* \"#utility.yul\":796:829   */\n      tag_259\n      jump\t// in\n    tag_341:\n        /* \"#utility.yul\":696:835   */\n      swap3\n      swap2\n      pop\n      pop\n      jump\t// out\n        /* \"#utility.yul\":841:1170   */\n    tag_26:\n        /* \"#utility.yul\":900:906   */\n      0x00\n        /* \"#utility.yul\":949:951   */\n      0x20\n        /* \"#utility.yul\":937:946   */\n      dup3\n        /* \"#utility.yul\":928:935   */\n      dup5\n        /* \"#utility.yul\":924:947   */\n      sub\n        /* \"#utility.yul\":920:952   */\n      slt\n        /* \"#utility.yul\":917:1036   */\n      iszero\n      tag_343\n      jumpi\n        /* \"#utility.yul\":955:1034   */\n      tag_344\n      tag_255\n      jump\t// in\n    tag_344:\n        /* \"#utility.yul\":917:1036   */\n    tag_343:\n        /* \"#utility.yul\":1075:1076   */\n      0x00\n        /* \"#utility.yul\":1100:1153   */\n      tag_345\n        /* \"#utility.yul\":1145:1152   */\n      dup5\n        /* \"#utility.yul\":1136:1142   */\n      dup3\n        /* \"#utility.yul\":1125:1134   */\n      dup6\n        /* \"#utility.yul\":1121:1143   */\n      add\n        /* \"#utility.yul\":1100:1153   */\n      tag_260\n      jump\t// in\n    tag_345:\n        /* \"#utility.yul\":1090:1153   */\n      swap2\n      pop\n        /* \"#utility.yul\":1046:1163   */\n      pop\n        /* \"#utility.yul\":841:1170   */\n      swap3\n      swap2\n      pop\n      pop\n      jump\t// out\n        /* \"#utility.yul\":1176:1290   */\n    tag_261:\n        /* \"#utility.yul\":1243:1249   */\n      0x00\n        /* \"#utility.yul\":1277:1282   */\n      dup2\n        /* \"#utility.yul\":1271:1283   */\n      mload\n        /* \"#utility.yul\":1261:1283   */\n      swap1\n      pop\n        /* \"#utility.yul\":1176:1290   */\n      swap2\n      swap1\n      pop\n      jump\t// out\n        /* \"#utility.yul\":1296:1480   */\n    tag_262:\n        /* \"#utility.yul\":1395:1406   */\n      0x00\n        /* \"#utility.yul\":1429:1435   */\n      dup3\n        /* \"#utility.yul\":1424:1427   */\n      dup3\n        /* \"#utility.yul\":1417:1436   */\n      mstore\n        /* \"#utility.yul\":1469:1473   */\n      0x20\n        /* \"#utility.yul\":1464:1467   */\n      dup3\n        /* \"#utility.yul\":1460:1474   */\n      add\n        /* \"#utility.yul\":1445:1474   */\n      swap1\n      pop\n        /* \"#utility.yul\":1296:1480   */\n      swap3\n      swap2\n      pop\n      pop\n      jump\t// out\n        /* \"#utility.yul\":1486:1618   */\n    tag_263:\n        /* \"#utility.yul\":1553:1557   */\n      0x00\n        /* \"#utility.yul\":1576:1579   */\n      dup2\n        /* \"#utility.yul\":1568:1579   */\n      swap1\n      pop\n        /* \"#utility.yul\":1606:1610   */\n      0x20\n        /* \"#utility.yul\":1601:1604   */\n      dup3\n        /* \"#utility.yul\":1597:1611   */\n      add\n        /* \"#utility.yul\":1589:1611   */\n      swap1\n      pop\n        /* \"#utility.yul\":1486:1618   */\n      swap2\n      swap1\n      pop\n      jump\t// out\n        /* \"#utility.yul\":1624:1732   */\n    tag_264:\n        /* \"#utility.yul\":1701:1725   */\n      tag_350\n        /* \"#utility.yul\":1719:1724   */\n      dup2\n        /* \"#utility.yul\":1701:1725   */\n      tag_258\n      jump\t// in\n    tag_350:\n        /* \"#utility.yul\":1696:1699   */\n      dup3\n        /* \"#utility.yul\":1689:1726   */\n      mstore\n        /* \"#utility.yul\":1624:1732   */\n      pop\n      pop\n      jump\t// out\n        /* \"#utility.yul\":1738:1917   */\n    tag_265:\n        /* \"#utility.yul\":1807:1817   */\n      0x00\n        /* \"#utility.yul\":1828:1874   */\n      tag_352\n        /* \"#utility.yul\":1870:1873   */\n      dup4\n        /* \"#utility.yul\":1862:1868   */\n      dup4\n        /* \"#utility.yul\":1828:1874   */\n      tag_264\n      jump\t// in\n    tag_352:\n        /* \"#utility.yul\":1906:1910   */\n      0x20\n        /* \"#utility.yul\":1901:1904   */\n      dup4\n        /* \"#utility.yul\":1897:1911   */\n      add\n        /* \"#utility.yul\":1883:1911   */\n      swap1\n      pop\n        /* \"#utility.yul\":1738:1917   */\n      swap3\n      swap2\n      pop\n      pop\n      jump\t// out\n        /* \"#utility.yul\":1923:2036   */\n    tag_266:\n        /* \"#utility.yul\":1993:1997   */\n      0x00\n        /* \"#utility.yul\":2025:2029   */\n      0x20\n        /* \"#utility.yul\":2020:2023   */\n      dup3\n        /* \"#utility.yul\":2016:2030   */\n      add\n        /* \"#utility.yul\":2008:2030   */\n      swap1\n      pop\n        /* \"#utility.yul\":1923:2036   */\n      swap2\n      swap1\n      pop\n      jump\t// out\n        /* \"#utility.yul\":2072:2804   */\n    tag_267:\n        /* \"#utility.yul\":2191:2194   */\n      0x00\n        /* \"#utility.yul\":2220:2274   */\n      tag_355\n        /* \"#utility.yul\":2268:2273   */\n      dup3\n        /* \"#utility.yul\":2220:2274   */\n      tag_261\n      jump\t// in\n    tag_355:\n        /* \"#utility.yul\":2290:2376   */\n      tag_356\n        /* \"#utility.yul\":2369:2375   */\n      dup2\n        /* \"#utility.yul\":2364:2367   */\n      dup6\n        /* \"#utility.yul\":2290:2376   */\n      tag_262\n      jump\t// in\n    tag_356:\n        /* \"#utility.yul\":2283:2376   */\n      swap4\n      pop\n        /* \"#utility.yul\":2400:2456   */\n      tag_357\n        /* \"#utility.yul\":2450:2455   */\n      dup4\n        /* \"#utility.yul\":2400:2456   */\n      tag_263\n      jump\t// in\n    tag_357:\n        /* \"#utility.yul\":2479:2486   */\n      dup1\n        /* \"#utility.yul\":2510:2511   */\n      0x00\n        /* \"#utility.yul\":2495:2779   */\n    tag_358:\n        /* \"#utility.yul\":2520:2526   */\n      dup4\n        /* \"#utility.yul\":2517:2518   */\n      dup2\n        /* \"#utility.yul\":2514:2527   */\n      lt\n        /* \"#utility.yul\":2495:2779   */\n      iszero\n      tag_360\n      jumpi\n        /* \"#utility.yul\":2596:2602   */\n      dup2\n        /* \"#utility.yul\":2590:2603   */\n      mload\n        /* \"#utility.yul\":2623:2686   */\n      tag_361\n        /* \"#utility.yul\":2682:2685   */\n      dup9\n        /* \"#utility.yul\":2667:2680   */\n      dup3\n        /* \"#utility.yul\":2623:2686   */\n      tag_265\n      jump\t// in\n    tag_361:\n        /* \"#utility.yul\":2616:2686   */\n      swap8\n      pop\n        /* \"#utility.yul\":2709:2769   */\n      tag_362\n        /* \"#utility.yul\":2762:2768   */\n      dup4\n        /* \"#utility.yul\":2709:2769   */\n      tag_266\n      jump\t// in\n    tag_362:\n        /* \"#utility.yul\":2699:2769   */\n      swap3\n      pop\n        /* \"#utility.yul\":2555:2779   */\n      pop\n        /* \"#utility.yul\":2542:2543   */\n      0x01\n        /* \"#utility.yul\":2539:2540   */\n      dup2\n        /* \"#utility.yul\":2535:2544   */\n      add\n        /* \"#utility.yul\":2530:2544   */\n      swap1\n      pop\n        /* \"#utility.yul\":2495:2779   */\n      jump(tag_358)\n    tag_360:\n        /* \"#utility.yul\":2499:2513   */\n      pop\n        /* \"#utility.yul\":2795:2798   */\n      dup6\n        /* \"#utility.yul\":2788:2798   */\n      swap4\n      pop\n        /* \"#utility.yul\":2196:2804   */\n      pop\n      pop\n      pop\n        /* \"#utility.yul\":2072:2804   */\n      swap3\n      swap2\n      pop\n      pop\n      jump\t// out\n        /* \"#utility.yul\":2810:3183   */\n    tag_29:\n        /* \"#utility.yul\":2953:2957   */\n      0x00\n        /* \"#utility.yul\":2991:2993   */\n      0x20\n        /* \"#utility.yul\":2980:2989   */\n      dup3\n        /* \"#utility.yul\":2976:2994   */\n      add\n        /* \"#utility.yul\":2968:2994   */\n      swap1\n      pop\n        /* \"#utility.yul\":3040:3049   */\n      dup2\n        /* \"#utility.yul\":3034:3038   */\n      dup2\n        /* \"#utility.yul\":3030:3050   */\n      sub\n        /* \"#utility.yul\":3026:3027   */\n      0x00\n        /* \"#utility.yul\":3015:3024   */\n      dup4\n        /* \"#utility.yul\":3011:3028   */\n      add\n        /* \"#utility.yul\":3004:3051   */\n      mstore\n        /* \"#utility.yul\":3068:3176   */\n      tag_364\n        /* \"#utility.yul\":3171:3175   */\n      dup2\n        /* \"#utility.yul\":3162:3168   */\n      dup5\n        /* \"#utility.yul\":3068:3176   */\n      tag_267\n      jump\t// in\n    tag_364:\n        /* \"#utility.yul\":3060:3176   */\n      swap1\n      pop\n        /* \"#utility.yul\":2810:3183   */\n      swap3\n      swap2\n      pop\n      pop\n      jump\t// out\n        /* \"#utility.yul\":3189:3266   */\n    tag_268:\n        /* \"#utility.yul\":3226:3233   */\n      0x00\n        /* \"#utility.yul\":3255:3260   */\n      dup2\n        /* \"#utility.yul\":3244:3260   */\n      swap1\n      pop\n        /* \"#utility.yul\":3189:3266   */\n      swap2\n      swap1\n      pop\n      jump\t// out\n        /* \"#utility.yul\":3272:3394   */\n    tag_269:\n        /* \"#utility.yul\":3345:3369   */\n      tag_367\n        /* \"#utility.yul\":3363:3368   */\n      dup2\n        /* \"#utility.yul\":3345:3369   */\n      tag_268\n      jump\t// in\n    tag_367:\n        /* \"#utility.yul\":3338:3343   */\n      dup2\n        /* \"#utility.yul\":3335:3370   */\n      eq\n        /* \"#utility.yul\":3325:3388   */\n      tag_368\n      jumpi\n        /* \"#utility.yul\":3384:3385   */\n      0x00\n        /* \"#utility.yul\":3381:3382   */\n      dup1\n        /* \"#utility.yul\":3374:3386   */\n      revert\n        /* \"#utility.yul\":3325:3388   */\n    tag_368:\n        /* \"#utility.yul\":3272:3394   */\n      pop\n      jump\t// out\n        /* \"#utility.yul\":3400:3539   */\n    tag_270:\n        /* \"#utility.yul\":3446:3451   */\n      0x00\n        /* \"#utility.yul\":3484:3490   */\n      dup2\n        /* \"#utility.yul\":3471:3491   */\n      calldataload\n        /* \"#utility.yul\":3462:3491   */\n      swap1\n      pop\n        /* \"#utility.yul\":3500:3533   */\n      tag_370\n        /* \"#utility.yul\":3527:3532   */\n      dup2\n        /* \"#utility.yul\":3500:3533   */\n      tag_269\n      jump\t// in\n    tag_370:\n        /* \"#utility.yul\":3400:3539   */\n      swap3\n      swap2\n      pop\n      pop\n      jump\t// out\n        /* \"#utility.yul\":3545:4019   */\n    tag_32:\n        /* \"#utility.yul\":3613:3619   */\n      0x00\n        /* \"#utility.yul\":3621:3627   */\n      dup1\n        /* \"#utility.yul\":3670:3672   */\n      0x40\n        /* \"#utility.yul\":3658:3667   */\n      dup4\n        /* \"#utility.yul\":3649:3656   */\n      dup6\n        /* \"#utility.yul\":3645:3668   */\n      sub\n        /* \"#utility.yul\":3641:3673   */\n      slt\n        /* \"#utility.yul\":3638:3757   */\n      iszero\n      tag_372\n      jumpi\n        /* \"#utility.yul\":3676:3755   */\n      tag_373\n      tag_255\n      jump\t// in\n    tag_373:\n        /* \"#utility.yul\":3638:3757   */\n    tag_372:\n        /* \"#utility.yul\":3796:3797   */\n      0x00\n        /* \"#utility.yul\":3821:3874   */\n      tag_374\n        /* \"#utility.yul\":3866:3873   */\n      dup6\n        /* \"#utility.yul\":3857:3863   */\n      dup3\n        /* \"#utility.yul\":3846:3855   */\n      dup7\n        /* \"#utility.yul\":3842:3864   */\n      add\n        /* \"#utility.yul\":3821:3874   */\n      tag_260\n      jump\t// in\n    tag_374:\n        /* \"#utility.yul\":3811:3874   */\n      swap3\n      pop\n        /* \"#utility.yul\":3767:3884   */\n      pop\n        /* \"#utility.yul\":3923:3925   */\n      0x20\n        /* \"#utility.yul\":3949:4002   */\n      tag_375\n        /* \"#utility.yul\":3994:4001   */\n      dup6\n        /* \"#utility.yul\":3985:3991   */\n      dup3\n        /* \"#utility.yul\":3974:3983   */\n      dup7\n        /* \"#utility.yul\":3970:3992   */\n      add\n        /* \"#utility.yul\":3949:4002   */\n      tag_270\n      jump\t// in\n    tag_375:\n        /* \"#utility.yul\":3939:4002   */\n      swap2\n      pop\n        /* \"#utility.yul\":3894:4012   */\n      pop\n        /* \"#utility.yul\":3545:4019   */\n      swap3\n      pop\n      swap3\n      swap1\n      pop\n      jump\t// out\n        /* \"#utility.yul\":4025:4143   */\n    tag_271:\n        /* \"#utility.yul\":4112:4136   */\n      tag_377\n        /* \"#utility.yul\":4130:4135   */\n      dup2\n        /* \"#utility.yul\":4112:4136   */\n      tag_258\n      jump\t// in\n    tag_377:\n        /* \"#utility.yul\":4107:4110   */\n      dup3\n        /* \"#utility.yul\":4100:4137   */\n      mstore\n        /* \"#utility.yul\":4025:4143   */\n      pop\n      pop\n      jump\t// out\n        /* \"#utility.yul\":4149:4371   */\n    tag_35:\n        /* \"#utility.yul\":4242:4246   */\n      0x00\n        /* \"#utility.yul\":4280:4282   */\n      0x20\n        /* \"#utility.yul\":4269:4278   */\n      dup3\n        /* \"#utility.yul\":4265:4283   */\n      add\n        /* \"#utility.yul\":4257:4283   */\n      swap1\n      pop\n        /* \"#utility.yul\":4293:4364   */\n      tag_379\n        /* \"#utility.yul\":4361:4362   */\n      0x00\n        /* \"#utility.yul\":4350:4359   */\n      dup4\n        /* \"#utility.yul\":4346:4363   */\n      add\n        /* \"#utility.yul\":4337:4343   */\n      dup5\n        /* \"#utility.yul\":4293:4364   */\n      tag_271\n      jump\t// in\n    tag_379:\n        /* \"#utility.yul\":4149:4371   */\n      swap3\n      swap2\n      pop\n      pop\n      jump\t// out\n        /* \"#utility.yul\":4377:4476   */\n    tag_272:\n        /* \"#utility.yul\":4429:4435   */\n      0x00\n        /* \"#utility.yul\":4463:4468   */\n      dup2\n        /* \"#utility.yul\":4457:4469   */\n      mload\n        /* \"#utility.yul\":4447:4469   */\n      swap1\n      pop\n        /* \"#utility.yul\":4377:4476   */\n      swap2\n      swap1\n      pop\n      jump\t// out\n        /* \"#utility.yul\":4482:4651   */\n    tag_273:\n        /* \"#utility.yul\":4566:4577   */\n      0x00\n        /* \"#utility.yul\":4600:4606   */\n      dup3\n        /* \"#utility.yul\":4595:4598   */\n      dup3\n        /* \"#utility.yul\":4588:4607   */\n      mstore\n        /* \"#utility.yul\":4640:4644   */\n      0x20\n        /* \"#utility.yul\":4635:4638   */\n      dup3\n        /* \"#utility.yul\":4631:4645   */\n      add\n        /* \"#utility.yul\":4616:4645   */\n      swap1\n      pop\n        /* \"#utility.yul\":4482:4651   */\n      swap3\n      swap2\n      pop\n      pop\n      jump\t// out\n        /* \"#utility.yul\":4657:4796   */\n    tag_274:\n        /* \"#utility.yul\":4746:4752   */\n      dup3\n        /* \"#utility.yul\":4741:4744   */\n      dup2\n        /* \"#utility.yul\":4736:4739   */\n      dup4\n        /* \"#utility.yul\":4730:4753   */\n      mcopy\n        /* \"#utility.yul\":4787:4788   */\n      0x00\n        /* \"#utility.yul\":4778:4784   */\n      dup4\n        /* \"#utility.yul\":4773:4776   */\n      dup4\n        /* \"#utility.yul\":4769:4785   */\n      add\n        /* \"#utility.yul\":4762:4789   */\n      mstore\n        /* \"#utility.yul\":4657:4796   */\n      pop\n      pop\n      pop\n      jump\t// out\n        /* \"#utility.yul\":4802:4904   */\n    tag_275:\n        /* \"#utility.yul\":4843:4849   */\n      0x00\n        /* \"#utility.yul\":4894:4896   */\n      0x1f\n        /* \"#utility.yul\":4890:4897   */\n      not\n        /* \"#utility.yul\":4885:4887   */\n      0x1f\n        /* \"#utility.yul\":4878:4883   */\n      dup4\n        /* \"#utility.yul\":4874:4888   */\n      add\n        /* \"#utility.yul\":4870:4898   */\n      and\n        /* \"#utility.yul\":4860:4898   */\n      swap1\n      pop\n        /* \"#utility.yul\":4802:4904   */\n      swap2\n      swap1\n      pop\n      jump\t// out\n        /* \"#utility.yul\":4910:5287   */\n    tag_276:\n        /* \"#utility.yul\":4998:5001   */\n      0x00\n        /* \"#utility.yul\":5026:5065   */\n      tag_385\n        /* \"#utility.yul\":5059:5064   */\n      dup3\n        /* \"#utility.yul\":5026:5065   */\n      tag_272\n      jump\t// in\n    tag_385:\n        /* \"#utility.yul\":5081:5152   */\n      tag_386\n        /* \"#utility.yul\":5145:5151   */\n      dup2\n        /* \"#utility.yul\":5140:5143   */\n      dup6\n        /* \"#utility.yul\":5081:5152   */\n      tag_273\n      jump\t// in\n    tag_386:\n        /* \"#utility.yul\":5074:5152   */\n      swap4\n      pop\n        /* \"#utility.yul\":5161:5226   */\n      tag_387\n        /* \"#utility.yul\":5219:5225   */\n      dup2\n        /* \"#utility.yul\":5214:5217   */\n      dup6\n        /* \"#utility.yul\":5207:5211   */\n      0x20\n        /* \"#utility.yul\":5200:5205   */\n      dup7\n        /* \"#utility.yul\":5196:5212   */\n      add\n        /* \"#utility.yul\":5161:5226   */\n      tag_274\n      jump\t// in\n    tag_387:\n        /* \"#utility.yul\":5251:5280   */\n      tag_388\n        /* \"#utility.yul\":5273:5279   */\n      dup2\n        /* \"#utility.yul\":5251:5280   */\n      tag_275\n      jump\t// in\n    tag_388:\n        /* \"#utility.yul\":5246:5249   */\n      dup5\n        /* \"#utility.yul\":5242:5281   */\n      add\n        /* \"#utility.yul\":5235:5281   */\n      swap2\n      pop\n        /* \"#utility.yul\":5002:5287   */\n      pop\n        /* \"#utility.yul\":4910:5287   */\n      swap3\n      swap2\n      pop\n      pop\n      jump\t// out\n        /* \"#utility.yul\":5293:5473   */\n    tag_131:\n        /* \"#utility.yul\":5341:5418   */\n      0x4e487b7100000000000000000000000000000000000000000000000000000000\n        /* \"#utility.yul\":5338:5339   */\n      0x00\n        /* \"#utility.yul\":5331:5419   */\n      mstore\n        /* \"#utility.yul\":5438:5442   */\n      0x21\n        /* \"#utility.yul\":5435:5436   */\n      0x04\n        /* \"#utility.yul\":5428:5443   */\n      mstore\n        /* \"#utility.yul\":5462:5466   */\n      0x24\n        /* \"#utility.yul\":5459:5460   */\n      0x00\n        /* \"#utility.yul\":5452:5467   */\n      revert\n        /* \"#utility.yul\":5479:5595   */\n    tag_277:\n        /* \"#utility.yul\":5563:5564   */\n      0x03\n        /* \"#utility.yul\":5556:5561   */\n      dup2\n        /* \"#utility.yul\":5553:5565   */\n      lt\n        /* \"#utility.yul\":5543:5589   */\n      tag_391\n      jumpi\n        /* \"#utility.yul\":5569:5587   */\n      tag_392\n      tag_131\n      jump\t// in\n    tag_392:\n        /* \"#utility.yul\":5543:5589   */\n    tag_391:\n        /* \"#utility.yul\":5479:5595   */\n      pop\n      jump\t// out\n        /* \"#utility.yul\":5601:5734   */\n    tag_278:\n        /* \"#utility.yul\":5649:5656   */\n      0x00\n        /* \"#utility.yul\":5678:5683   */\n      dup2\n        /* \"#utility.yul\":5667:5683   */\n      swap1\n      pop\n        /* \"#utility.yul\":5684:5728   */\n      tag_394\n        /* \"#utility.yul\":5722:5727   */\n      dup3\n        /* \"#utility.yul\":5684:5728   */\n      tag_277\n      jump\t// in\n    tag_394:\n        /* \"#utility.yul\":5601:5734   */\n      swap2\n      swap1\n      pop\n      jump\t// out\n        /* \"#utility.yul\":5740:5873   */\n    tag_279:\n        /* \"#utility.yul\":5799:5808   */\n      0x00\n        /* \"#utility.yul\":5832:5867   */\n      tag_396\n        /* \"#utility.yul\":5861:5866   */\n      dup3\n        /* \"#utility.yul\":5832:5867   */\n      tag_278\n      jump\t// in\n    tag_396:\n        /* \"#utility.yul\":5819:5867   */\n      swap1\n      pop\n        /* \"#utility.yul\":5740:5873   */\n      swap2\n      swap1\n      pop\n      jump\t// out\n        /* \"#utility.yul\":5879:6028   */\n    tag_280:\n        /* \"#utility.yul\":5975:6021   */\n      tag_398\n        /* \"#utility.yul\":6015:6020   */\n      dup2\n        /* \"#utility.yul\":5975:6021   */\n      tag_279\n      jump\t// in\n    tag_398:\n        /* \"#utility.yul\":5970:5973   */\n      dup3\n        /* \"#utility.yul\":5963:6022   */\n      mstore\n        /* \"#utility.yul\":5879:6028   */\n      pop\n      pop\n      jump\t// out\n        /* \"#utility.yul\":6034:6787   */\n    tag_51:\n        /* \"#utility.yul\":6260:6264   */\n      0x00\n        /* \"#utility.yul\":6298:6301   */\n      0x80\n        /* \"#utility.yul\":6287:6296   */\n      dup3\n        /* \"#utility.yul\":6283:6302   */\n      add\n        /* \"#utility.yul\":6275:6302   */\n      swap1\n      pop\n        /* \"#utility.yul\":6348:6357   */\n      dup2\n        /* \"#utility.yul\":6342:6346   */\n      dup2\n        /* \"#utility.yul\":6338:6358   */\n      sub\n        /* \"#utility.yul\":6334:6335   */\n      0x00\n        /* \"#utility.yul\":6323:6332   */\n      dup4\n        /* \"#utility.yul\":6319:6336   */\n      add\n        /* \"#utility.yul\":6312:6359   */\n      mstore\n        /* \"#utility.yul\":6376:6454   */\n      tag_400\n        /* \"#utility.yul\":6449:6453   */\n      dup2\n        /* \"#utility.yul\":6440:6446   */\n      dup8\n        /* \"#utility.yul\":6376:6454   */\n      tag_276\n      jump\t// in\n    tag_400:\n        /* \"#utility.yul\":6368:6454   */\n      swap1\n      pop\n        /* \"#utility.yul\":6501:6510   */\n      dup2\n        /* \"#utility.yul\":6495:6499   */\n      dup2\n        /* \"#utility.yul\":6491:6511   */\n      sub\n        /* \"#utility.yul\":6486:6488   */\n      0x20\n        /* \"#utility.yul\":6475:6484   */\n      dup4\n        /* \"#utility.yul\":6471:6489   */\n      add\n        /* \"#utility.yul\":6464:6512   */\n      mstore\n        /* \"#utility.yul\":6529:6607   */\n      tag_401\n        /* \"#utility.yul\":6602:6606   */\n      dup2\n        /* \"#utility.yul\":6593:6599   */\n      dup7\n        /* \"#utility.yul\":6529:6607   */\n      tag_276\n      jump\t// in\n    tag_401:\n        /* \"#utility.yul\":6521:6607   */\n      swap1\n      pop\n        /* \"#utility.yul\":6617:6689   */\n      tag_402\n        /* \"#utility.yul\":6685:6687   */\n      0x40\n        /* \"#utility.yul\":6674:6683   */\n      dup4\n        /* \"#utility.yul\":6670:6688   */\n      add\n        /* \"#utility.yul\":6661:6667   */\n      dup6\n        /* \"#utility.yul\":6617:6689   */\n      tag_271\n      jump\t// in\n    tag_402:\n        /* \"#utility.yul\":6699:6780   */\n      tag_403\n        /* \"#utility.yul\":6776:6778   */\n      0x60\n        /* \"#utility.yul\":6765:6774   */\n      dup4\n        /* \"#utility.yul\":6761:6779   */\n      add\n        /* \"#utility.yul\":6752:6758   */\n      dup5\n        /* \"#utility.yul\":6699:6780   */\n      tag_280\n      jump\t// in\n    tag_403:\n        /* \"#utility.yul\":6034:6787   */\n      swap6\n      swap5\n      pop\n      pop\n      pop\n      pop\n      pop\n      jump\t// out\n        /* \"#utility.yul\":6793:6883   */\n    tag_281:\n        /* \"#utility.yul\":6827:6834   */\n      0x00\n        /* \"#utility.yul\":6870:6875   */\n      dup2\n        /* \"#utility.yul\":6863:6876   */\n      iszero\n        /* \"#utility.yul\":6856:6877   */\n      iszero\n        /* \"#utility.yul\":6845:6877   */\n      swap1\n      pop\n        /* \"#utility.yul\":6793:6883   */\n      swap2\n      swap1\n      pop\n      jump\t// out\n        /* \"#utility.yul\":6889:6998   */\n    tag_282:\n        /* \"#utility.yul\":6970:6991   */\n      tag_406\n        /* \"#utility.yul\":6985:6990   */\n      dup2\n        /* \"#utility.yul\":6970:6991   */\n      tag_281\n      jump\t// in\n    tag_406:\n        /* \"#utility.yul\":6965:6968   */\n      dup3\n        /* \"#utility.yul\":6958:6992   */\n      mstore\n        /* \"#utility.yul\":6889:6998   */\n      pop\n      pop\n      jump\t// out\n        /* \"#utility.yul\":7004:7214   */\n    tag_62:\n        /* \"#utility.yul\":7091:7095   */\n      0x00\n        /* \"#utility.yul\":7129:7131   */\n      0x20\n        /* \"#utility.yul\":7118:7127   */\n      dup3\n        /* \"#utility.yul\":7114:7132   */\n      add\n        /* \"#utility.yul\":7106:7132   */\n      swap1\n      pop\n        /* \"#utility.yul\":7142:7207   */\n      tag_408\n        /* \"#utility.yul\":7204:7205   */\n      0x00\n        /* \"#utility.yul\":7193:7202   */\n      dup4\n        /* \"#utility.yul\":7189:7206   */\n      add\n        /* \"#utility.yul\":7180:7186   */\n      dup5\n        /* \"#utility.yul\":7142:7207   */\n      tag_282\n      jump\t// in\n    tag_408:\n        /* \"#utility.yul\":7004:7214   */\n      swap3\n      swap2\n      pop\n      pop\n      jump\t// out\n        /* \"#utility.yul\":7220:7338   */\n    tag_283:\n        /* \"#utility.yul\":7307:7331   */\n      tag_410\n        /* \"#utility.yul\":7325:7330   */\n      dup2\n        /* \"#utility.yul\":7307:7331   */\n      tag_268\n      jump\t// in\n    tag_410:\n        /* \"#utility.yul\":7302:7305   */\n      dup3\n        /* \"#utility.yul\":7295:7332   */\n      mstore\n        /* \"#utility.yul\":7220:7338   */\n      pop\n      pop\n      jump\t// out\n        /* \"#utility.yul\":7344:8307   */\n    tag_77:\n        /* \"#utility.yul\":7620:7624   */\n      0x00\n        /* \"#utility.yul\":7658:7661   */\n      0xc0\n        /* \"#utility.yul\":7647:7656   */\n      dup3\n        /* \"#utility.yul\":7643:7662   */\n      add\n        /* \"#utility.yul\":7635:7662   */\n      swap1\n      pop\n        /* \"#utility.yul\":7708:7717   */\n      dup2\n        /* \"#utility.yul\":7702:7706   */\n      dup2\n        /* \"#utility.yul\":7698:7718   */\n      sub\n        /* \"#utility.yul\":7694:7695   */\n      0x00\n        /* \"#utility.yul\":7683:7692   */\n      dup4\n        /* \"#utility.yul\":7679:7696   */\n      add\n        /* \"#utility.yul\":7672:7719   */\n      mstore\n        /* \"#utility.yul\":7736:7814   */\n      tag_412\n        /* \"#utility.yul\":7809:7813   */\n      dup2\n        /* \"#utility.yul\":7800:7806   */\n      dup10\n        /* \"#utility.yul\":7736:7814   */\n      tag_276\n      jump\t// in\n    tag_412:\n        /* \"#utility.yul\":7728:7814   */\n      swap1\n      pop\n        /* \"#utility.yul\":7861:7870   */\n      dup2\n        /* \"#utility.yul\":7855:7859   */\n      dup2\n        /* \"#utility.yul\":7851:7871   */\n      sub\n        /* \"#utility.yul\":7846:7848   */\n      0x20\n        /* \"#utility.yul\":7835:7844   */\n      dup4\n        /* \"#utility.yul\":7831:7849   */\n      add\n        /* \"#utility.yul\":7824:7872   */\n      mstore\n        /* \"#utility.yul\":7889:7967   */\n      tag_413\n        /* \"#utility.yul\":7962:7966   */\n      dup2\n        /* \"#utility.yul\":7953:7959   */\n      dup9\n        /* \"#utility.yul\":7889:7967   */\n      tag_276\n      jump\t// in\n    tag_413:\n        /* \"#utility.yul\":7881:7967   */\n      swap1\n      pop\n        /* \"#utility.yul\":7977:8049   */\n      tag_414\n        /* \"#utility.yul\":8045:8047   */\n      0x40\n        /* \"#utility.yul\":8034:8043   */\n      dup4\n        /* \"#utility.yul\":8030:8048   */\n      add\n        /* \"#utility.yul\":8021:8027   */\n      dup8\n        /* \"#utility.yul\":7977:8049   */\n      tag_271\n      jump\t// in\n    tag_414:\n        /* \"#utility.yul\":8059:8125   */\n      tag_415\n        /* \"#utility.yul\":8121:8123   */\n      0x60\n        /* \"#utility.yul\":8110:8119   */\n      dup4\n        /* \"#utility.yul\":8106:8124   */\n      add\n        /* \"#utility.yul\":8097:8103   */\n      dup7\n        /* \"#utility.yul\":8059:8125   */\n      tag_282\n      jump\t// in\n    tag_415:\n        /* \"#utility.yul\":8135:8217   */\n      tag_416\n        /* \"#utility.yul\":8212:8215   */\n      0x80\n        /* \"#utility.yul\":8201:8210   */\n      dup4\n        /* \"#utility.yul\":8197:8216   */\n      add\n        /* \"#utility.yul\":8188:8194   */\n      dup6\n        /* \"#utility.yul\":8135:8217   */\n      tag_280\n      jump\t// in\n    tag_416:\n        /* \"#utility.yul\":8227:8300   */\n      tag_417\n        /* \"#utility.yul\":8295:8298   */\n      0xa0\n        /* \"#utility.yul\":8284:8293   */\n      dup4\n        /* \"#utility.yul\":8280:8299   */\n      add\n        /* \"#utility.yul\":8271:8277   */\n      dup5\n        /* \"#utility.yul\":8227:8300   */\n      tag_283\n      jump\t// in\n    tag_417:\n        /* \"#utility.yul\":7344:8307   */\n      swap8\n      swap7\n      pop\n      pop\n      pop\n      pop\n      pop\n      pop\n      pop\n      jump\t// out\n        /* \"#utility.yul\":8313:8787   */\n    tag_80:\n        /* \"#utility.yul\":8381:8387   */\n      0x00\n        /* \"#utility.yul\":8389:8395   */\n      dup1\n        /* \"#utility.yul\":8438:8440   */\n      0x40\n        /* \"#utility.yul\":8426:8435   */\n      dup4\n        /* \"#utility.yul\":8417:8424   */\n      dup6\n        /* \"#utility.yul\":8413:8436   */\n      sub\n        /* \"#utility.yul\":8409:8441   */\n      slt\n        /* \"#utility.yul\":8406:8525   */\n      iszero\n      tag_419\n      jumpi\n        /* \"#utility.yul\":8444:8523   */\n      tag_420\n      tag_255\n      jump\t// in\n    tag_420:\n        /* \"#utility.yul\":8406:8525   */\n    tag_419:\n        /* \"#utility.yul\":8564:8565   */\n      0x00\n        /* \"#utility.yul\":8589:8642   */\n      tag_421\n        /* \"#utility.yul\":8634:8641   */\n      dup6\n        /* \"#utility.yul\":8625:8631   */\n      dup3\n        /* \"#utility.yul\":8614:8623   */\n      dup7\n        /* \"#utility.yul\":8610:8632   */\n      add\n        /* \"#utility.yul\":8589:8642   */\n      tag_260\n      jump\t// in\n    tag_421:\n        /* \"#utility.yul\":8579:8642   */\n      swap3\n      pop\n        /* \"#utility.yul\":8535:8652   */\n      pop\n        /* \"#utility.yul\":8691:8693   */\n      0x20\n        /* \"#utility.yul\":8717:8770   */\n      tag_422\n        /* \"#utility.yul\":8762:8769   */\n      dup6\n        /* \"#utility.yul\":8753:8759   */\n      dup3\n        /* \"#utility.yul\":8742:8751   */\n      dup7\n        /* \"#utility.yul\":8738:8760   */\n      add\n        /* \"#utility.yul\":8717:8770   */\n      tag_260\n      jump\t// in\n    tag_422:\n        /* \"#utility.yul\":8707:8770   */\n      swap2\n      pop\n        /* \"#utility.yul\":8662:8780   */\n      pop\n        /* \"#utility.yul\":8313:8787   */\n      swap3\n      pop\n      swap3\n      swap1\n      pop\n      jump\t// out\n        /* \"#utility.yul\":8793:9417   */\n    tag_90:\n        /* \"#utility.yul\":8982:8986   */\n      0x00\n        /* \"#utility.yul\":9020:9022   */\n      0x60\n        /* \"#utility.yul\":9009:9018   */\n      dup3\n        /* \"#utility.yul\":9005:9023   */\n      add\n        /* \"#utility.yul\":8997:9023   */\n      swap1\n      pop\n        /* \"#utility.yul\":9069:9078   */\n      dup2\n        /* \"#utility.yul\":9063:9067   */\n      dup2\n        /* \"#utility.yul\":9059:9079   */\n      sub\n        /* \"#utility.yul\":9055:9056   */\n      0x00\n        /* \"#utility.yul\":9044:9053   */\n      dup4\n        /* \"#utility.yul\":9040:9057   */\n      add\n        /* \"#utility.yul\":9033:9080   */\n      mstore\n        /* \"#utility.yul\":9097:9175   */\n      tag_424\n        /* \"#utility.yul\":9170:9174   */\n      dup2\n        /* \"#utility.yul\":9161:9167   */\n      dup7\n        /* \"#utility.yul\":9097:9175   */\n      tag_276\n      jump\t// in\n    tag_424:\n        /* \"#utility.yul\":9089:9175   */\n      swap1\n      pop\n        /* \"#utility.yul\":9222:9231   */\n      dup2\n        /* \"#utility.yul\":9216:9220   */\n      dup2\n        /* \"#utility.yul\":9212:9232   */\n      sub\n        /* \"#utility.yul\":9207:9209   */\n      0x20\n        /* \"#utility.yul\":9196:9205   */\n      dup4\n        /* \"#utility.yul\":9192:9210   */\n      add\n        /* \"#utility.yul\":9185:9233   */\n      mstore\n        /* \"#utility.yul\":9250:9328   */\n      tag_425\n        /* \"#utility.yul\":9323:9327   */\n      dup2\n        /* \"#utility.yul\":9314:9320   */\n      dup6\n        /* \"#utility.yul\":9250:9328   */\n      tag_276\n      jump\t// in\n    tag_425:\n        /* \"#utility.yul\":9242:9328   */\n      swap1\n      pop\n        /* \"#utility.yul\":9338:9410   */\n      tag_426\n        /* \"#utility.yul\":9406:9408   */\n      0x40\n        /* \"#utility.yul\":9395:9404   */\n      dup4\n        /* \"#utility.yul\":9391:9409   */\n      add\n        /* \"#utility.yul\":9382:9388   */\n      dup5\n        /* \"#utility.yul\":9338:9410   */\n      tag_271\n      jump\t// in\n    tag_426:\n        /* \"#utility.yul\":8793:9417   */\n      swap5\n      swap4\n      pop\n      pop\n      pop\n      pop\n      jump\t// out\n        /* \"#utility.yul\":9423:9540   */\n    tag_284:\n        /* \"#utility.yul\":9532:9533   */\n      0x00\n        /* \"#utility.yul\":9529:9530   */\n      dup1\n        /* \"#utility.yul\":9522:9534   */\n      revert\n        /* \"#utility.yul\":9546:9663   */\n    tag_285:\n        /* \"#utility.yul\":9655:9656   */\n      0x00\n        /* \"#utility.yul\":9652:9653   */\n      dup1\n        /* \"#utility.yul\":9645:9657   */\n      revert\n        /* \"#utility.yul\":9669:9786   */\n    tag_286:\n        /* \"#utility.yul\":9778:9779   */\n      0x00\n        /* \"#utility.yul\":9775:9776   */\n      dup1\n        /* \"#utility.yul\":9768:9780   */\n      revert\n        /* \"#utility.yul\":9806:10359   */\n    tag_287:\n        /* \"#utility.yul\":9864:9872   */\n      0x00\n        /* \"#utility.yul\":9874:9880   */\n      dup1\n        /* \"#utility.yul\":9924:9927   */\n      dup4\n        /* \"#utility.yul\":9917:9921   */\n      0x1f\n        /* \"#utility.yul\":9909:9915   */\n      dup5\n        /* \"#utility.yul\":9905:9922   */\n      add\n        /* \"#utility.yul\":9901:9928   */\n      slt\n        /* \"#utility.yul\":9891:10013   */\n      tag_431\n      jumpi\n        /* \"#utility.yul\":9932:10011   */\n      tag_432\n      tag_284\n      jump\t// in\n    tag_432:\n        /* \"#utility.yul\":9891:10013   */\n    tag_431:\n        /* \"#utility.yul\":10045:10051   */\n      dup3\n        /* \"#utility.yul\":10032:10052   */\n      calldataload\n        /* \"#utility.yul\":10022:10052   */\n      swap1\n      pop\n        /* \"#utility.yul\":10075:10093   */\n      0xffffffffffffffff\n        /* \"#utility.yul\":10067:10073   */\n      dup2\n        /* \"#utility.yul\":10064:10094   */\n      gt\n        /* \"#utility.yul\":10061:10178   */\n      iszero\n      tag_433\n      jumpi\n        /* \"#utility.yul\":10097:10176   */\n      tag_434\n      tag_285\n      jump\t// in\n    tag_434:\n        /* \"#utility.yul\":10061:10178   */\n    tag_433:\n        /* \"#utility.yul\":10211:10215   */\n      0x20\n        /* \"#utility.yul\":10203:10209   */\n      dup4\n        /* \"#utility.yul\":10199:10216   */\n      add\n        /* \"#utility.yul\":10187:10216   */\n      swap2\n      pop\n        /* \"#utility.yul\":10265:10268   */\n      dup4\n        /* \"#utility.yul\":10257:10261   */\n      0x01\n        /* \"#utility.yul\":10249:10255   */\n      dup3\n        /* \"#utility.yul\":10245:10262   */\n      mul\n        /* \"#utility.yul\":10235:10243   */\n      dup4\n        /* \"#utility.yul\":10231:10263   */\n      add\n        /* \"#utility.yul\":10228:10269   */\n      gt\n        /* \"#utility.yul\":10225:10353   */\n      iszero\n      tag_435\n      jumpi\n        /* \"#utility.yul\":10272:10351   */\n      tag_436\n      tag_286\n      jump\t// in\n    tag_436:\n        /* \"#utility.yul\":10225:10353   */\n    tag_435:\n        /* \"#utility.yul\":9806:10359   */\n      swap3\n      pop\n      swap3\n      swap1\n      pop\n      jump\t// out\n        /* \"#utility.yul\":10365:11384   */\n    tag_93:\n        /* \"#utility.yul\":10466:10472   */\n      0x00\n        /* \"#utility.yul\":10474:10480   */\n      dup1\n        /* \"#utility.yul\":10482:10488   */\n      0x00\n        /* \"#utility.yul\":10490:10496   */\n      dup1\n        /* \"#utility.yul\":10498:10504   */\n      0x00\n        /* \"#utility.yul\":10547:10549   */\n      0x60\n        /* \"#utility.yul\":10535:10544   */\n      dup7\n        /* \"#utility.yul\":10526:10533   */\n      dup9\n        /* \"#utility.yul\":10522:10545   */\n      sub\n        /* \"#utility.yul\":10518:10550   */\n      slt\n        /* \"#utility.yul\":10515:10634   */\n      iszero\n      tag_438\n      jumpi\n        /* \"#utility.yul\":10553:10632   */\n      tag_439\n      tag_255\n      jump\t// in\n    tag_439:\n        /* \"#utility.yul\":10515:10634   */\n    tag_438:\n        /* \"#utility.yul\":10701:10702   */\n      0x00\n        /* \"#utility.yul\":10690:10699   */\n      dup7\n        /* \"#utility.yul\":10686:10703   */\n      add\n        /* \"#utility.yul\":10673:10704   */\n      calldataload\n        /* \"#utility.yul\":10731:10749   */\n      0xffffffffffffffff\n        /* \"#utility.yul\":10723:10729   */\n      dup2\n        /* \"#utility.yul\":10720:10750   */\n      gt\n        /* \"#utility.yul\":10717:10834   */\n      iszero\n      tag_440\n      jumpi\n        /* \"#utility.yul\":10753:10832   */\n      tag_441\n      tag_256\n      jump\t// in\n    tag_441:\n        /* \"#utility.yul\":10717:10834   */\n    tag_440:\n        /* \"#utility.yul\":10866:10931   */\n      tag_442\n        /* \"#utility.yul\":10923:10930   */\n      dup9\n        /* \"#utility.yul\":10914:10920   */\n      dup3\n        /* \"#utility.yul\":10903:10912   */\n      dup10\n        /* \"#utility.yul\":10899:10921   */\n      add\n        /* \"#utility.yul\":10866:10931   */\n      tag_287\n      jump\t// in\n    tag_442:\n        /* \"#utility.yul\":10848:10931   */\n      swap6\n      pop\n      swap6\n      pop\n        /* \"#utility.yul\":10644:10941   */\n      pop\n        /* \"#utility.yul\":11008:11010   */\n      0x20\n        /* \"#utility.yul\":10997:11006   */\n      dup7\n        /* \"#utility.yul\":10993:11011   */\n      add\n        /* \"#utility.yul\":10980:11012   */\n      calldataload\n        /* \"#utility.yul\":11039:11057   */\n      0xffffffffffffffff\n        /* \"#utility.yul\":11031:11037   */\n      dup2\n        /* \"#utility.yul\":11028:11058   */\n      gt\n        /* \"#utility.yul\":11025:11142   */\n      iszero\n      tag_443\n      jumpi\n        /* \"#utility.yul\":11061:11140   */\n      tag_444\n      tag_256\n      jump\t// in\n    tag_444:\n        /* \"#utility.yul\":11025:11142   */\n    tag_443:\n        /* \"#utility.yul\":11174:11239   */\n      tag_445\n        /* \"#utility.yul\":11231:11238   */\n      dup9\n        /* \"#utility.yul\":11222:11228   */\n      dup3\n        /* \"#utility.yul\":11211:11220   */\n      dup10\n        /* \"#utility.yul\":11207:11229   */\n      add\n        /* \"#utility.yul\":11174:11239   */\n      tag_287\n      jump\t// in\n    tag_445:\n        /* \"#utility.yul\":11156:11239   */\n      swap4\n      pop\n      swap4\n      pop\n        /* \"#utility.yul\":10951:11249   */\n      pop\n        /* \"#utility.yul\":11288:11290   */\n      0x40\n        /* \"#utility.yul\":11314:11367   */\n      tag_446\n        /* \"#utility.yul\":11359:11366   */\n      dup9\n        /* \"#utility.yul\":11350:11356   */\n      dup3\n        /* \"#utility.yul\":11339:11348   */\n      dup10\n        /* \"#utility.yul\":11335:11357   */\n      add\n        /* \"#utility.yul\":11314:11367   */\n      tag_260\n      jump\t// in\n    tag_446:\n        /* \"#utility.yul\":11304:11367   */\n      swap2\n      pop\n        /* \"#utility.yul\":11259:11377   */\n      pop\n        /* \"#utility.yul\":10365:11384   */\n      swap3\n      swap6\n      pop\n      swap3\n      swap6\n      swap1\n      swap4\n      pop\n      jump\t// out\n        /* \"#utility.yul\":11390:11558   */\n    tag_288:\n        /* \"#utility.yul\":11530:11550   */\n      0x4e6f7420636f6e7472616374206f776e65720000000000000000000000000000\n        /* \"#utility.yul\":11526:11527   */\n      0x00\n        /* \"#utility.yul\":11518:11524   */\n      dup3\n        /* \"#utility.yul\":11514:11528   */\n      add\n        /* \"#utility.yul\":11507:11551   */\n      mstore\n        /* \"#utility.yul\":11390:11558   */\n      pop\n      jump\t// out\n        /* \"#utility.yul\":11564:11930   */\n    tag_289:\n        /* \"#utility.yul\":11706:11709   */\n      0x00\n        /* \"#utility.yul\":11727:11794   */\n      tag_449\n        /* \"#utility.yul\":11791:11793   */\n      0x12\n        /* \"#utility.yul\":11786:11789   */\n      dup4\n        /* \"#utility.yul\":11727:11794   */\n      tag_273\n      jump\t// in\n    tag_449:\n        /* \"#utility.yul\":11720:11794   */\n      swap2\n      pop\n        /* \"#utility.yul\":11803:11896   */\n      tag_450\n        /* \"#utility.yul\":11892:11895   */\n      dup3\n        /* \"#utility.yul\":11803:11896   */\n      tag_288\n      jump\t// in\n    tag_450:\n        /* \"#utility.yul\":11921:11923   */\n      0x20\n        /* \"#utility.yul\":11916:11919   */\n      dup3\n        /* \"#utility.yul\":11912:11924   */\n      add\n        /* \"#utility.yul\":11905:11924   */\n      swap1\n      pop\n        /* \"#utility.yul\":11564:11930   */\n      swap2\n      swap1\n      pop\n      jump\t// out\n        /* \"#utility.yul\":11936:12355   */\n    tag_112:\n        /* \"#utility.yul\":12102:12106   */\n      0x00\n        /* \"#utility.yul\":12140:12142   */\n      0x20\n        /* \"#utility.yul\":12129:12138   */\n      dup3\n        /* \"#utility.yul\":12125:12143   */\n      add\n        /* \"#utility.yul\":12117:12143   */\n      swap1\n      pop\n        /* \"#utility.yul\":12189:12198   */\n      dup2\n        /* \"#utility.yul\":12183:12187   */\n      dup2\n        /* \"#utility.yul\":12179:12199   */\n      sub\n        /* \"#utility.yul\":12175:12176   */\n      0x00\n        /* \"#utility.yul\":12164:12173   */\n      dup4\n        /* \"#utility.yul\":12160:12177   */\n      add\n        /* \"#utility.yul\":12153:12200   */\n      mstore\n        /* \"#utility.yul\":12217:12348   */\n      tag_452\n        /* \"#utility.yul\":12343:12347   */\n      dup2\n        /* \"#utility.yul\":12217:12348   */\n      tag_289\n      jump\t// in\n    tag_452:\n        /* \"#utility.yul\":12209:12348   */\n      swap1\n      pop\n        /* \"#utility.yul\":11936:12355   */\n      swap2\n      swap1\n      pop\n      jump\t// out\n        /* \"#utility.yul\":12361:12535   */\n    tag_290:\n        /* \"#utility.yul\":12501:12527   */\n      0x496e76616c69642070726f766964657220616464726573730000000000000000\n        /* \"#utility.yul\":12497:12498   */\n      0x00\n        /* \"#utility.yul\":12489:12495   */\n      dup3\n        /* \"#utility.yul\":12485:12499   */\n      add\n        /* \"#utility.yul\":12478:12528   */\n      mstore\n        /* \"#utility.yul\":12361:12535   */\n      pop\n      jump\t// out\n        /* \"#utility.yul\":12541:12907   */\n    tag_291:\n        /* \"#utility.yul\":12683:12686   */\n      0x00\n        /* \"#utility.yul\":12704:12771   */\n      tag_455\n        /* \"#utility.yul\":12768:12770   */\n      0x18\n        /* \"#utility.yul\":12763:12766   */\n      dup4\n        /* \"#utility.yul\":12704:12771   */\n      tag_273\n      jump\t// in\n    tag_455:\n        /* \"#utility.yul\":12697:12771   */\n      swap2\n      pop\n        /* \"#utility.yul\":12780:12873   */\n      tag_456\n        /* \"#utility.yul\":12869:12872   */\n      dup3\n        /* \"#utility.yul\":12780:12873   */\n      tag_290\n      jump\t// in\n    tag_456:\n        /* \"#utility.yul\":12898:12900   */\n      0x20\n        /* \"#utility.yul\":12893:12896   */\n      dup3\n        /* \"#utility.yul\":12889:12901   */\n      add\n        /* \"#utility.yul\":12882:12901   */\n      swap1\n      pop\n        /* \"#utility.yul\":12541:12907   */\n      swap2\n      swap1\n      pop\n      jump\t// out\n        /* \"#utility.yul\":12913:13332   */\n    tag_116:\n        /* \"#utility.yul\":13079:13083   */\n      0x00\n        /* \"#utility.yul\":13117:13119   */\n      0x20\n        /* \"#utility.yul\":13106:13115   */\n      dup3\n        /* \"#utility.yul\":13102:13120   */\n      add\n        /* \"#utility.yul\":13094:13120   */\n      swap1\n      pop\n        /* \"#utility.yul\":13166:13175   */\n      dup2\n        /* \"#utility.yul\":13160:13164   */\n      dup2\n        /* \"#utility.yul\":13156:13176   */\n      sub\n        /* \"#utility.yul\":13152:13153   */\n      0x00\n        /* \"#utility.yul\":13141:13150   */\n      dup4\n        /* \"#utility.yul\":13137:13154   */\n      add\n        /* \"#utility.yul\":13130:13177   */\n      mstore\n        /* \"#utility.yul\":13194:13325   */\n      tag_458\n        /* \"#utility.yul\":13320:13324   */\n      dup2\n        /* \"#utility.yul\":13194:13325   */\n      tag_291\n      jump\t// in\n    tag_458:\n        /* \"#utility.yul\":13186:13325   */\n      swap1\n      pop\n        /* \"#utility.yul\":12913:13332   */\n      swap2\n      swap1\n      pop\n      jump\t// out\n        /* \"#utility.yul\":13338:13518   */\n    tag_292:\n        /* \"#utility.yul\":13386:13463   */\n      0x4e487b7100000000000000000000000000000000000000000000000000000000\n        /* \"#utility.yul\":13383:13384   */\n      0x00\n        /* \"#utility.yul\":13376:13464   */\n      mstore\n        /* \"#utility.yul\":13483:13487   */\n      0x22\n        /* \"#utility.yul\":13480:13481   */\n      0x04\n        /* \"#utility.yul\":13473:13488   */\n      mstore\n        /* \"#utility.yul\":13507:13511   */\n      0x24\n        /* \"#utility.yul\":13504:13505   */\n      0x00\n        /* \"#utility.yul\":13497:13512   */\n      revert\n        /* \"#utility.yul\":13524:13844   */\n    tag_119:\n        /* \"#utility.yul\":13568:13574   */\n      0x00\n        /* \"#utility.yul\":13605:13606   */\n      0x02\n        /* \"#utility.yul\":13599:13603   */\n      dup3\n        /* \"#utility.yul\":13595:13607   */\n      div\n        /* \"#utility.yul\":13585:13607   */\n      swap1\n      pop\n        /* \"#utility.yul\":13652:13653   */\n      0x01\n        /* \"#utility.yul\":13646:13650   */\n      dup3\n        /* \"#utility.yul\":13642:13654   */\n      and\n        /* \"#utility.yul\":13673:13691   */\n      dup1\n        /* \"#utility.yul\":13663:13744   */\n      tag_461\n      jumpi\n        /* \"#utility.yul\":13729:13733   */\n      0x7f\n        /* \"#utility.yul\":13721:13727   */\n      dup3\n        /* \"#utility.yul\":13717:13734   */\n      and\n        /* \"#utility.yul\":13707:13734   */\n      swap2\n      pop\n        /* \"#utility.yul\":13663:13744   */\n    tag_461:\n        /* \"#utility.yul\":13791:13793   */\n      0x20\n        /* \"#utility.yul\":13783:13789   */\n      dup3\n        /* \"#utility.yul\":13780:13794   */\n      lt\n        /* \"#utility.yul\":13760:13778   */\n      dup2\n        /* \"#utility.yul\":13757:13795   */\n      sub\n        /* \"#utility.yul\":13754:13838   */\n      tag_462\n      jumpi\n        /* \"#utility.yul\":13810:13828   */\n      tag_463\n      tag_292\n      jump\t// in\n    tag_463:\n        /* \"#utility.yul\":13754:13838   */\n    tag_462:\n        /* \"#utility.yul\":13575:13844   */\n      pop\n        /* \"#utility.yul\":13524:13844   */\n      swap2\n      swap1\n      pop\n      jump\t// out\n        /* \"#utility.yul\":13850:14029   */\n    tag_293:\n        /* \"#utility.yul\":13990:14021   */\n      0x4e6f7420612072656769737465726564206761732070726f7669646572000000\n        /* \"#utility.yul\":13986:13987   */\n      0x00\n        /* \"#utility.yul\":13978:13984   */\n      dup3\n        /* \"#utility.yul\":13974:13988   */\n      add\n        /* \"#utility.yul\":13967:14022   */\n      mstore\n        /* \"#utility.yul\":13850:14029   */\n      pop\n      jump\t// out\n        /* \"#utility.yul\":14035:14401   */\n    tag_294:\n        /* \"#utility.yul\":14177:14180   */\n      0x00\n        /* \"#utility.yul\":14198:14265   */\n      tag_466\n        /* \"#utility.yul\":14262:14264   */\n      0x1d\n        /* \"#utility.yul\":14257:14260   */\n      dup4\n        /* \"#utility.yul\":14198:14265   */\n      tag_273\n      jump\t// in\n    tag_466:\n        /* \"#utility.yul\":14191:14265   */\n      swap2\n      pop\n        /* \"#utility.yul\":14274:14367   */\n      tag_467\n        /* \"#utility.yul\":14363:14366   */\n      dup3\n        /* \"#utility.yul\":14274:14367   */\n      tag_293\n      jump\t// in\n    tag_467:\n        /* \"#utility.yul\":14392:14394   */\n      0x20\n        /* \"#utility.yul\":14387:14390   */\n      dup3\n        /* \"#utility.yul\":14383:14395   */\n      add\n        /* \"#utility.yul\":14376:14395   */\n      swap1\n      pop\n        /* \"#utility.yul\":14035:14401   */\n      swap2\n      swap1\n      pop\n      jump\t// out\n        /* \"#utility.yul\":14407:14826   */\n    tag_137:\n        /* \"#utility.yul\":14573:14577   */\n      0x00\n        /* \"#utility.yul\":14611:14613   */\n      0x20\n        /* \"#utility.yul\":14600:14609   */\n      dup3\n        /* \"#utility.yul\":14596:14614   */\n      add\n        /* \"#utility.yul\":14588:14614   */\n      swap1\n      pop\n        /* \"#utility.yul\":14660:14669   */\n      dup2\n        /* \"#utility.yul\":14654:14658   */\n      dup2\n        /* \"#utility.yul\":14650:14670   */\n      sub\n        /* \"#utility.yul\":14646:14647   */\n      0x00\n        /* \"#utility.yul\":14635:14644   */\n      dup4\n        /* \"#utility.yul\":14631:14648   */\n      add\n        /* \"#utility.yul\":14624:14671   */\n      mstore\n        /* \"#utility.yul\":14688:14819   */\n      tag_469\n        /* \"#utility.yul\":14814:14818   */\n      dup2\n        /* \"#utility.yul\":14688:14819   */\n      tag_294\n      jump\t// in\n    tag_469:\n        /* \"#utility.yul\":14680:14819   */\n      swap1\n      pop\n        /* \"#utility.yul\":14407:14826   */\n      swap2\n      swap1\n      pop\n      jump\t// out\n        /* \"#utility.yul\":14832:15054   */\n    tag_295:\n        /* \"#utility.yul\":14972:15006   */\n      0x5573657220646964206e6f74206170706c7920746f20746869732070726f7669\n        /* \"#utility.yul\":14968:14969   */\n      0x00\n        /* \"#utility.yul\":14960:14966   */\n      dup3\n        /* \"#utility.yul\":14956:14970   */\n      add\n        /* \"#utility.yul\":14949:15007   */\n      mstore\n        /* \"#utility.yul\":15041:15046   */\n      0x6465720000000000000000000000000000000000000000000000000000000000\n        /* \"#utility.yul\":15036:15038   */\n      0x20\n        /* \"#utility.yul\":15028:15034   */\n      dup3\n        /* \"#utility.yul\":15024:15039   */\n      add\n        /* \"#utility.yul\":15017:15047   */\n      mstore\n        /* \"#utility.yul\":14832:15054   */\n      pop\n      jump\t// out\n        /* \"#utility.yul\":15060:15426   */\n    tag_296:\n        /* \"#utility.yul\":15202:15205   */\n      0x00\n        /* \"#utility.yul\":15223:15290   */\n      tag_472\n        /* \"#utility.yul\":15287:15289   */\n      0x23\n        /* \"#utility.yul\":15282:15285   */\n      dup4\n        /* \"#utility.yul\":15223:15290   */\n      tag_273\n      jump\t// in\n    tag_472:\n        /* \"#utility.yul\":15216:15290   */\n      swap2\n      pop\n        /* \"#utility.yul\":15299:15392   */\n      tag_473\n        /* \"#utility.yul\":15388:15391   */\n      dup3\n        /* \"#utility.yul\":15299:15392   */\n      tag_295\n      jump\t// in\n    tag_473:\n        /* \"#utility.yul\":15417:15419   */\n      0x40\n        /* \"#utility.yul\":15412:15415   */\n      dup3\n        /* \"#utility.yul\":15408:15420   */\n      add\n        /* \"#utility.yul\":15401:15420   */\n      swap1\n      pop\n        /* \"#utility.yul\":15060:15426   */\n      swap2\n      swap1\n      pop\n      jump\t// out\n        /* \"#utility.yul\":15432:15851   */\n    tag_141:\n        /* \"#utility.yul\":15598:15602   */\n      0x00\n        /* \"#utility.yul\":15636:15638   */\n      0x20\n        /* \"#utility.yul\":15625:15634   */\n      dup3\n        /* \"#utility.yul\":15621:15639   */\n      add\n        /* \"#utility.yul\":15613:15639   */\n      swap1\n      pop\n        /* \"#utility.yul\":15685:15694   */\n      dup2\n        /* \"#utility.yul\":15679:15683   */\n      dup2\n        /* \"#utility.yul\":15675:15695   */\n      sub\n        /* \"#utility.yul\":15671:15672   */\n      0x00\n        /* \"#utility.yul\":15660:15669   */\n      dup4\n        /* \"#utility.yul\":15656:15673   */\n      add\n        /* \"#utility.yul\":15649:15696   */\n      mstore\n        /* \"#utility.yul\":15713:15844   */\n      tag_475\n        /* \"#utility.yul\":15839:15843   */\n      dup2\n        /* \"#utility.yul\":15713:15844   */\n      tag_296\n      jump\t// in\n    tag_475:\n        /* \"#utility.yul\":15705:15844   */\n      swap1\n      pop\n        /* \"#utility.yul\":15432:15851   */\n      swap2\n      swap1\n      pop\n      jump\t// out\n        /* \"#utility.yul\":15857:16024   */\n    tag_297:\n        /* \"#utility.yul\":15997:16016   */\n      0x4b5943206e6f74207375626d6974746564000000000000000000000000000000\n        /* \"#utility.yul\":15993:15994   */\n      0x00\n        /* \"#utility.yul\":15985:15991   */\n      dup3\n        /* \"#utility.yul\":15981:15995   */\n      add\n        /* \"#utility.yul\":15974:16017   */\n      mstore\n        /* \"#utility.yul\":15857:16024   */\n      pop\n      jump\t// out\n        /* \"#utility.yul\":16030:16396   */\n    tag_298:\n        /* \"#utility.yul\":16172:16175   */\n      0x00\n        /* \"#utility.yul\":16193:16260   */\n      tag_478\n        /* \"#utility.yul\":16257:16259   */\n      0x11\n        /* \"#utility.yul\":16252:16255   */\n      dup4\n        /* \"#utility.yul\":16193:16260   */\n      tag_273\n      jump\t// in\n    tag_478:\n        /* \"#utility.yul\":16186:16260   */\n      swap2\n      pop\n        /* \"#utility.yul\":16269:16362   */\n      tag_479\n        /* \"#utility.yul\":16358:16361   */\n      dup3\n        /* \"#utility.yul\":16269:16362   */\n      tag_297\n      jump\t// in\n    tag_479:\n        /* \"#utility.yul\":16387:16389   */\n      0x20\n        /* \"#utility.yul\":16382:16385   */\n      dup3\n        /* \"#utility.yul\":16378:16390   */\n      add\n        /* \"#utility.yul\":16371:16390   */\n      swap1\n      pop\n        /* \"#utility.yul\":16030:16396   */\n      swap2\n      swap1\n      pop\n      jump\t// out\n        /* \"#utility.yul\":16402:16821   */\n    tag_150:\n        /* \"#utility.yul\":16568:16572   */\n      0x00\n        /* \"#utility.yul\":16606:16608   */\n      0x20\n        /* \"#utility.yul\":16595:16604   */\n      dup3\n        /* \"#utility.yul\":16591:16609   */\n      add\n        /* \"#utility.yul\":16583:16609   */\n      swap1\n      pop\n        /* \"#utility.yul\":16655:16664   */\n      dup2\n        /* \"#utility.yul\":16649:16653   */\n      dup2\n        /* \"#utility.yul\":16645:16665   */\n      sub\n        /* \"#utility.yul\":16641:16642   */\n      0x00\n        /* \"#utility.yul\":16630:16639   */\n      dup4\n        /* \"#utility.yul\":16626:16643   */\n      add\n        /* \"#utility.yul\":16619:16666   */\n      mstore\n        /* \"#utility.yul\":16683:16814   */\n      tag_481\n        /* \"#utility.yul\":16809:16813   */\n      dup2\n        /* \"#utility.yul\":16683:16814   */\n      tag_298\n      jump\t// in\n    tag_481:\n        /* \"#utility.yul\":16675:16814   */\n      swap1\n      pop\n        /* \"#utility.yul\":16402:16821   */\n      swap2\n      swap1\n      pop\n      jump\t// out\n        /* \"#utility.yul\":16827:16993   */\n    tag_299:\n        /* \"#utility.yul\":16967:16985   */\n      0x496e76616c69642070726f766964657200000000000000000000000000000000\n        /* \"#utility.yul\":16963:16964   */\n      0x00\n        /* \"#utility.yul\":16955:16961   */\n      dup3\n        /* \"#utility.yul\":16951:16965   */\n      add\n        /* \"#utility.yul\":16944:16986   */\n      mstore\n        /* \"#utility.yul\":16827:16993   */\n      pop\n      jump\t// out\n        /* \"#utility.yul\":16999:17365   */\n    tag_300:\n        /* \"#utility.yul\":17141:17144   */\n      0x00\n        /* \"#utility.yul\":17162:17229   */\n      tag_484\n        /* \"#utility.yul\":17226:17228   */\n      0x10\n        /* \"#utility.yul\":17221:17224   */\n      dup4\n        /* \"#utility.yul\":17162:17229   */\n      tag_273\n      jump\t// in\n    tag_484:\n        /* \"#utility.yul\":17155:17229   */\n      swap2\n      pop\n        /* \"#utility.yul\":17238:17331   */\n      tag_485\n        /* \"#utility.yul\":17327:17330   */\n      dup3\n        /* \"#utility.yul\":17238:17331   */\n      tag_299\n      jump\t// in\n    tag_485:\n        /* \"#utility.yul\":17356:17358   */\n      0x20\n        /* \"#utility.yul\":17351:17354   */\n      dup3\n        /* \"#utility.yul\":17347:17359   */\n      add\n        /* \"#utility.yul\":17340:17359   */\n      swap1\n      pop\n        /* \"#utility.yul\":16999:17365   */\n      swap2\n      swap1\n      pop\n      jump\t// out\n        /* \"#utility.yul\":17371:17790   */\n    tag_153:\n        /* \"#utility.yul\":17537:17541   */\n      0x00\n        /* \"#utility.yul\":17575:17577   */\n      0x20\n        /* \"#utility.yul\":17564:17573   */\n      dup3\n        /* \"#utility.yul\":17560:17578   */\n      add\n        /* \"#utility.yul\":17552:17578   */\n      swap1\n      pop\n        /* \"#utility.yul\":17624:17633   */\n      dup2\n        /* \"#utility.yul\":17618:17622   */\n      dup2\n        /* \"#utility.yul\":17614:17634   */\n      sub\n        /* \"#utility.yul\":17610:17611   */\n      0x00\n        /* \"#utility.yul\":17599:17608   */\n      dup4\n        /* \"#utility.yul\":17595:17612   */\n      add\n        /* \"#utility.yul\":17588:17635   */\n      mstore\n        /* \"#utility.yul\":17652:17783   */\n      tag_487\n        /* \"#utility.yul\":17778:17782   */\n      dup2\n        /* \"#utility.yul\":17652:17783   */\n      tag_300\n      jump\t// in\n    tag_487:\n        /* \"#utility.yul\":17644:17783   */\n      swap1\n      pop\n        /* \"#utility.yul\":17371:17790   */\n      swap2\n      swap1\n      pop\n      jump\t// out\n        /* \"#utility.yul\":17796:17972   */\n    tag_301:\n        /* \"#utility.yul\":17936:17964   */\n      0x416c7265616479207769746820746869732070726f7669646572000000000000\n        /* \"#utility.yul\":17932:17933   */\n      0x00\n        /* \"#utility.yul\":17924:17930   */\n      dup3\n        /* \"#utility.yul\":17920:17934   */\n      add\n        /* \"#utility.yul\":17913:17965   */\n      mstore\n        /* \"#utility.yul\":17796:17972   */\n      pop\n      jump\t// out\n        /* \"#utility.yul\":17978:18344   */\n    tag_302:\n        /* \"#utility.yul\":18120:18123   */\n      0x00\n        /* \"#utility.yul\":18141:18208   */\n      tag_490\n        /* \"#utility.yul\":18205:18207   */\n      0x1a\n        /* \"#utility.yul\":18200:18203   */\n      dup4\n        /* \"#utility.yul\":18141:18208   */\n      tag_273\n      jump\t// in\n    tag_490:\n        /* \"#utility.yul\":18134:18208   */\n      swap2\n      pop\n        /* \"#utility.yul\":18217:18310   */\n      tag_491\n        /* \"#utility.yul\":18306:18309   */\n      dup3\n        /* \"#utility.yul\":18217:18310   */\n      tag_301\n      jump\t// in\n    tag_491:\n        /* \"#utility.yul\":18335:18337   */\n      0x20\n        /* \"#utility.yul\":18330:18333   */\n      dup3\n        /* \"#utility.yul\":18326:18338   */\n      add\n        /* \"#utility.yul\":18319:18338   */\n      swap1\n      pop\n        /* \"#utility.yul\":17978:18344   */\n      swap2\n      swap1\n      pop\n      jump\t// out\n        /* \"#utility.yul\":18350:18769   */\n    tag_156:\n        /* \"#utility.yul\":18516:18520   */\n      0x00\n        /* \"#utility.yul\":18554:18556   */\n      0x20\n        /* \"#utility.yul\":18543:18552   */\n      dup3\n        /* \"#utility.yul\":18539:18557   */\n      add\n        /* \"#utility.yul\":18531:18557   */\n      swap1\n      pop\n        /* \"#utility.yul\":18603:18612   */\n      dup2\n        /* \"#utility.yul\":18597:18601   */\n      dup2\n        /* \"#utility.yul\":18593:18613   */\n      sub\n        /* \"#utility.yul\":18589:18590   */\n      0x00\n        /* \"#utility.yul\":18578:18587   */\n      dup4\n        /* \"#utility.yul\":18574:18591   */\n      add\n        /* \"#utility.yul\":18567:18614   */\n      mstore\n        /* \"#utility.yul\":18631:18762   */\n      tag_493\n        /* \"#utility.yul\":18757:18761   */\n      dup2\n        /* \"#utility.yul\":18631:18762   */\n      tag_302\n      jump\t// in\n    tag_493:\n        /* \"#utility.yul\":18623:18762   */\n      swap1\n      pop\n        /* \"#utility.yul\":18350:18769   */\n      swap2\n      swap1\n      pop\n      jump\t// out\n        /* \"#utility.yul\":18775:18942   */\n    tag_303:\n        /* \"#utility.yul\":18915:18934   */\n      0x416c726561647920726571756573746564000000000000000000000000000000\n        /* \"#utility.yul\":18911:18912   */\n      0x00\n        /* \"#utility.yul\":18903:18909   */\n      dup3\n        /* \"#utility.yul\":18899:18913   */\n      add\n        /* \"#utility.yul\":18892:18935   */\n      mstore\n        /* \"#utility.yul\":18775:18942   */\n      pop\n      jump\t// out\n        /* \"#utility.yul\":18948:19314   */\n    tag_304:\n        /* \"#utility.yul\":19090:19093   */\n      0x00\n        /* \"#utility.yul\":19111:19178   */\n      tag_496\n        /* \"#utility.yul\":19175:19177   */\n      0x11\n        /* \"#utility.yul\":19170:19173   */\n      dup4\n        /* \"#utility.yul\":19111:19178   */\n      tag_273\n      jump\t// in\n    tag_496:\n        /* \"#utility.yul\":19104:19178   */\n      swap2\n      pop\n        /* \"#utility.yul\":19187:19280   */\n      tag_497\n        /* \"#utility.yul\":19276:19279   */\n      dup3\n        /* \"#utility.yul\":19187:19280   */\n      tag_303\n      jump\t// in\n    tag_497:\n        /* \"#utility.yul\":19305:19307   */\n      0x20\n        /* \"#utility.yul\":19300:19303   */\n      dup3\n        /* \"#utility.yul\":19296:19308   */\n      add\n        /* \"#utility.yul\":19289:19308   */\n      swap1\n      pop\n        /* \"#utility.yul\":18948:19314   */\n      swap2\n      swap1\n      pop\n      jump\t// out\n        /* \"#utility.yul\":19320:19739   */\n    tag_159:\n        /* \"#utility.yul\":19486:19490   */\n      0x00\n        /* \"#utility.yul\":19524:19526   */\n      0x20\n        /* \"#utility.yul\":19513:19522   */\n      dup3\n        /* \"#utility.yul\":19509:19527   */\n      add\n        /* \"#utility.yul\":19501:19527   */\n      swap1\n      pop\n        /* \"#utility.yul\":19573:19582   */\n      dup2\n        /* \"#utility.yul\":19567:19571   */\n      dup2\n        /* \"#utility.yul\":19563:19583   */\n      sub\n        /* \"#utility.yul\":19559:19560   */\n      0x00\n        /* \"#utility.yul\":19548:19557   */\n      dup4\n        /* \"#utility.yul\":19544:19561   */\n      add\n        /* \"#utility.yul\":19537:19584   */\n      mstore\n        /* \"#utility.yul\":19601:19732   */\n      tag_499\n        /* \"#utility.yul\":19727:19731   */\n      dup2\n        /* \"#utility.yul\":19601:19732   */\n      tag_304\n      jump\t// in\n    tag_499:\n        /* \"#utility.yul\":19593:19732   */\n      swap1\n      pop\n        /* \"#utility.yul\":19320:19739   */\n      swap2\n      swap1\n      pop\n      jump\t// out\n        /* \"#utility.yul\":19745:19918   */\n    tag_305:\n        /* \"#utility.yul\":19885:19910   */\n      0x50726f7669646572206e6f742072656769737465726564000000000000000000\n        /* \"#utility.yul\":19881:19882   */\n      0x00\n        /* \"#utility.yul\":19873:19879   */\n      dup3\n        /* \"#utility.yul\":19869:19883   */\n      add\n        /* \"#utility.yul\":19862:19911   */\n      mstore\n        /* \"#utility.yul\":19745:19918   */\n      pop\n      jump\t// out\n        /* \"#utility.yul\":19924:20290   */\n    tag_306:\n        /* \"#utility.yul\":20066:20069   */\n      0x00\n        /* \"#utility.yul\":20087:20154   */\n      tag_502\n        /* \"#utility.yul\":20151:20153   */\n      0x17\n        /* \"#utility.yul\":20146:20149   */\n      dup4\n        /* \"#utility.yul\":20087:20154   */\n      tag_273\n      jump\t// in\n    tag_502:\n        /* \"#utility.yul\":20080:20154   */\n      swap2\n      pop\n        /* \"#utility.yul\":20163:20256   */\n      tag_503\n        /* \"#utility.yul\":20252:20255   */\n      dup3\n        /* \"#utility.yul\":20163:20256   */\n      tag_305\n      jump\t// in\n    tag_503:\n        /* \"#utility.yul\":20281:20283   */\n      0x20\n        /* \"#utility.yul\":20276:20279   */\n      dup3\n        /* \"#utility.yul\":20272:20284   */\n      add\n        /* \"#utility.yul\":20265:20284   */\n      swap1\n      pop\n        /* \"#utility.yul\":19924:20290   */\n      swap2\n      swap1\n      pop\n      jump\t// out\n        /* \"#utility.yul\":20296:20715   */\n    tag_167:\n        /* \"#utility.yul\":20462:20466   */\n      0x00\n        /* \"#utility.yul\":20500:20502   */\n      0x20\n        /* \"#utility.yul\":20489:20498   */\n      dup3\n        /* \"#utility.yul\":20485:20503   */\n      add\n        /* \"#utility.yul\":20477:20503   */\n      swap1\n      pop\n        /* \"#utility.yul\":20549:20558   */\n      dup2\n        /* \"#utility.yul\":20543:20547   */\n      dup2\n        /* \"#utility.yul\":20539:20559   */\n      sub\n        /* \"#utility.yul\":20535:20536   */\n      0x00\n        /* \"#utility.yul\":20524:20533   */\n      dup4\n        /* \"#utility.yul\":20520:20537   */\n      add\n        /* \"#utility.yul\":20513:20560   */\n      mstore\n        /* \"#utility.yul\":20577:20708   */\n      tag_505\n        /* \"#utility.yul\":20703:20707   */\n      dup2\n        /* \"#utility.yul\":20577:20708   */\n      tag_306\n      jump\t// in\n    tag_505:\n        /* \"#utility.yul\":20569:20708   */\n      swap1\n      pop\n        /* \"#utility.yul\":20296:20715   */\n      swap2\n      swap1\n      pop\n      jump\t// out\n        /* \"#utility.yul\":20721:21053   */\n    tag_195:\n        /* \"#utility.yul\":20842:20846   */\n      0x00\n        /* \"#utility.yul\":20880:20882   */\n      0x40\n        /* \"#utility.yul\":20869:20878   */\n      dup3\n        /* \"#utility.yul\":20865:20883   */\n      add\n        /* \"#utility.yul\":20857:20883   */\n      swap1\n      pop\n        /* \"#utility.yul\":20893:20964   */\n      tag_507\n        /* \"#utility.yul\":20961:20962   */\n      0x00\n        /* \"#utility.yul\":20950:20959   */\n      dup4\n        /* \"#utility.yul\":20946:20963   */\n      add\n        /* \"#utility.yul\":20937:20943   */\n      dup6\n        /* \"#utility.yul\":20893:20964   */\n      tag_283\n      jump\t// in\n    tag_507:\n        /* \"#utility.yul\":20974:21046   */\n      tag_508\n        /* \"#utility.yul\":21042:21044   */\n      0x20\n        /* \"#utility.yul\":21031:21040   */\n      dup4\n        /* \"#utility.yul\":21027:21045   */\n      add\n        /* \"#utility.yul\":21018:21024   */\n      dup5\n        /* \"#utility.yul\":20974:21046   */\n      tag_283\n      jump\t// in\n    tag_508:\n        /* \"#utility.yul\":20721:21053   */\n      swap4\n      swap3\n      pop\n      pop\n      pop\n      jump\t// out\n        /* \"#utility.yul\":21059:21234   */\n    tag_307:\n        /* \"#utility.yul\":21199:21226   */\n      0x4950465320686173682063616e6e6f7420626520656d70747900000000000000\n        /* \"#utility.yul\":21195:21196   */\n      0x00\n        /* \"#utility.yul\":21187:21193   */\n      dup3\n        /* \"#utility.yul\":21183:21197   */\n      add\n        /* \"#utility.yul\":21176:21227   */\n      mstore\n        /* \"#utility.yul\":21059:21234   */\n      pop\n      jump\t// out\n        /* \"#utility.yul\":21240:21606   */\n    tag_308:\n        /* \"#utility.yul\":21382:21385   */\n      0x00\n        /* \"#utility.yul\":21403:21470   */\n      tag_511\n        /* \"#utility.yul\":21467:21469   */\n      0x19\n        /* \"#utility.yul\":21462:21465   */\n      dup4\n        /* \"#utility.yul\":21403:21470   */\n      tag_273\n      jump\t// in\n    tag_511:\n        /* \"#utility.yul\":21396:21470   */\n      swap2\n      pop\n        /* \"#utility.yul\":21479:21572   */\n      tag_512\n        /* \"#utility.yul\":21568:21571   */\n      dup3\n        /* \"#utility.yul\":21479:21572   */\n      tag_307\n      jump\t// in\n    tag_512:\n        /* \"#utility.yul\":21597:21599   */\n      0x20\n        /* \"#utility.yul\":21592:21595   */\n      dup3\n        /* \"#utility.yul\":21588:21600   */\n      add\n        /* \"#utility.yul\":21581:21600   */\n      swap1\n      pop\n        /* \"#utility.yul\":21240:21606   */\n      swap2\n      swap1\n      pop\n      jump\t// out\n        /* \"#utility.yul\":21612:22031   */\n    tag_215:\n        /* \"#utility.yul\":21778:21782   */\n      0x00\n        /* \"#utility.yul\":21816:21818   */\n      0x20\n        /* \"#utility.yul\":21805:21814   */\n      dup3\n        /* \"#utility.yul\":21801:21819   */\n      add\n        /* \"#utility.yul\":21793:21819   */\n      swap1\n      pop\n        /* \"#utility.yul\":21865:21874   */\n      dup2\n        /* \"#utility.yul\":21859:21863   */\n      dup2\n        /* \"#utility.yul\":21855:21875   */\n      sub\n        /* \"#utility.yul\":21851:21852   */\n      0x00\n        /* \"#utility.yul\":21840:21849   */\n      dup4\n        /* \"#utility.yul\":21836:21853   */\n      add\n        /* \"#utility.yul\":21829:21876   */\n      mstore\n        /* \"#utility.yul\":21893:22024   */\n      tag_514\n        /* \"#utility.yul\":22019:22023   */\n      dup2\n        /* \"#utility.yul\":21893:22024   */\n      tag_308\n      jump\t// in\n    tag_514:\n        /* \"#utility.yul\":21885:22024   */\n      swap1\n      pop\n        /* \"#utility.yul\":21612:22031   */\n      swap2\n      swap1\n      pop\n      jump\t// out\n        /* \"#utility.yul\":22037:22208   */\n    tag_309:\n        /* \"#utility.yul\":22177:22200   */\n      0x4b594320616c7265616479207375626d69747465640000000000000000000000\n        /* \"#utility.yul\":22173:22174   */\n      0x00\n        /* \"#utility.yul\":22165:22171   */\n      dup3\n        /* \"#utility.yul\":22161:22175   */\n      add\n        /* \"#utility.yul\":22154:22201   */\n      mstore\n        /* \"#utility.yul\":22037:22208   */\n      pop\n      jump\t// out\n        /* \"#utility.yul\":22214:22580   */\n    tag_310:\n        /* \"#utility.yul\":22356:22359   */\n      0x00\n        /* \"#utility.yul\":22377:22444   */\n      tag_517\n        /* \"#utility.yul\":22441:22443   */\n      0x15\n        /* \"#utility.yul\":22436:22439   */\n      dup4\n        /* \"#utility.yul\":22377:22444   */\n      tag_273\n      jump\t// in\n    tag_517:\n        /* \"#utility.yul\":22370:22444   */\n      swap2\n      pop\n        /* \"#utility.yul\":22453:22546   */\n      tag_518\n        /* \"#utility.yul\":22542:22545   */\n      dup3\n        /* \"#utility.yul\":22453:22546   */\n      tag_309\n      jump\t// in\n    tag_518:\n        /* \"#utility.yul\":22571:22573   */\n      0x20\n        /* \"#utility.yul\":22566:22569   */\n      dup3\n        /* \"#utility.yul\":22562:22574   */\n      add\n        /* \"#utility.yul\":22555:22574   */\n      swap1\n      pop\n        /* \"#utility.yul\":22214:22580   */\n      swap2\n      swap1\n      pop\n      jump\t// out\n        /* \"#utility.yul\":22586:23005   */\n    tag_218:\n        /* \"#utility.yul\":22752:22756   */\n      0x00\n        /* \"#utility.yul\":22790:22792   */\n      0x20\n        /* \"#utility.yul\":22779:22788   */\n      dup3\n        /* \"#utility.yul\":22775:22793   */\n      add\n        /* \"#utility.yul\":22767:22793   */\n      swap1\n      pop\n        /* \"#utility.yul\":22839:22848   */\n      dup2\n        /* \"#utility.yul\":22833:22837   */\n      dup2\n        /* \"#utility.yul\":22829:22849   */\n      sub\n        /* \"#utility.yul\":22825:22826   */\n      0x00\n        /* \"#utility.yul\":22814:22823   */\n      dup4\n        /* \"#utility.yul\":22810:22827   */\n      add\n        /* \"#utility.yul\":22803:22850   */\n      mstore\n        /* \"#utility.yul\":22867:22998   */\n      tag_520\n        /* \"#utility.yul\":22993:22997   */\n      dup2\n        /* \"#utility.yul\":22867:22998   */\n      tag_310\n      jump\t// in\n    tag_520:\n        /* \"#utility.yul\":22859:22998   */\n      swap1\n      pop\n        /* \"#utility.yul\":22586:23005   */\n      swap2\n      swap1\n      pop\n      jump\t// out\n        /* \"#utility.yul\":23011:23191   */\n    tag_311:\n        /* \"#utility.yul\":23059:23136   */\n      0x4e487b7100000000000000000000000000000000000000000000000000000000\n        /* \"#utility.yul\":23056:23057   */\n      0x00\n        /* \"#utility.yul\":23049:23137   */\n      mstore\n        /* \"#utility.yul\":23156:23160   */\n      0x41\n        /* \"#utility.yul\":23153:23154   */\n      0x04\n        /* \"#utility.yul\":23146:23161   */\n      mstore\n        /* \"#utility.yul\":23180:23184   */\n      0x24\n        /* \"#utility.yul\":23177:23178   */\n      0x00\n        /* \"#utility.yul\":23170:23185   */\n      revert\n        /* \"#utility.yul\":23197:23338   */\n    tag_312:\n        /* \"#utility.yul\":23246:23250   */\n      0x00\n        /* \"#utility.yul\":23269:23272   */\n      dup2\n        /* \"#utility.yul\":23261:23272   */\n      swap1\n      pop\n        /* \"#utility.yul\":23292:23295   */\n      dup2\n        /* \"#utility.yul\":23289:23290   */\n      0x00\n        /* \"#utility.yul\":23282:23296   */\n      mstore\n        /* \"#utility.yul\":23326:23330   */\n      0x20\n        /* \"#utility.yul\":23323:23324   */\n      0x00\n        /* \"#utility.yul\":23313:23331   */\n      keccak256\n        /* \"#utility.yul\":23305:23331   */\n      swap1\n      pop\n        /* \"#utility.yul\":23197:23338   */\n      swap2\n      swap1\n      pop\n      jump\t// out\n        /* \"#utility.yul\":23344:23437   */\n    tag_313:\n        /* \"#utility.yul\":23381:23387   */\n      0x00\n        /* \"#utility.yul\":23428:23430   */\n      0x20\n        /* \"#utility.yul\":23423:23425   */\n      0x1f\n        /* \"#utility.yul\":23416:23421   */\n      dup4\n        /* \"#utility.yul\":23412:23426   */\n      add\n        /* \"#utility.yul\":23408:23431   */\n      div\n        /* \"#utility.yul\":23398:23431   */\n      swap1\n      pop\n        /* \"#utility.yul\":23344:23437   */\n      swap2\n      swap1\n      pop\n      jump\t// out\n        /* \"#utility.yul\":23443:23550   */\n    tag_314:\n        /* \"#utility.yul\":23487:23495   */\n      0x00\n        /* \"#utility.yul\":23537:23542   */\n      dup3\n        /* \"#utility.yul\":23531:23535   */\n      dup3\n        /* \"#utility.yul\":23527:23543   */\n      shl\n        /* \"#utility.yul\":23506:23543   */\n      swap1\n      pop\n        /* \"#utility.yul\":23443:23550   */\n      swap3\n      swap2\n      pop\n      pop\n      jump\t// out\n        /* \"#utility.yul\":23556:23949   */\n    tag_315:\n        /* \"#utility.yul\":23625:23631   */\n      0x00\n        /* \"#utility.yul\":23675:23676   */\n      0x08\n        /* \"#utility.yul\":23663:23673   */\n      dup4\n        /* \"#utility.yul\":23659:23677   */\n      mul\n        /* \"#utility.yul\":23698:23795   */\n      tag_526\n        /* \"#utility.yul\":23728:23794   */\n      0xffffffffffffffffffffffffffffffffffffffffffffffffffffffffffffffff\n        /* \"#utility.yul\":23717:23726   */\n      dup3\n        /* \"#utility.yul\":23698:23795   */\n      tag_314\n      jump\t// in\n    tag_526:\n        /* \"#utility.yul\":23816:23855   */\n      tag_527\n        /* \"#utility.yul\":23846:23854   */\n      dup7\n        /* \"#utility.yul\":23835:23844   */\n      dup4\n        /* \"#utility.yul\":23816:23855   */\n      tag_314\n      jump\t// in\n    tag_527:\n        /* \"#utility.yul\":23804:23855   */\n      swap6\n      pop\n        /* \"#utility.yul\":23888:23892   */\n      dup1\n        /* \"#utility.yul\":23884:23893   */\n      not\n        /* \"#utility.yul\":23877:23882   */\n      dup5\n        /* \"#utility.yul\":23873:23894   */\n      and\n        /* \"#utility.yul\":23864:23894   */\n      swap4\n      pop\n        /* \"#utility.yul\":23937:23941   */\n      dup1\n        /* \"#utility.yul\":23927:23935   */\n      dup7\n        /* \"#utility.yul\":23923:23942   */\n      and\n        /* \"#utility.yul\":23916:23921   */\n      dup5\n        /* \"#utility.yul\":23913:23943   */\n      or\n        /* \"#utility.yul\":23903:23943   */\n      swap3\n      pop\n        /* \"#utility.yul\":23632:23949   */\n      pop\n      pop\n        /* \"#utility.yul\":23556:23949   */\n      swap4\n      swap3\n      pop\n      pop\n      pop\n      jump\t// out\n        /* \"#utility.yul\":23955:24015   */\n    tag_316:\n        /* \"#utility.yul\":23983:23986   */\n      0x00\n        /* \"#utility.yul\":24004:24009   */\n      dup2\n        /* \"#utility.yul\":23997:24009   */\n      swap1\n      pop\n        /* \"#utility.yul\":23955:24015   */\n      swap2\n      swap1\n      pop\n      jump\t// out\n        /* \"#utility.yul\":24021:24163   */\n    tag_317:\n        /* \"#utility.yul\":24071:24080   */\n      0x00\n        /* \"#utility.yul\":24104:24157   */\n      tag_530\n        /* \"#utility.yul\":24122:24156   */\n      tag_531\n        /* \"#utility.yul\":24131:24155   */\n      tag_532\n        /* \"#utility.yul\":24149:24154   */\n      dup5\n        /* \"#utility.yul\":24131:24155   */\n      tag_268\n      jump\t// in\n    tag_532:\n        /* \"#utility.yul\":24122:24156   */\n      tag_316\n      jump\t// in\n    tag_531:\n        /* \"#utility.yul\":24104:24157   */\n      tag_268\n      jump\t// in\n    tag_530:\n        /* \"#utility.yul\":24091:24157   */\n      swap1\n      pop\n        /* \"#utility.yul\":24021:24163   */\n      swap2\n      swap1\n      pop\n      jump\t// out\n        /* \"#utility.yul\":24169:24244   */\n    tag_318:\n        /* \"#utility.yul\":24212:24215   */\n      0x00\n        /* \"#utility.yul\":24233:24238   */\n      dup2\n        /* \"#utility.yul\":24226:24238   */\n      swap1\n      pop\n        /* \"#utility.yul\":24169:24244   */\n      swap2\n      swap1\n      pop\n      jump\t// out\n        /* \"#utility.yul\":24250:24519   */\n    tag_319:\n        /* \"#utility.yul\":24360:24399   */\n      tag_535\n        /* \"#utility.yul\":24391:24398   */\n      dup4\n        /* \"#utility.yul\":24360:24399   */\n      tag_317\n      jump\t// in\n    tag_535:\n        /* \"#utility.yul\":24421:24512   */\n      tag_536\n        /* \"#utility.yul\":24470:24511   */\n      tag_537\n        /* \"#utility.yul\":24494:24510   */\n      dup3\n        /* \"#utility.yul\":24470:24511   */\n      tag_318\n      jump\t// in\n    tag_537:\n        /* \"#utility.yul\":24462:24468   */\n      dup5\n        /* \"#utility.yul\":24455:24459   */\n      dup5\n        /* \"#utility.yul\":24449:24460   */\n      sload\n        /* \"#utility.yul\":24421:24512   */\n      tag_315\n      jump\t// in\n    tag_536:\n        /* \"#utility.yul\":24415:24419   */\n      dup3\n        /* \"#utility.yul\":24408:24513   */\n      sstore\n        /* \"#utility.yul\":24326:24519   */\n      pop\n        /* \"#utility.yul\":24250:24519   */\n      pop\n      pop\n      pop\n      jump\t// out\n        /* \"#utility.yul\":24525:24598   */\n    tag_320:\n        /* \"#utility.yul\":24570:24573   */\n      0x00\n        /* \"#utility.yul\":24525:24598   */\n      swap1\n      jump\t// out\n        /* \"#utility.yul\":24604:24793   */\n    tag_321:\n        /* \"#utility.yul\":24681:24713   */\n      tag_540\n      tag_320\n      jump\t// in\n    tag_540:\n        /* \"#utility.yul\":24722:24787   */\n      tag_541\n        /* \"#utility.yul\":24780:24786   */\n      dup2\n        /* \"#utility.yul\":24772:24778   */\n      dup5\n        /* \"#utility.yul\":24766:24770   */\n      dup5\n        /* \"#utility.yul\":24722:24787   */\n      tag_319\n      jump\t// in\n    tag_541:\n        /* \"#utility.yul\":24657:24793   */\n      pop\n        /* \"#utility.yul\":24604:24793   */\n      pop\n      pop\n      jump\t// out\n        /* \"#utility.yul\":24799:24985   */\n    tag_322:\n        /* \"#utility.yul\":24859:24979   */\n    tag_543:\n        /* \"#utility.yul\":24876:24879   */\n      dup2\n        /* \"#utility.yul\":24869:24874   */\n      dup2\n        /* \"#utility.yul\":24866:24880   */\n      lt\n        /* \"#utility.yul\":24859:24979   */\n      iszero\n      tag_545\n      jumpi\n        /* \"#utility.yul\":24930:24969   */\n      tag_546\n        /* \"#utility.yul\":24967:24968   */\n      0x00\n        /* \"#utility.yul\":24960:24965   */\n      dup3\n        /* \"#utility.yul\":24930:24969   */\n      tag_321\n      jump\t// in\n    tag_546:\n        /* \"#utility.yul\":24903:24904   */\n      0x01\n        /* \"#utility.yul\":24896:24901   */\n      dup2\n        /* \"#utility.yul\":24892:24905   */\n      add\n        /* \"#utility.yul\":24883:24905   */\n      swap1\n      pop\n        /* \"#utility.yul\":24859:24979   */\n      jump(tag_543)\n    tag_545:\n        /* \"#utility.yul\":24799:24985   */\n      pop\n      pop\n      jump\t// out\n        /* \"#utility.yul\":24991:25534   */\n    tag_323:\n        /* \"#utility.yul\":25092:25094   */\n      0x1f\n        /* \"#utility.yul\":25087:25090   */\n      dup3\n        /* \"#utility.yul\":25084:25095   */\n      gt\n        /* \"#utility.yul\":25081:25527   */\n      iszero\n      tag_548\n      jumpi\n        /* \"#utility.yul\":25126:25164   */\n      tag_549\n        /* \"#utility.yul\":25158:25163   */\n      dup2\n        /* \"#utility.yul\":25126:25164   */\n      tag_312\n      jump\t// in\n    tag_549:\n        /* \"#utility.yul\":25210:25239   */\n      tag_550\n        /* \"#utility.yul\":25228:25238   */\n      dup5\n        /* \"#utility.yul\":25210:25239   */\n      tag_313\n      jump\t// in\n    tag_550:\n        /* \"#utility.yul\":25200:25208   */\n      dup2\n        /* \"#utility.yul\":25196:25240   */\n      add\n        /* \"#utility.yul\":25393:25395   */\n      0x20\n        /* \"#utility.yul\":25381:25391   */\n      dup6\n        /* \"#utility.yul\":25378:25396   */\n      lt\n        /* \"#utility.yul\":25375:25424   */\n      iszero\n      tag_551\n      jumpi\n        /* \"#utility.yul\":25414:25422   */\n      dup2\n        /* \"#utility.yul\":25399:25422   */\n      swap1\n      pop\n        /* \"#utility.yul\":25375:25424   */\n    tag_551:\n        /* \"#utility.yul\":25437:25517   */\n      tag_552\n        /* \"#utility.yul\":25493:25515   */\n      tag_553\n        /* \"#utility.yul\":25511:25514   */\n      dup6\n        /* \"#utility.yul\":25493:25515   */\n      tag_313\n      jump\t// in\n    tag_553:\n        /* \"#utility.yul\":25483:25491   */\n      dup4\n        /* \"#utility.yul\":25479:25516   */\n      add\n        /* \"#utility.yul\":25466:25477   */\n      dup3\n        /* \"#utility.yul\":25437:25517   */\n      tag_322\n      jump\t// in\n    tag_552:\n        /* \"#utility.yul\":25096:25527   */\n      pop\n      pop\n        /* \"#utility.yul\":25081:25527   */\n    tag_548:\n        /* \"#utility.yul\":24991:25534   */\n      pop\n      pop\n      pop\n      jump\t// out\n        /* \"#utility.yul\":25540:25657   */\n    tag_324:\n        /* \"#utility.yul\":25594:25602   */\n      0x00\n        /* \"#utility.yul\":25644:25649   */\n      dup3\n        /* \"#utility.yul\":25638:25642   */\n      dup3\n        /* \"#utility.yul\":25634:25650   */\n      shr\n        /* \"#utility.yul\":25613:25650   */\n      swap1\n      pop\n        /* \"#utility.yul\":25540:25657   */\n      swap3\n      swap2\n      pop\n      pop\n      jump\t// out\n        /* \"#utility.yul\":25663:25832   */\n    tag_325:\n        /* \"#utility.yul\":25707:25713   */\n      0x00\n        /* \"#utility.yul\":25740:25791   */\n      tag_556\n        /* \"#utility.yul\":25788:25789   */\n      0x00\n        /* \"#utility.yul\":25784:25790   */\n      not\n        /* \"#utility.yul\":25776:25781   */\n      dup5\n        /* \"#utility.yul\":25773:25774   */\n      0x08\n        /* \"#utility.yul\":25769:25782   */\n      mul\n        /* \"#utility.yul\":25740:25791   */\n      tag_324\n      jump\t// in\n    tag_556:\n        /* \"#utility.yul\":25736:25792   */\n      not\n        /* \"#utility.yul\":25821:25825   */\n      dup1\n        /* \"#utility.yul\":25815:25819   */\n      dup4\n        /* \"#utility.yul\":25811:25826   */\n      and\n        /* \"#utility.yul\":25801:25826   */\n      swap2\n      pop\n        /* \"#utility.yul\":25714:25832   */\n      pop\n        /* \"#utility.yul\":25663:25832   */\n      swap3\n      swap2\n      pop\n      pop\n      jump\t// out\n        /* \"#utility.yul\":25837:26132   */\n    tag_326:\n        /* \"#utility.yul\":25913:25917   */\n      0x00\n        /* \"#utility.yul\":26059:26088   */\n      tag_558\n        /* \"#utility.yul\":26084:26087   */\n      dup4\n        /* \"#utility.yul\":26078:26082   */\n      dup4\n        /* \"#utility.yul\":26059:26088   */\n      tag_325\n      jump\t// in\n    tag_558:\n        /* \"#utility.yul\":26051:26088   */\n      swap2\n      pop\n        /* \"#utility.yul\":26121:26124   */\n      dup3\n        /* \"#utility.yul\":26118:26119   */\n      0x02\n        /* \"#utility.yul\":26114:26125   */\n      mul\n        /* \"#utility.yul\":26108:26112   */\n      dup3\n        /* \"#utility.yul\":26105:26126   */\n      or\n        /* \"#utility.yul\":26097:26126   */\n      swap1\n      pop\n        /* \"#utility.yul\":25837:26132   */\n      swap3\n      swap2\n      pop\n      pop\n      jump\t// out\n        /* \"#utility.yul\":26137:27532   */\n    tag_224:\n        /* \"#utility.yul\":26254:26291   */\n      tag_560\n        /* \"#utility.yul\":26287:26290   */\n      dup3\n        /* \"#utility.yul\":26254:26291   */\n      tag_272\n      jump\t// in\n    tag_560:\n        /* \"#utility.yul\":26356:26374   */\n      0xffffffffffffffff\n        /* \"#utility.yul\":26348:26354   */\n      dup2\n        /* \"#utility.yul\":26345:26375   */\n      gt\n        /* \"#utility.yul\":26342:26398   */\n      iszero\n      tag_561\n      jumpi\n        /* \"#utility.yul\":26378:26396   */\n      tag_562\n      tag_311\n      jump\t// in\n    tag_562:\n        /* \"#utility.yul\":26342:26398   */\n    tag_561:\n        /* \"#utility.yul\":26422:26460   */\n      tag_563\n        /* \"#utility.yul\":26454:26458   */\n      dup3\n        /* \"#utility.yul\":26448:26459   */\n      sload\n        /* \"#utility.yul\":26422:26460   */\n      tag_119\n      jump\t// in\n    tag_563:\n        /* \"#utility.yul\":26507:26574   */\n      tag_564\n        /* \"#utility.yul\":26567:26573   */\n      dup3\n        /* \"#utility.yul\":26559:26565   */\n      dup3\n        /* \"#utility.yul\":26553:26557   */\n      dup6\n        /* \"#utility.yul\":26507:26574   */\n      tag_323\n      jump\t// in\n    tag_564:\n        /* \"#utility.yul\":26601:26602   */\n      0x00\n        /* \"#utility.yul\":26625:26629   */\n      0x20\n        /* \"#utility.yul\":26612:26629   */\n      swap1\n      pop\n        /* \"#utility.yul\":26657:26659   */\n      0x1f\n        /* \"#utility.yul\":26649:26655   */\n      dup4\n        /* \"#utility.yul\":26646:26660   */\n      gt\n        /* \"#utility.yul\":26674:26675   */\n      0x01\n        /* \"#utility.yul\":26669:27287   */\n      dup2\n      eq\n      tag_566\n      jumpi\n        /* \"#utility.yul\":27331:27332   */\n      0x00\n        /* \"#utility.yul\":27348:27354   */\n      dup5\n        /* \"#utility.yul\":27345:27422   */\n      iszero\n      tag_567\n      jumpi\n        /* \"#utility.yul\":27397:27406   */\n      dup3\n        /* \"#utility.yul\":27392:27395   */\n      dup8\n        /* \"#utility.yul\":27388:27407   */\n      add\n        /* \"#utility.yul\":27382:27408   */\n      mload\n        /* \"#utility.yul\":27373:27408   */\n      swap1\n      pop\n        /* \"#utility.yul\":27345:27422   */\n    tag_567:\n        /* \"#utility.yul\":27448:27515   */\n      tag_568\n        /* \"#utility.yul\":27508:27514   */\n      dup6\n        /* \"#utility.yul\":27501:27506   */\n      dup3\n        /* \"#utility.yul\":27448:27515   */\n      tag_326\n      jump\t// in\n    tag_568:\n        /* \"#utility.yul\":27442:27446   */\n      dup7\n        /* \"#utility.yul\":27435:27516   */\n      sstore\n        /* \"#utility.yul\":27304:27526   */\n      pop\n        /* \"#utility.yul\":26639:27526   */\n      jump(tag_565)\n        /* \"#utility.yul\":26669:27287   */\n    tag_566:\n        /* \"#utility.yul\":26721:26725   */\n      0x1f\n        /* \"#utility.yul\":26717:26726   */\n      not\n        /* \"#utility.yul\":26709:26715   */\n      dup5\n        /* \"#utility.yul\":26705:26727   */\n      and\n        /* \"#utility.yul\":26755:26792   */\n      tag_569\n        /* \"#utility.yul\":26787:26791   */\n      dup7\n        /* \"#utility.yul\":26755:26792   */\n      tag_312\n      jump\t// in\n    tag_569:\n        /* \"#utility.yul\":26814:26815   */\n      0x00\n        /* \"#utility.yul\":26828:27036   */\n    tag_570:\n        /* \"#utility.yul\":26842:26849   */\n      dup3\n        /* \"#utility.yul\":26839:26840   */\n      dup2\n        /* \"#utility.yul\":26836:26850   */\n      lt\n        /* \"#utility.yul\":26828:27036   */\n      iszero\n      tag_572\n      jumpi\n        /* \"#utility.yul\":26921:26930   */\n      dup5\n        /* \"#utility.yul\":26916:26919   */\n      dup10\n        /* \"#utility.yul\":26912:26931   */\n      add\n        /* \"#utility.yul\":26906:26932   */\n      mload\n        /* \"#utility.yul\":26898:26904   */\n      dup3\n        /* \"#utility.yul\":26891:26933   */\n      sstore\n        /* \"#utility.yul\":26972:26973   */\n      0x01\n        /* \"#utility.yul\":26964:26970   */\n      dup3\n        /* \"#utility.yul\":26960:26974   */\n      add\n        /* \"#utility.yul\":26950:26974   */\n      swap2\n      pop\n        /* \"#utility.yul\":27019:27021   */\n      0x20\n        /* \"#utility.yul\":27008:27017   */\n      dup6\n        /* \"#utility.yul\":27004:27022   */\n      add\n        /* \"#utility.yul\":26991:27022   */\n      swap5\n      pop\n        /* \"#utility.yul\":26865:26869   */\n      0x20\n        /* \"#utility.yul\":26862:26863   */\n      dup2\n        /* \"#utility.yul\":26858:26870   */\n      add\n        /* \"#utility.yul\":26853:26870   */\n      swap1\n      pop\n        /* \"#utility.yul\":26828:27036   */\n      jump(tag_570)\n    tag_572:\n        /* \"#utility.yul\":27064:27070   */\n      dup7\n        /* \"#utility.yul\":27055:27062   */\n      dup4\n        /* \"#utility.yul\":27052:27071   */\n      lt\n        /* \"#utility.yul\":27049:27228   */\n      iszero\n      tag_573\n      jumpi\n        /* \"#utility.yul\":27122:27131   */\n      dup5\n        /* \"#utility.yul\":27117:27120   */\n      dup10\n        /* \"#utility.yul\":27113:27132   */\n      add\n        /* \"#utility.yul\":27107:27133   */\n      mload\n        /* \"#utility.yul\":27165:27213   */\n      tag_574\n        /* \"#utility.yul\":27207:27211   */\n      0x1f\n        /* \"#utility.yul\":27199:27205   */\n      dup10\n        /* \"#utility.yul\":27195:27212   */\n      and\n        /* \"#utility.yul\":27184:27193   */\n      dup3\n        /* \"#utility.yul\":27165:27213   */\n      tag_325\n      jump\t// in\n    tag_574:\n        /* \"#utility.yul\":27157:27163   */\n      dup4\n        /* \"#utility.yul\":27150:27214   */\n      sstore\n        /* \"#utility.yul\":27072:27228   */\n      pop\n        /* \"#utility.yul\":27049:27228   */\n    tag_573:\n        /* \"#utility.yul\":27274:27275   */\n      0x01\n        /* \"#utility.yul\":27270:27271   */\n      0x02\n        /* \"#utility.yul\":27262:27268   */\n      dup9\n        /* \"#utility.yul\":27258:27272   */\n      mul\n        /* \"#utility.yul\":27254:27276   */\n      add\n        /* \"#utility.yul\":27248:27252   */\n      dup9\n        /* \"#utility.yul\":27241:27277   */\n      sstore\n        /* \"#utility.yul\":26676:27287   */\n      pop\n      pop\n      pop\n        /* \"#utility.yul\":26639:27526   */\n    tag_565:\n      pop\n        /* \"#utility.yul\":26229:27532   */\n      pop\n      pop\n      pop\n        /* \"#utility.yul\":26137:27532   */\n      pop\n      pop\n      jump\t// out\n        /* \"#utility.yul\":27538:27686   */\n    tag_327:\n        /* \"#utility.yul\":27636:27642   */\n      dup3\n        /* \"#utility.yul\":27631:27634   */\n      dup2\n        /* \"#utility.yul\":27626:27629   */\n      dup4\n        /* \"#utility.yul\":27613:27643   */\n      calldatacopy\n        /* \"#utility.yul\":27677:27678   */\n      0x00\n        /* \"#utility.yul\":27668:27674   */\n      dup4\n        /* \"#utility.yul\":27663:27666   */\n      dup4\n        /* \"#utility.yul\":27659:27675   */\n      add\n        /* \"#utility.yul\":27652:27679   */\n      mstore\n        /* \"#utility.yul\":27538:27686   */\n      pop\n      pop\n      pop\n      jump\t// out\n        /* \"#utility.yul\":27716:28033   */\n    tag_328:\n        /* \"#utility.yul\":27814:27817   */\n      0x00\n        /* \"#utility.yul\":27835:27906   */\n      tag_577\n        /* \"#utility.yul\":27899:27905   */\n      dup4\n        /* \"#utility.yul\":27894:27897   */\n      dup6\n        /* \"#utility.yul\":27835:27906   */\n      tag_273\n      jump\t// in\n    tag_577:\n        /* \"#utility.yul\":27828:27906   */\n      swap4\n      pop\n        /* \"#utility.yul\":27916:27972   */\n      tag_578\n        /* \"#utility.yul\":27965:27971   */\n      dup4\n        /* \"#utility.yul\":27960:27963   */\n      dup6\n        /* \"#utility.yul\":27953:27958   */\n      dup5\n        /* \"#utility.yul\":27916:27972   */\n      tag_327\n      jump\t// in\n    tag_578:\n        /* \"#utility.yul\":27997:28026   */\n      tag_579\n        /* \"#utility.yul\":28019:28025   */\n      dup4\n        /* \"#utility.yul\":27997:28026   */\n      tag_275\n      jump\t// in\n    tag_579:\n        /* \"#utility.yul\":27992:27995   */\n      dup5\n        /* \"#utility.yul\":27988:28027   */\n      add\n        /* \"#utility.yul\":27981:28027   */\n      swap1\n      pop\n        /* \"#utility.yul\":27716:28033   */\n      swap4\n      swap3\n      pop\n      pop\n      pop\n      jump\t// out\n        /* \"#utility.yul\":28039:28593   */\n    tag_230:\n        /* \"#utility.yul\":28220:28224   */\n      0x00\n        /* \"#utility.yul\":28258:28260   */\n      0x40\n        /* \"#utility.yul\":28247:28256   */\n      dup3\n        /* \"#utility.yul\":28243:28261   */\n      add\n        /* \"#utility.yul\":28235:28261   */\n      swap1\n      pop\n        /* \"#utility.yul\":28307:28316   */\n      dup2\n        /* \"#utility.yul\":28301:28305   */\n      dup2\n        /* \"#utility.yul\":28297:28317   */\n      sub\n        /* \"#utility.yul\":28293:28294   */\n      0x00\n        /* \"#utility.yul\":28282:28291   */\n      dup4\n        /* \"#utility.yul\":28278:28295   */\n      add\n        /* \"#utility.yul\":28271:28318   */\n      mstore\n        /* \"#utility.yul\":28335:28423   */\n      tag_581\n        /* \"#utility.yul\":28418:28422   */\n      dup2\n        /* \"#utility.yul\":28409:28415   */\n      dup7\n        /* \"#utility.yul\":28401:28407   */\n      dup9\n        /* \"#utility.yul\":28335:28423   */\n      tag_328\n      jump\t// in\n    tag_581:\n        /* \"#utility.yul\":28327:28423   */\n      swap1\n      pop\n        /* \"#utility.yul\":28470:28479   */\n      dup2\n        /* \"#utility.yul\":28464:28468   */\n      dup2\n        /* \"#utility.yul\":28460:28480   */\n      sub\n        /* \"#utility.yul\":28455:28457   */\n      0x20\n        /* \"#utility.yul\":28444:28453   */\n      dup4\n        /* \"#utility.yul\":28440:28458   */\n      add\n        /* \"#utility.yul\":28433:28481   */\n      mstore\n        /* \"#utility.yul\":28498:28586   */\n      tag_582\n        /* \"#utility.yul\":28581:28585   */\n      dup2\n        /* \"#utility.yul\":28572:28578   */\n      dup5\n        /* \"#utility.yul\":28564:28570   */\n      dup7\n        /* \"#utility.yul\":28498:28586   */\n      tag_328\n      jump\t// in\n    tag_582:\n        /* \"#utility.yul\":28490:28586   */\n      swap1\n      pop\n        /* \"#utility.yul\":28039:28593   */\n      swap6\n      swap5\n      pop\n      pop\n      pop\n      pop\n      pop\n      jump\t// out\n        /* \"#utility.yul\":28599:28779   */\n    tag_239:\n        /* \"#utility.yul\":28647:28724   */\n      0x4e487b7100000000000000000000000000000000000000000000000000000000\n        /* \"#utility.yul\":28644:28645   */\n      0x00\n        /* \"#utility.yul\":28637:28725   */\n      mstore\n        /* \"#utility.yul\":28744:28748   */\n      0x32\n        /* \"#utility.yul\":28741:28742   */\n      0x04\n        /* \"#utility.yul\":28734:28749   */\n      mstore\n        /* \"#utility.yul\":28768:28772   */\n      0x24\n        /* \"#utility.yul\":28765:28766   */\n      0x00\n        /* \"#utility.yul\":28758:28773   */\n      revert\n        /* \"#utility.yul\":28785:28965   */\n    tag_329:\n        /* \"#utility.yul\":28833:28910   */\n      0x4e487b7100000000000000000000000000000000000000000000000000000000\n        /* \"#utility.yul\":28830:28831   */\n      0x00\n        /* \"#utility.yul\":28823:28911   */\n      mstore\n        /* \"#utility.yul\":28930:28934   */\n      0x11\n        /* \"#utility.yul\":28927:28928   */\n      0x04\n        /* \"#utility.yul\":28920:28935   */\n      mstore\n        /* \"#utility.yul\":28954:28958   */\n      0x24\n        /* \"#utility.yul\":28951:28952   */\n      0x00\n        /* \"#utility.yul\":28944:28959   */\n      revert\n        /* \"#utility.yul\":28971:29165   */\n    tag_243:\n        /* \"#utility.yul\":29011:29015   */\n      0x00\n        /* \"#utility.yul\":29031:29051   */\n      tag_586\n        /* \"#utility.yul\":29049:29050   */\n      dup3\n        /* \"#utility.yul\":29031:29051   */\n      tag_268\n      jump\t// in\n    tag_586:\n        /* \"#utility.yul\":29026:29051   */\n      swap2\n      pop\n        /* \"#utility.yul\":29065:29085   */\n      tag_587\n        /* \"#utility.yul\":29083:29084   */\n      dup4\n        /* \"#utility.yul\":29065:29085   */\n      tag_268\n      jump\t// in\n    tag_587:\n        /* \"#utility.yul\":29060:29085   */\n      swap3\n      pop\n        /* \"#utility.yul\":29109:29110   */\n      dup3\n        /* \"#utility.yul\":29106:29107   */\n      dup3\n        /* \"#utility.yul\":29102:29111   */\n      sub\n        /* \"#utility.yul\":29094:29111   */\n      swap1\n      pop\n        /* \"#utility.yul\":29133:29134   */\n      dup2\n        /* \"#utility.yul\":29127:29131   */\n      dup2\n        /* \"#utility.yul\":29124:29135   */\n      gt\n        /* \"#utility.yul\":29121:29158   */\n      iszero\n      tag_588\n      jumpi\n        /* \"#utility.yul\":29138:29156   */\n      tag_589\n      tag_329\n      jump\t// in\n    tag_589:\n        /* \"#utility.yul\":29121:29158   */\n    tag_588:\n        /* \"#utility.yul\":28971:29165   */\n      swap3\n      swap2\n      pop\n      pop\n      jump\t// out\n        /* \"#utility.yul\":29171:29351   */\n    tag_252:\n        /* \"#utility.yul\":29219:29296   */\n      0x4e487b7100000000000000000000000000000000000000000000000000000000\n        /* \"#utility.yul\":29216:29217   */\n      0x00\n        /* \"#utility.yul\":29209:29297   */\n      mstore\n        /* \"#utility.yul\":29316:29320   */\n      0x31\n        /* \"#utility.yul\":29313:29314   */\n      0x04\n        /* \"#utility.yul\":29306:29321   */\n      mstore\n        /* \"#utility.yul\":29340:29344   */\n      0x24\n        /* \"#utility.yul\":29337:29338   */\n      0x00\n        /* \"#utility.yul\":29330:29345   */\n      revert\n\n    auxdata: 0xa26469706673582212204d3598ce89c70d740971fa7da5f507dd92b68a469020502ec0d312cd39d9a12864736f6c634300081a0033\n}\n",
				"bytecode": {
					"linkReferences": {},
					"object": "6080604052348015600e575f80fd5b50335f806101000a81548173ffffffffffffffffffffffffffffffffffffffff021916908373ffffffffffffffffffffffffffffffffffffffff160217905550600160025f3373ffffffffffffffffffffffffffffffffffffffff1673ffffffffffffffffffffffffffffffffffffffff1681526020019081526020015f205f6101000a81548160ff0219169083151502179055503373ffffffffffffffffffffffffffffffffffffffff167fae9c2c6481964847714ce58f65a7f6dcc41d0d8394449bacdf161b5920c4744a60405160405180910390a2613368806100f35f395ff3fe608060405234801561000f575f80fd5b5060043610610114575f3560e01c80638a355a57116100a0578063c41dc2671161006f578063c41dc2671461032e578063d624fdb61461035e578063d9b18f041461037a578063df017a04146103ac578063eece635a146103c857610114565b80638a355a571461028f5780638da5cb5b146102ab57806398b99021146102c9578063a87430ba146102f957610114565b806346e2577a116100e757806346e2577a146101d85780634d1a687d146101f45780634dc92885146102275780635c593d7414610243578063726b27631461025f57610114565b80630a7b31ab146101185780631e72142914610148578063266e9a7c14610178578063321dbe17146101a8575b5f80fd5b610132600480360381019061012d9190612559565b6103f8565b60405161013f919061263b565b60405180910390f35b610162600480360381019061015d919061268e565b6104c0565b60405161016f91906126db565b60405180910390f35b610192600480360381019061018d919061268e565b610508565b60405161019f91906126db565b60405180910390f35b6101c260048036038101906101bd9190612559565b610550565b6040516101cf919061263b565b60405180910390f35b6101f260048036038101906101ed9190612559565b610618565b005b61020e60048036038101906102099190612559565b6107ae565b60405161021e94939291906127d7565b60405180910390f35b610241600480360381019061023c9190612559565b6109f5565b005b61025d60048036038101906102589190612559565b610d79565b005b61027960048036038101906102749190612559565b6111a9565b6040516102869190612842565b60405180910390f35b6102a960048036038101906102a49190612559565b6111c6565b005b6102b3611376565b6040516102c091906126db565b60405180910390f35b6102e360048036038101906102de9190612559565b611399565b6040516102f0919061263b565b60405180910390f35b610313600480360381019061030e9190612559565b611461565b6040516103259695949392919061286a565b60405180910390f35b610348600480360381019061034391906128d7565b6115de565b6040516103559190612842565b60405180910390f35b61037860048036038101906103739190612559565b611608565b005b610394600480360381019061038f9190612559565b611ba0565b6040516103a393929190612915565b60405180910390f35b6103c660048036038101906103c191906129b9565b611e39565b005b6103e260048036038101906103dd919061268e565b612328565b6040516103ef91906126db565b60405180910390f35b606060035f8373ffffffffffffffffffffffffffffffffffffffff1673ffffffffffffffffffffffffffffffffffffffff1681526020019081526020015f208054806020026020016040519081016040528092919081815260200182805480156104b457602002820191905f5260205f20905b815f9054906101000a900473ffffffffffffffffffffffffffffffffffffffff1673ffffffffffffffffffffffffffffffffffffffff168152602001906001019080831161046b575b50505050509050919050565b6004602052815f5260405f2081815481106104d9575f80fd5b905f5260205f20015f915091509054906101000a900473ffffffffffffffffffffffffffffffffffffffff1681565b6003602052815f5260405f208181548110610521575f80fd5b905f5260205f20015f915091509054906101000a900473ffffffffffffffffffffffffffffffffffffffff1681565b606060045f8373ffffffffffffffffffffffffffffffffffffffff1673ffffffffffffffffffffffffffffffffffffffff1681526020019081526020015f2080548060200260200160405190810160405280929190818152602001828054801561060c57602002820191905f5260205f20905b815f9054906101000a900473ffffffffffffffffffffffffffffffffffffffff1673ffffffffffffffffffffffffffffffffffffffff16815260200190600101908083116105c3575b50505050509050919050565b5f8054906101000a900473ffffffffffffffffffffffffffffffffffffffff1673ffffffffffffffffffffffffffffffffffffffff163373ffffffffffffffffffffffffffffffffffffffff16146106a5576040517f08c379a000000000000000000000000000000000000000000000000000000000815260040161069c90612a94565b60405180910390fd5b5f73ffffffffffffffffffffffffffffffffffffffff168173ffffffffffffffffffffffffffffffffffffffff1603610713576040517f08c379a000000000000000000000000000000000000000000000000000000000815260040161070a90612afc565b60405180910390fd5b600160025f8373ffffffffffffffffffffffffffffffffffffffff1673ffffffffffffffffffffffffffffffffffffffff1681526020019081526020015f205f6101000a81548160ff0219169083151502179055508073ffffffffffffffffffffffffffffffffffffffff167fae9c2c6481964847714ce58f65a7f6dcc41d0d8394449bacdf161b5920c4744a60405160405180910390a250565b6060805f805f60015f8773ffffffffffffffffffffffffffffffffffffffff1673ffffffffffffffffffffffffffffffffffffffff1681526020019081526020015f206040518060c00160405290815f8201805461080b90612b47565b80601f016020809104026020016040519081016040528092919081815260200182805461083790612b47565b80156108825780601f1061085957610100808354040283529160200191610882565b820191905f5260205f20905b81548152906001019060200180831161086557829003601f168201915b5050505050815260200160018201805461089b90612b47565b80601f01602080910402602001604051908101604052809291908181526020018280546108c790612b47565b80156109125780601f106108e957610100808354040283529160200191610912565b820191905f5260205f20905b8154815290600101906020018083116108f557829003601f168201915b50505050508152602001600282015f9054906101000a900473ffffffffffffffffffffffffffffffffffffffff1673ffffffffffffffffffffffffffffffffffffffff1673ffffffffffffffffffffffffffffffffffffffff1681526020016002820160149054906101000a900460ff161515151581526020016002820160159054906101000a900460ff1660028111156109b0576109af612764565b5b60028111156109c2576109c1612764565b5b81526020016003820154815250509050805f01518160200151826040015183608001519450945094509450509193509193565b60025f3373ffffffffffffffffffffffffffffffffffffffff1673ffffffffffffffffffffffffffffffffffffffff1681526020019081526020015f205f9054906101000a900460ff16610a7e576040517f08c379a0000000000000000000000000000000000000000000000000000000008152600401610a7590612bc1565b60405180910390fd5b60065f3373ffffffffffffffffffffffffffffffffffffffff1673ffffffffffffffffffffffffffffffffffffffff1681526020019081526020015f205f8273ffffffffffffffffffffffffffffffffffffffff1673ffffffffffffffffffffffffffffffffffffffff1681526020019081526020015f205f9054906101000a900460ff16610b42576040517f08c379a0000000000000000000000000000000000000000000000000000000008152600401610b3990612c4f565b60405180910390fd5b610b8860045f3373ffffffffffffffffffffffffffffffffffffffff1673ffffffffffffffffffffffffffffffffffffffff1681526020019081526020015f2082612370565b505f60065f3373ffffffffffffffffffffffffffffffffffffffff1673ffffffffffffffffffffffffffffffffffffffff1681526020019081526020015f205f8373ffffffffffffffffffffffffffffffffffffffff1673ffffffffffffffffffffffffffffffffffffffff1681526020019081526020015f205f6101000a81548160ff02191690831515021790555060055f3373ffffffffffffffffffffffffffffffffffffffff1673ffffffffffffffffffffffffffffffffffffffff1681526020019081526020015f2081908060018154018082558091505060019003905f5260205f20015f9091909190916101000a81548173ffffffffffffffffffffffffffffffffffffffff021916908373ffffffffffffffffffffffffffffffffffffffff160217905550600260015f8373ffffffffffffffffffffffffffffffffffffffff1673ffffffffffffffffffffffffffffffffffffffff1681526020019081526020015f2060020160156101000a81548160ff02191690836002811115610d1757610d16612764565b5b02179055503373ffffffffffffffffffffffffffffffffffffffff168173ffffffffffffffffffffffffffffffffffffffff167f1fd08c43ff018b384f5037a68179f90e0808a91887eeb0c991bc72dbc96a53fd60405160405180910390a350565b60015f3373ffffffffffffffffffffffffffffffffffffffff1673ffffffffffffffffffffffffffffffffffffffff1681526020019081526020015f2060020160149054906101000a900460ff16610e06576040517f08c379a0000000000000000000000000000000000000000000000000000000008152600401610dfd90612cb7565b60405180910390fd5b60025f8273ffffffffffffffffffffffffffffffffffffffff1673ffffffffffffffffffffffffffffffffffffffff1681526020019081526020015f205f9054906101000a900460ff16610e8f576040517f08c379a0000000000000000000000000000000000000000000000000000000008152600401610e8690612d1f565b60405180910390fd5b60015f3373ffffffffffffffffffffffffffffffffffffffff1673ffffffffffffffffffffffffffffffffffffffff1681526020019081526020015f206002015f9054906101000a900473ffffffffffffffffffffffffffffffffffffffff1673ffffffffffffffffffffffffffffffffffffffff168173ffffffffffffffffffffffffffffffffffffffff1603610f5c576040517f08c379a0000000000000000000000000000000000000000000000000000000008152600401610f5390612d87565b60405180910390fd5b60065f8273ffffffffffffffffffffffffffffffffffffffff1673ffffffffffffffffffffffffffffffffffffffff1681526020019081526020015f205f3373ffffffffffffffffffffffffffffffffffffffff1673ffffffffffffffffffffffffffffffffffffffff1681526020019081526020015f205f9054906101000a900460ff1615611021576040517f08c379a000000000000000000000000000000000000000000000000000000000815260040161101890612def565b60405180910390fd5b60045f8273ffffffffffffffffffffffffffffffffffffffff1673ffffffffffffffffffffffffffffffffffffffff1681526020019081526020015f2033908060018154018082558091505060019003905f5260205f20015f9091909190916101000a81548173ffffffffffffffffffffffffffffffffffffffff021916908373ffffffffffffffffffffffffffffffffffffffff160217905550600160065f8373ffffffffffffffffffffffffffffffffffffffff1673ffffffffffffffffffffffffffffffffffffffff1681526020019081526020015f205f3373ffffffffffffffffffffffffffffffffffffffff1673ffffffffffffffffffffffffffffffffffffffff1681526020019081526020015f205f6101000a81548160ff0219169083151502179055508073ffffffffffffffffffffffffffffffffffffffff163373ffffffffffffffffffffffffffffffffffffffff167fa222276c388157fdc7ad53e39fb6ac4d993fad09b12db3cce6cb691657c04d3a60405160405180910390a350565b6002602052805f5260405f205f915054906101000a900460ff1681565b5f8054906101000a900473ffffffffffffffffffffffffffffffffffffffff1673ffffffffffffffffffffffffffffffffffffffff163373ffffffffffffffffffffffffffffffffffffffff1614611253576040517f08c379a000000000000000000000000000000000000000000000000000000000815260040161124a90612a94565b60405180910390fd5b60025f8273ffffffffffffffffffffffffffffffffffffffff1673ffffffffffffffffffffffffffffffffffffffff1681526020019081526020015f205f9054906101000a900460ff166112dc576040517f08c379a00000000000000000000000000000000000000000000000000000000081526004016112d390612e57565b60405180910390fd5b5f60025f8373ffffffffffffffffffffffffffffffffffffffff1673ffffffffffffffffffffffffffffffffffffffff1681526020019081526020015f205f6101000a81548160ff0219169083151502179055508073ffffffffffffffffffffffffffffffffffffffff167f1589f8555933761a3cff8aa925061be3b46e2dd43f621322ab611d300f62b1d960405160405180910390a250565b5f8054906101000a900473ffffffffffffffffffffffffffffffffffffffff1681565b606060055f8373ffffffffffffffffffffffffffffffffffffffff1673ffffffffffffffffffffffffffffffffffffffff1681526020019081526020015f2080548060200260200160405190810160405280929190818152602001828054801561145557602002820191905f5260205f20905b815f9054906101000a900473ffffffffffffffffffffffffffffffffffffffff1673ffffffffffffffffffffffffffffffffffffffff168152602001906001019080831161140c575b50505050509050919050565b6001602052805f5260405f205f91509050805f01805461148090612b47565b80601f01602080910402602001604051908101604052809291908181526020018280546114ac90612b47565b80156114f75780601f106114ce576101008083540402835291602001916114f7565b820191905f5260205f20905b8154815290600101906020018083116114da57829003601f168201915b50505050509080600101805461150c90612b47565b80601f016020809104026020016040519081016040528092919081815260200182805461153890612b47565b80156115835780601f1061155a57610100808354040283529160200191611583565b820191905f5260205f20905b81548152906001019060200180831161156657829003601f168201915b505050505090806002015f9054906101000a900473ffffffffffffffffffffffffffffffffffffffff16908060020160149054906101000a900460ff16908060020160159054906101000a900460ff16908060030154905086565b6006602052815f5260405f20602052805f5260405f205f915091509054906101000a900460ff1681565b60025f3373ffffffffffffffffffffffffffffffffffffffff1673ffffffffffffffffffffffffffffffffffffffff1681526020019081526020015f205f9054906101000a900460ff16611691576040517f08c379a000000000000000000000000000000000000000000000000000000000815260040161168890612bc1565b60405180910390fd5b60065f3373ffffffffffffffffffffffffffffffffffffffff1673ffffffffffffffffffffffffffffffffffffffff1681526020019081526020015f205f8273ffffffffffffffffffffffffffffffffffffffff1673ffffffffffffffffffffffffffffffffffffffff1681526020019081526020015f205f9054906101000a900460ff16611755576040517f08c379a000000000000000000000000000000000000000000000000000000000815260040161174c90612c4f565b60405180910390fd5b61179b60045f3373ffffffffffffffffffffffffffffffffffffffff1673ffffffffffffffffffffffffffffffffffffffff1681526020019081526020015f2082612370565b505f60065f3373ffffffffffffffffffffffffffffffffffffffff1673ffffffffffffffffffffffffffffffffffffffff1681526020019081526020015f205f8373ffffffffffffffffffffffffffffffffffffffff1673ffffffffffffffffffffffffffffffffffffffff1681526020019081526020015f205f6101000a81548160ff0219169083151502179055505f60015f8373ffffffffffffffffffffffffffffffffffffffff1673ffffffffffffffffffffffffffffffffffffffff1681526020019081526020015f206002015f9054906101000a900473ffffffffffffffffffffffffffffffffffffffff1690505f73ffffffffffffffffffffffffffffffffffffffff168173ffffffffffffffffffffffffffffffffffffffff16141580156118f657503373ffffffffffffffffffffffffffffffffffffffff168173ffffffffffffffffffffffffffffffffffffffff1614155b156119b45761194160035f8373ffffffffffffffffffffffffffffffffffffffff1673ffffffffffffffffffffffffffffffffffffffff1681526020019081526020015f2083612370565b503373ffffffffffffffffffffffffffffffffffffffff168173ffffffffffffffffffffffffffffffffffffffff168373ffffffffffffffffffffffffffffffffffffffff167f055c82a6b32b2e2dea7f4e2a04b12a041302f02402b487929279529d0614284960405160405180910390a45b60035f3373ffffffffffffffffffffffffffffffffffffffff1673ffffffffffffffffffffffffffffffffffffffff1681526020019081526020015f2082908060018154018082558091505060019003905f5260205f20015f9091909190916101000a81548173ffffffffffffffffffffffffffffffffffffffff021916908373ffffffffffffffffffffffffffffffffffffffff1602179055503360015f8473ffffffffffffffffffffffffffffffffffffffff1673ffffffffffffffffffffffffffffffffffffffff1681526020019081526020015f206002015f6101000a81548173ffffffffffffffffffffffffffffffffffffffff021916908373ffffffffffffffffffffffffffffffffffffffff1602179055506001805f8473ffffffffffffffffffffffffffffffffffffffff1673ffffffffffffffffffffffffffffffffffffffff1681526020019081526020015f2060020160156101000a81548160ff02191690836002811115611b3057611b2f612764565b5b02179055503373ffffffffffffffffffffffffffffffffffffffff168273ffffffffffffffffffffffffffffffffffffffff167f71594b34a69973da9bff6f72cc0aad2c51069b6b8e9c70c0648b58d10d7bd84b4342604051611b94929190612e75565b60405180910390a35050565b6060805f8373ffffffffffffffffffffffffffffffffffffffff163373ffffffffffffffffffffffffffffffffffffffff167f77062e8f0e8e0eda223a7e9844e2eac2a5cddcfa57a93c432300daa0f3e20f2c60405160405180910390a35f60015f8673ffffffffffffffffffffffffffffffffffffffff1673ffffffffffffffffffffffffffffffffffffffff1681526020019081526020015f206040518060c00160405290815f82018054611c5690612b47565b80601f0160208091040260200160405190810160405280929190818152602001828054611c8290612b47565b8015611ccd5780601f10611ca457610100808354040283529160200191611ccd565b820191905f5260205f20905b815481529060010190602001808311611cb057829003601f168201915b50505050508152602001600182018054611ce690612b47565b80601f0160208091040260200160405190810160405280929190818152602001828054611d1290612b47565b8015611d5d5780601f10611d3457610100808354040283529160200191611d5d565b820191905f5260205f20905b815481529060010190602001808311611d4057829003601f168201915b50505050508152602001600282015f9054906101000a900473ffffffffffffffffffffffffffffffffffffffff1673ffffffffffffffffffffffffffffffffffffffff1673ffffffffffffffffffffffffffffffffffffffff1681526020016002820160149054906101000a900460ff161515151581526020016002820160159054906101000a900460ff166002811115611dfb57611dfa612764565b5b6002811115611e0d57611e0c612764565b5b81526020016003820154815250509050805f015181602001518260400151935093509350509193909250565b5f85859050118015611e4d57505f83839050115b611e8c576040517f08c379a0000000000000000000000000000000000000000000000000000000008152600401611e8390612ee6565b60405180910390fd5b60015f3373ffffffffffffffffffffffffffffffffffffffff1673ffffffffffffffffffffffffffffffffffffffff1681526020019081526020015f2060020160149054906101000a900460ff1615611f1a576040517f08c379a0000000000000000000000000000000000000000000000000000000008152600401611f1190612f4e565b60405180910390fd5b60025f8273ffffffffffffffffffffffffffffffffffffffff1673ffffffffffffffffffffffffffffffffffffffff1681526020019081526020015f205f9054906101000a900460ff16611fa3576040517f08c379a0000000000000000000000000000000000000000000000000000000008152600401611f9a90612d1f565b60405180910390fd5b6040518060c0016040528086868080601f0160208091040260200160405190810160405280939291908181526020018383808284375f81840152601f19601f82011690508083019250505050505050815260200184848080601f0160208091040260200160405190810160405280939291908181526020018383808284375f81840152601f19601f8201169050808301925050505050505081526020018273ffffffffffffffffffffffffffffffffffffffff1681526020016001151581526020015f600281111561207857612077612764565b5b81526020014281525060015f3373ffffffffffffffffffffffffffffffffffffffff1673ffffffffffffffffffffffffffffffffffffffff1681526020019081526020015f205f820151815f0190816120d19190613136565b5060208201518160010190816120e79190613136565b506040820151816002015f6101000a81548173ffffffffffffffffffffffffffffffffffffffff021916908373ffffffffffffffffffffffffffffffffffffffff16021790555060608201518160020160146101000a81548160ff02191690831515021790555060808201518160020160156101000a81548160ff0219169083600281111561217957612178612764565b5b021790555060a0820151816003015590505060045f8273ffffffffffffffffffffffffffffffffffffffff1673ffffffffffffffffffffffffffffffffffffffff1681526020019081526020015f2033908060018154018082558091505060019003905f5260205f20015f9091909190916101000a81548173ffffffffffffffffffffffffffffffffffffffff021916908373ffffffffffffffffffffffffffffffffffffffff160217905550600160065f8373ffffffffffffffffffffffffffffffffffffffff1673ffffffffffffffffffffffffffffffffffffffff1681526020019081526020015f205f3373ffffffffffffffffffffffffffffffffffffffff1673ffffffffffffffffffffffffffffffffffffffff1681526020019081526020015f205f6101000a81548160ff0219169083151502179055508073ffffffffffffffffffffffffffffffffffffffff163373ffffffffffffffffffffffffffffffffffffffff167f90935b2e8ea2a16f5cb7d5b4437f4637e6824afa100ee9b42a9647cde7316f6387878787604051612319949392919061323f565b60405180910390a35050505050565b6005602052815f5260405f208181548110612341575f80fd5b905f5260205f20015f915091509054906101000a900473ffffffffffffffffffffffffffffffffffffffff1681565b5f805f90505b83805490508110156124ec578273ffffffffffffffffffffffffffffffffffffffff168482815481106123ac576123ab613278565b5b905f5260205f20015f9054906101000a900473ffffffffffffffffffffffffffffffffffffffff1673ffffffffffffffffffffffffffffffffffffffff16036124df57836001858054905061240191906132d2565b8154811061241257612411613278565b5b905f5260205f20015f9054906101000a900473ffffffffffffffffffffffffffffffffffffffff1684828154811061244d5761244c613278565b5b905f5260205f20015f6101000a81548173ffffffffffffffffffffffffffffffffffffffff021916908373ffffffffffffffffffffffffffffffffffffffff160217905550838054806124a3576124a2613305565b5b600190038181905f5260205f20015f6101000a81549073ffffffffffffffffffffffffffffffffffffffff0219169055905560019150506124f1565b8080600101915050612376565b505f90505b92915050565b5f80fd5b5f80fd5b5f73ffffffffffffffffffffffffffffffffffffffff82169050919050565b5f612528826124ff565b9050919050565b6125388161251e565b8114612542575f80fd5b50565b5f813590506125538161252f565b92915050565b5f6020828403121561256e5761256d6124f7565b5b5f61257b84828501612545565b91505092915050565b5f81519050919050565b5f82825260208201905092915050565b5f819050602082019050919050565b6125b68161251e565b82525050565b5f6125c783836125ad565b60208301905092915050565b5f602082019050919050565b5f6125e982612584565b6125f3818561258e565b93506125fe8361259e565b805f5b8381101561262e57815161261588826125bc565b9750612620836125d3565b925050600181019050612601565b5085935050505092915050565b5f6020820190508181035f83015261265381846125df565b905092915050565b5f819050919050565b61266d8161265b565b8114612677575f80fd5b50565b5f8135905061268881612664565b92915050565b5f80604083850312156126a4576126a36124f7565b5b5f6126b185828601612545565b92505060206126c28582860161267a565b9150509250929050565b6126d58161251e565b82525050565b5f6020820190506126ee5f8301846126cc565b92915050565b5f81519050919050565b5f82825260208201905092915050565b8281835e5f83830152505050565b5f601f19601f8301169050919050565b5f612736826126f4565b61274081856126fe565b935061275081856020860161270e565b6127598161271c565b840191505092915050565b7f4e487b71000000000000000000000000000000000000000000000000000000005f52602160045260245ffd5b600381106127a2576127a1612764565b5b50565b5f8190506127b282612791565b919050565b5f6127c1826127a5565b9050919050565b6127d1816127b7565b82525050565b5f6080820190508181035f8301526127ef818761272c565b90508181036020830152612803818661272c565b905061281260408301856126cc565b61281f60608301846127c8565b95945050505050565b5f8115159050919050565b61283c81612828565b82525050565b5f6020820190506128555f830184612833565b92915050565b6128648161265b565b82525050565b5f60c0820190508181035f830152612882818961272c565b90508181036020830152612896818861272c565b90506128a560408301876126cc565b6128b26060830186612833565b6128bf60808301856127c8565b6128cc60a083018461285b565b979650505050505050565b5f80604083850312156128ed576128ec6124f7565b5b5f6128fa85828601612545565b925050602061290b85828601612545565b9150509250929050565b5f6060820190508181035f83015261292d818661272c565b90508181036020830152612941818561272c565b905061295060408301846126cc565b949350505050565b5f80fd5b5f80fd5b5f80fd5b5f8083601f84011261297957612978612958565b5b8235905067ffffffffffffffff8111156129965761299561295c565b5b6020830191508360018202830111156129b2576129b1612960565b5b9250929050565b5f805f805f606086880312156129d2576129d16124f7565b5b5f86013567ffffffffffffffff8111156129ef576129ee6124fb565b5b6129fb88828901612964565b9550955050602086013567ffffffffffffffff811115612a1e57612a1d6124fb565b5b612a2a88828901612964565b93509350506040612a3d88828901612545565b9150509295509295909350565b7f4e6f7420636f6e7472616374206f776e657200000000000000000000000000005f82015250565b5f612a7e6012836126fe565b9150612a8982612a4a565b602082019050919050565b5f6020820190508181035f830152612aab81612a72565b9050919050565b7f496e76616c69642070726f7669646572206164647265737300000000000000005f82015250565b5f612ae66018836126fe565b9150612af182612ab2565b602082019050919050565b5f6020820190508181035f830152612b1381612ada565b9050919050565b7f4e487b71000000000000000000000000000000000000000000000000000000005f52602260045260245ffd5b5f6002820490506001821680612b5e57607f821691505b602082108103612b7157612b70612b1a565b5b50919050565b7f4e6f7420612072656769737465726564206761732070726f76696465720000005f82015250565b5f612bab601d836126fe565b9150612bb682612b77565b602082019050919050565b5f6020820190508181035f830152612bd881612b9f565b9050919050565b7f5573657220646964206e6f74206170706c7920746f20746869732070726f76695f8201527f6465720000000000000000000000000000000000000000000000000000000000602082015250565b5f612c396023836126fe565b9150612c4482612bdf565b604082019050919050565b5f6020820190508181035f830152612c6681612c2d565b9050919050565b7f4b5943206e6f74207375626d69747465640000000000000000000000000000005f82015250565b5f612ca16011836126fe565b9150612cac82612c6d565b602082019050919050565b5f6020820190508181035f830152612cce81612c95565b9050919050565b7f496e76616c69642070726f7669646572000000000000000000000000000000005f82015250565b5f612d096010836126fe565b9150612d1482612cd5565b602082019050919050565b5f6020820190508181035f830152612d3681612cfd565b9050919050565b7f416c7265616479207769746820746869732070726f76696465720000000000005f82015250565b5f612d71601a836126fe565b9150612d7c82612d3d565b602082019050919050565b5f6020820190508181035f830152612d9e81612d65565b9050919050565b7f416c7265616479207265717565737465640000000000000000000000000000005f82015250565b5f612dd96011836126fe565b9150612de482612da5565b602082019050919050565b5f6020820190508181035f830152612e0681612dcd565b9050919050565b7f50726f7669646572206e6f7420726567697374657265640000000000000000005f82015250565b5f612e416017836126fe565b9150612e4c82612e0d565b602082019050919050565b5f6020820190508181035f830152612e6e81612e35565b9050919050565b5f604082019050612e885f83018561285b565b612e95602083018461285b565b9392505050565b7f4950465320686173682063616e6e6f7420626520656d707479000000000000005f82015250565b5f612ed06019836126fe565b9150612edb82612e9c565b602082019050919050565b5f6020820190508181035f830152612efd81612ec4565b9050919050565b7f4b594320616c7265616479207375626d697474656400000000000000000000005f82015250565b5f612f386015836126fe565b9150612f4382612f04565b602082019050919050565b5f6020820190508181035f830152612f6581612f2c565b9050919050565b7f4e487b71000000000000000000000000000000000000000000000000000000005f52604160045260245ffd5b5f819050815f5260205f209050919050565b5f6020601f8301049050919050565b5f82821b905092915050565b5f60088302612ff57fffffffffffffffffffffffffffffffffffffffffffffffffffffffffffffffff82612fba565b612fff8683612fba565b95508019841693508086168417925050509392505050565b5f819050919050565b5f61303a6130356130308461265b565b613017565b61265b565b9050919050565b5f819050919050565b61305383613020565b61306761305f82613041565b848454612fc6565b825550505050565b5f90565b61307b61306f565b61308681848461304a565b505050565b5b818110156130a95761309e5f82613073565b60018101905061308c565b5050565b601f8211156130ee576130bf81612f99565b6130c884612fab565b810160208510156130d7578190505b6130eb6130e385612fab565b83018261308b565b50505b505050565b5f82821c905092915050565b5f61310e5f19846008026130f3565b1980831691505092915050565b5f61312683836130ff565b9150826002028217905092915050565b61313f826126f4565b67ffffffffffffffff81111561315857613157612f6c565b5b6131628254612b47565b61316d8282856130ad565b5f60209050601f83116001811461319e575f841561318c578287015190505b613196858261311b565b8655506131fd565b601f1984166131ac86612f99565b5f5b828110156131d3578489015182556001820191506020850194506020810190506131ae565b868310156131f057848901516131ec601f8916826130ff565b8355505b6001600288020188555050505b505050505050565b828183375f83830152505050565b5f61321e83856126fe565b935061322b838584613205565b6132348361271c565b840190509392505050565b5f6040820190508181035f830152613258818688613213565b9050818103602083015261326d818486613213565b905095945050505050565b7f4e487b71000000000000000000000000000000000000000000000000000000005f52603260045260245ffd5b7f4e487b71000000000000000000000000000000000000000000000000000000005f52601160045260245ffd5b5f6132dc8261265b565b91506132e78361265b565b92508282039050818111156132ff576132fe6132a5565b5b92915050565b7f4e487b71000000000000000000000000000000000000000000000000000000005f52603160045260245ffdfea26469706673582212204d3598ce89c70d740971fa7da5f507dd92b68a469020502ec0d312cd39d9a12864736f6c634300081a0033",
					"opcodes": "PUSH1 0x80 PUSH1 0x40 MSTORE CALLVALUE DUP1 ISZERO PUSH1 0xE JUMPI PUSH0 DUP1 REVERT JUMPDEST POP CALLER PUSH0 DUP1 PUSH2 0x100 EXP DUP2 SLOAD DUP2 PUSH20 0xFFFFFFFFFFFFFFFFFFFFFFFFFFFFFFFFFFFFFFFF MUL NOT AND SWAP1 DUP4 PUSH20 0xFFFFFFFFFFFFFFFFFFFFFFFFFFFFFFFFFFFFFFFF AND MUL OR SWAP1 SSTORE POP PUSH1 0x1 PUSH1 0x2 PUSH0 CALLER PUSH20 0xFFFFFFFFFFFFFFFFFFFFFFFFFFFFFFFFFFFFFFFF AND PUSH20 0xFFFFFFFFFFFFFFFFFFFFFFFFFFFFFFFFFFFFFFFF AND DUP2 MSTORE PUSH1 0x20 ADD SWAP1 DUP2 MSTORE PUSH1 0x20 ADD PUSH0 KECCAK256 PUSH0 PUSH2 0x100 EXP DUP2 SLOAD DUP2 PUSH1 0xFF MUL NOT AND SWAP1 DUP4 ISZERO ISZERO MUL OR SWAP1 SSTORE POP CALLER PUSH20 0xFFFFFFFFFFFFFFFFFFFFFFFFFFFFFFFFFFFFFFFF AND PUSH32 0xAE9C2C6481964847714CE58F65A7F6DCC41D0D8394449BACDF161B5920C4744A PUSH1 0x40 MLOAD PUSH1 0x40 MLOAD DUP1 SWAP2 SUB SWAP1 LOG2 PUSH2 0x3368 DUP1 PUSH2 0xF3 PUSH0 CODECOPY PUSH0 RETURN INVALID PUSH1 0x80 PUSH1 0x40 MSTORE CALLVALUE DUP1 ISZERO PUSH2 0xF JUMPI PUSH0 DUP1 REVERT JUMPDEST POP PUSH1 0x4 CALLDATASIZE LT PUSH2 0x114 JUMPI PUSH0 CALLDATALOAD PUSH1 0xE0 SHR DUP1 PUSH4 0x8A355A57 GT PUSH2 0xA0 JUMPI DUP1 PUSH4 0xC41DC267 GT PUSH2 0x6F JUMPI DUP1 PUSH4 0xC41DC267 EQ PUSH2 0x32E JUMPI DUP1 PUSH4 0xD624FDB6 EQ PUSH2 0x35E JUMPI DUP1 PUSH4 0xD9B18F04 EQ PUSH2 0x37A JUMPI DUP1 PUSH4 0xDF017A04 EQ PUSH2 0x3AC JUMPI DUP1 PUSH4 0xEECE635A EQ PUSH2 0x3C8 JUMPI PUSH2 0x114 JUMP JUMPDEST DUP1 PUSH4 0x8A355A57 EQ PUSH2 0x28F JUMPI DUP1 PUSH4 0x8DA5CB5B EQ PUSH2 0x2AB JUMPI DUP1 PUSH4 0x98B99021 EQ PUSH2 0x2C9 JUMPI DUP1 PUSH4 0xA87430BA EQ PUSH2 0x2F9 JUMPI PUSH2 0x114 JUMP JUMPDEST DUP1 PUSH4 0x46E2577A GT PUSH2 0xE7 JUMPI DUP1 PUSH4 0x46E2577A EQ PUSH2 0x1D8 JUMPI DUP1 PUSH4 0x4D1A687D EQ PUSH2 0x1F4 JUMPI DUP1 PUSH4 0x4DC92885 EQ PUSH2 0x227 JUMPI DUP1 PUSH4 0x5C593D74 EQ PUSH2 0x243 JUMPI DUP1 PUSH4 0x726B2763 EQ PUSH2 0x25F JUMPI PUSH2 0x114 JUMP JUMPDEST DUP1 PUSH4 0xA7B31AB EQ PUSH2 0x118 JUMPI DUP1 PUSH4 0x1E721429 EQ PUSH2 0x148 JUMPI DUP1 PUSH4 0x266E9A7C EQ PUSH2 0x178 JUMPI DUP1 PUSH4 0x321DBE17 EQ PUSH2 0x1A8 JUMPI JUMPDEST PUSH0 DUP1 REVERT JUMPDEST PUSH2 0x132 PUSH1 0x4 DUP1 CALLDATASIZE SUB DUP2 ADD SWAP1 PUSH2 0x12D SWAP2 SWAP1 PUSH2 0x2559 JUMP JUMPDEST PUSH2 0x3F8 JUMP JUMPDEST PUSH1 0x40 MLOAD PUSH2 0x13F SWAP2 SWAP1 PUSH2 0x263B JUMP JUMPDEST PUSH1 0x40 MLOAD DUP1 SWAP2 SUB SWAP1 RETURN JUMPDEST PUSH2 0x162 PUSH1 0x4 DUP1 CALLDATASIZE SUB DUP2 ADD SWAP1 PUSH2 0x15D SWAP2 SWAP1 PUSH2 0x268E JUMP JUMPDEST PUSH2 0x4C0 JUMP JUMPDEST PUSH1 0x40 MLOAD PUSH2 0x16F SWAP2 SWAP1 PUSH2 0x26DB JUMP JUMPDEST PUSH1 0x40 MLOAD DUP1 SWAP2 SUB SWAP1 RETURN JUMPDEST PUSH2 0x192 PUSH1 0x4 DUP1 CALLDATASIZE SUB DUP2 ADD SWAP1 PUSH2 0x18D SWAP2 SWAP1 PUSH2 0x268E JUMP JUMPDEST PUSH2 0x508 JUMP JUMPDEST PUSH1 0x40 MLOAD PUSH2 0x19F SWAP2 SWAP1 PUSH2 0x26DB JUMP JUMPDEST PUSH1 0x40 MLOAD DUP1 SWAP2 SUB SWAP1 RETURN JUMPDEST PUSH2 0x1C2 PUSH1 0x4 DUP1 CALLDATASIZE SUB DUP2 ADD SWAP1 PUSH2 0x1BD SWAP2 SWAP1 PUSH2 0x2559 JUMP JUMPDEST PUSH2 0x550 JUMP JUMPDEST PUSH1 0x40 MLOAD PUSH2 0x1CF SWAP2 SWAP1 PUSH2 0x263B JUMP JUMPDEST PUSH1 0x40 MLOAD DUP1 SWAP2 SUB SWAP1 RETURN JUMPDEST PUSH2 0x1F2 PUSH1 0x4 DUP1 CALLDATASIZE SUB DUP2 ADD SWAP1 PUSH2 0x1ED SWAP2 SWAP1 PUSH2 0x2559 JUMP JUMPDEST PUSH2 0x618 JUMP JUMPDEST STOP JUMPDEST PUSH2 0x20E PUSH1 0x4 DUP1 CALLDATASIZE SUB DUP2 ADD SWAP1 PUSH2 0x209 SWAP2 SWAP1 PUSH2 0x2559 JUMP JUMPDEST PUSH2 0x7AE JUMP JUMPDEST PUSH1 0x40 MLOAD PUSH2 0x21E SWAP5 SWAP4 SWAP3 SWAP2 SWAP1 PUSH2 0x27D7 JUMP JUMPDEST PUSH1 0x40 MLOAD DUP1 SWAP2 SUB SWAP1 RETURN JUMPDEST PUSH2 0x241 PUSH1 0x4 DUP1 CALLDATASIZE SUB DUP2 ADD SWAP1 PUSH2 0x23C SWAP2 SWAP1 PUSH2 0x2559 JUMP JUMPDEST PUSH2 0x9F5 JUMP JUMPDEST STOP JUMPDEST PUSH2 0x25D PUSH1 0x4 DUP1 CALLDATASIZE SUB DUP2 ADD SWAP1 PUSH2 0x258 SWAP2 SWAP1 PUSH2 0x2559 JUMP JUMPDEST PUSH2 0xD79 JUMP JUMPDEST STOP JUMPDEST PUSH2 0x279 PUSH1 0x4 DUP1 CALLDATASIZE SUB DUP2 ADD SWAP1 PUSH2 0x274 SWAP2 SWAP1 PUSH2 0x2559 JUMP JUMPDEST PUSH2 0x11A9 JUMP JUMPDEST PUSH1 0x40 MLOAD PUSH2 0x286 SWAP2 SWAP1 PUSH2 0x2842 JUMP JUMPDEST PUSH1 0x40 MLOAD DUP1 SWAP2 SUB SWAP1 RETURN JUMPDEST PUSH2 0x2A9 PUSH1 0x4 DUP1 CALLDATASIZE SUB DUP2 ADD SWAP1 PUSH2 0x2A4 SWAP2 SWAP1 PUSH2 0x2559 JUMP JUMPDEST PUSH2 0x11C6 JUMP JUMPDEST STOP JUMPDEST PUSH2 0x2B3 PUSH2 0x1376 JUMP JUMPDEST PUSH1 0x40 MLOAD PUSH2 0x2C0 SWAP2 SWAP1 PUSH2 0x26DB JUMP JUMPDEST PUSH1 0x40 MLOAD DUP1 SWAP2 SUB SWAP1 RETURN JUMPDEST PUSH2 0x2E3 PUSH1 0x4 DUP1 CALLDATASIZE SUB DUP2 ADD SWAP1 PUSH2 0x2DE SWAP2 SWAP1 PUSH2 0x2559 JUMP JUMPDEST PUSH2 0x1399 JUMP JUMPDEST PUSH1 0x40 MLOAD PUSH2 0x2F0 SWAP2 SWAP1 PUSH2 0x263B JUMP JUMPDEST PUSH1 0x40 MLOAD DUP1 SWAP2 SUB SWAP1 RETURN JUMPDEST PUSH2 0x313 PUSH1 0x4 DUP1 CALLDATASIZE SUB DUP2 ADD SWAP1 PUSH2 0x30E SWAP2 SWAP1 PUSH2 0x2559 JUMP JUMPDEST PUSH2 0x1461 JUMP JUMPDEST PUSH1 0x40 MLOAD PUSH2 0x325 SWAP7 SWAP6 SWAP5 SWAP4 SWAP3 SWAP2 SWAP1 PUSH2 0x286A JUMP JUMPDEST PUSH1 0x40 MLOAD DUP1 SWAP2 SUB SWAP1 RETURN JUMPDEST PUSH2 0x348 PUSH1 0x4 DUP1 CALLDATASIZE SUB DUP2 ADD SWAP1 PUSH2 0x343 SWAP2 SWAP1 PUSH2 0x28D7 JUMP JUMPDEST PUSH2 0x15DE JUMP JUMPDEST PUSH1 0x40 MLOAD PUSH2 0x355 SWAP2 SWAP1 PUSH2 0x2842 JUMP JUMPDEST PUSH1 0x40 MLOAD DUP1 SWAP2 SUB SWAP1 RETURN JUMPDEST PUSH2 0x378 PUSH1 0x4 DUP1 CALLDATASIZE SUB DUP2 ADD SWAP1 PUSH2 0x373 SWAP2 SWAP1 PUSH2 0x2559 JUMP JUMPDEST PUSH2 0x1608 JUMP JUMPDEST STOP JUMPDEST PUSH2 0x394 PUSH1 0x4 DUP1 CALLDATASIZE SUB DUP2 ADD SWAP1 PUSH2 0x38F SWAP2 SWAP1 PUSH2 0x2559 JUMP JUMPDEST PUSH2 0x1BA0 JUMP JUMPDEST PUSH1 0x40 MLOAD PUSH2 0x3A3 SWAP4 SWAP3 SWAP2 SWAP1 PUSH2 0x2915 JUMP JUMPDEST PUSH1 0x40 MLOAD DUP1 SWAP2 SUB SWAP1 RETURN JUMPDEST PUSH2 0x3C6 PUSH1 0x4 DUP1 CALLDATASIZE SUB DUP2 ADD SWAP1 PUSH2 0x3C1 SWAP2 SWAP1 PUSH2 0x29B9 JUMP JUMPDEST PUSH2 0x1E39 JUMP JUMPDEST STOP JUMPDEST PUSH2 0x3E2 PUSH1 0x4 DUP1 CALLDATASIZE SUB DUP2 ADD SWAP1 PUSH2 0x3DD SWAP2 SWAP1 PUSH2 0x268E JUMP JUMPDEST PUSH2 0x2328 JUMP JUMPDEST PUSH1 0x40 MLOAD PUSH2 0x3EF SWAP2 SWAP1 PUSH2 0x26DB JUMP JUMPDEST PUSH1 0x40 MLOAD DUP1 SWAP2 SUB SWAP1 RETURN JUMPDEST PUSH1 0x60 PUSH1 0x3 PUSH0 DUP4 PUSH20 0xFFFFFFFFFFFFFFFFFFFFFFFFFFFFFFFFFFFFFFFF AND PUSH20 0xFFFFFFFFFFFFFFFFFFFFFFFFFFFFFFFFFFFFFFFF AND DUP2 MSTORE PUSH1 0x20 ADD SWAP1 DUP2 MSTORE PUSH1 0x20 ADD PUSH0 KECCAK256 DUP1 SLOAD DUP1 PUSH1 0x20 MUL PUSH1 0x20 ADD PUSH1 0x40 MLOAD SWAP1 DUP2 ADD PUSH1 0x40 MSTORE DUP1 SWAP3 SWAP2 SWAP1 DUP2 DUP2 MSTORE PUSH1 0x20 ADD DUP3 DUP1 SLOAD DUP1 ISZERO PUSH2 0x4B4 JUMPI PUSH1 0x20 MUL DUP3 ADD SWAP2 SWAP1 PUSH0 MSTORE PUSH1 0x20 PUSH0 KECCAK256 SWAP1 JUMPDEST DUP2 PUSH0 SWAP1 SLOAD SWAP1 PUSH2 0x100 EXP SWAP1 DIV PUSH20 0xFFFFFFFFFFFFFFFFFFFFFFFFFFFFFFFFFFFFFFFF AND PUSH20 0xFFFFFFFFFFFFFFFFFFFFFFFFFFFFFFFFFFFFFFFF AND DUP2 MSTORE PUSH1 0x20 ADD SWAP1 PUSH1 0x1 ADD SWAP1 DUP1 DUP4 GT PUSH2 0x46B JUMPI JUMPDEST POP POP POP POP POP SWAP1 POP SWAP2 SWAP1 POP JUMP JUMPDEST PUSH1 0x4 PUSH1 0x20 MSTORE DUP2 PUSH0 MSTORE PUSH1 0x40 PUSH0 KECCAK256 DUP2 DUP2 SLOAD DUP2 LT PUSH2 0x4D9 JUMPI PUSH0 DUP1 REVERT JUMPDEST SWAP1 PUSH0 MSTORE PUSH1 0x20 PUSH0 KECCAK256 ADD PUSH0 SWAP2 POP SWAP2 POP SWAP1 SLOAD SWAP1 PUSH2 0x100 EXP SWAP1 DIV PUSH20 0xFFFFFFFFFFFFFFFFFFFFFFFFFFFFFFFFFFFFFFFF AND DUP2 JUMP JUMPDEST PUSH1 0x3 PUSH1 0x20 MSTORE DUP2 PUSH0 MSTORE PUSH1 0x40 PUSH0 KECCAK256 DUP2 DUP2 SLOAD DUP2 LT PUSH2 0x521 JUMPI PUSH0 DUP1 REVERT JUMPDEST SWAP1 PUSH0 MSTORE PUSH1 0x20 PUSH0 KECCAK256 ADD PUSH0 SWAP2 POP SWAP2 POP SWAP1 SLOAD SWAP1 PUSH2 0x100 EXP SWAP1 DIV PUSH20 0xFFFFFFFFFFFFFFFFFFFFFFFFFFFFFFFFFFFFFFFF AND DUP2 JUMP JUMPDEST PUSH1 0x60 PUSH1 0x4 PUSH0 DUP4 PUSH20 0xFFFFFFFFFFFFFFFFFFFFFFFFFFFFFFFFFFFFFFFF AND PUSH20 0xFFFFFFFFFFFFFFFFFFFFFFFFFFFFFFFFFFFFFFFF AND DUP2 MSTORE PUSH1 0x20 ADD SWAP1 DUP2 MSTORE PUSH1 0x20 ADD PUSH0 KECCAK256 DUP1 SLOAD DUP1 PUSH1 0x20 MUL PUSH1 0x20 ADD PUSH1 0x40 MLOAD SWAP1 DUP2 ADD PUSH1 0x40 MSTORE DUP1 SWAP3 SWAP2 SWAP1 DUP2 DUP2 MSTORE PUSH1 0x20 ADD DUP3 DUP1 SLOAD DUP1 ISZERO PUSH2 0x60C JUMPI PUSH1 0x20 MUL DUP3 ADD SWAP2 SWAP1 PUSH0 MSTORE PUSH1 0x20 PUSH0 KECCAK256 SWAP1 JUMPDEST DUP2 PUSH0 SWAP1 SLOAD SWAP1 PUSH2 0x100 EXP SWAP1 DIV PUSH20 0xFFFFFFFFFFFFFFFFFFFFFFFFFFFFFFFFFFFFFFFF AND PUSH20 0xFFFFFFFFFFFFFFFFFFFFFFFFFFFFFFFFFFFFFFFF AND DUP2 MSTORE PUSH1 0x20 ADD SWAP1 PUSH1 0x1 ADD SWAP1 DUP1 DUP4 GT PUSH2 0x5C3 JUMPI JUMPDEST POP POP POP POP POP SWAP1 POP SWAP2 SWAP1 POP JUMP JUMPDEST PUSH0 DUP1 SLOAD SWAP1 PUSH2 0x100 EXP SWAP1 DIV PUSH20 0xFFFFFFFFFFFFFFFFFFFFFFFFFFFFFFFFFFFFFFFF AND PUSH20 0xFFFFFFFFFFFFFFFFFFFFFFFFFFFFFFFFFFFFFFFF AND CALLER PUSH20 0xFFFFFFFFFFFFFFFFFFFFFFFFFFFFFFFFFFFFFFFF AND EQ PUSH2 0x6A5 JUMPI PUSH1 0x40 MLOAD PUSH32 0x8C379A000000000000000000000000000000000000000000000000000000000 DUP2 MSTORE PUSH1 0x4 ADD PUSH2 0x69C SWAP1 PUSH2 0x2A94 JUMP JUMPDEST PUSH1 0x40 MLOAD DUP1 SWAP2 SUB SWAP1 REVERT JUMPDEST PUSH0 PUSH20 0xFFFFFFFFFFFFFFFFFFFFFFFFFFFFFFFFFFFFFFFF AND DUP2 PUSH20 0xFFFFFFFFFFFFFFFFFFFFFFFFFFFFFFFFFFFFFFFF AND SUB PUSH2 0x713 JUMPI PUSH1 0x40 MLOAD PUSH32 0x8C379A000000000000000000000000000000000000000000000000000000000 DUP2 MSTORE PUSH1 0x4 ADD PUSH2 0x70A SWAP1 PUSH2 0x2AFC JUMP JUMPDEST PUSH1 0x40 MLOAD DUP1 SWAP2 SUB SWAP1 REVERT JUMPDEST PUSH1 0x1 PUSH1 0x2 PUSH0 DUP4 PUSH20 0xFFFFFFFFFFFFFFFFFFFFFFFFFFFFFFFFFFFFFFFF AND PUSH20 0xFFFFFFFFFFFFFFFFFFFFFFFFFFFFFFFFFFFFFFFF AND DUP2 MSTORE PUSH1 0x20 ADD SWAP1 DUP2 MSTORE PUSH1 0x20 ADD PUSH0 KECCAK256 PUSH0 PUSH2 0x100 EXP DUP2 SLOAD DUP2 PUSH1 0xFF MUL NOT AND SWAP1 DUP4 ISZERO ISZERO MUL OR SWAP1 SSTORE POP DUP1 PUSH20 0xFFFFFFFFFFFFFFFFFFFFFFFFFFFFFFFFFFFFFFFF AND PUSH32 0xAE9C2C6481964847714CE58F65A7F6DCC41D0D8394449BACDF161B5920C4744A PUSH1 0x40 MLOAD PUSH1 0x40 MLOAD DUP1 SWAP2 SUB SWAP1 LOG2 POP JUMP JUMPDEST PUSH1 0x60 DUP1 PUSH0 DUP1 PUSH0 PUSH1 0x1 PUSH0 DUP8 PUSH20 0xFFFFFFFFFFFFFFFFFFFFFFFFFFFFFFFFFFFFFFFF AND PUSH20 0xFFFFFFFFFFFFFFFFFFFFFFFFFFFFFFFFFFFFFFFF AND DUP2 MSTORE PUSH1 0x20 ADD SWAP1 DUP2 MSTORE PUSH1 0x20 ADD PUSH0 KECCAK256 PUSH1 0x40 MLOAD DUP1 PUSH1 0xC0 ADD PUSH1 0x40 MSTORE SWAP1 DUP2 PUSH0 DUP3 ADD DUP1 SLOAD PUSH2 0x80B SWAP1 PUSH2 0x2B47 JUMP JUMPDEST DUP1 PUSH1 0x1F ADD PUSH1 0x20 DUP1 SWAP2 DIV MUL PUSH1 0x20 ADD PUSH1 0x40 MLOAD SWAP1 DUP2 ADD PUSH1 0x40 MSTORE DUP1 SWAP3 SWAP2 SWAP1 DUP2 DUP2 MSTORE PUSH1 0x20 ADD DUP3 DUP1 SLOAD PUSH2 0x837 SWAP1 PUSH2 0x2B47 JUMP JUMPDEST DUP1 ISZERO PUSH2 0x882 JUMPI DUP1 PUSH1 0x1F LT PUSH2 0x859 JUMPI PUSH2 0x100 DUP1 DUP4 SLOAD DIV MUL DUP4 MSTORE SWAP2 PUSH1 0x20 ADD SWAP2 PUSH2 0x882 JUMP JUMPDEST DUP3 ADD SWAP2 SWAP1 PUSH0 MSTORE PUSH1 0x20 PUSH0 KECCAK256 SWAP1 JUMPDEST DUP2 SLOAD DUP2 MSTORE SWAP1 PUSH1 0x1 ADD SWAP1 PUSH1 0x20 ADD DUP1 DUP4 GT PUSH2 0x865 JUMPI DUP3 SWAP1 SUB PUSH1 0x1F AND DUP3 ADD SWAP2 JUMPDEST POP POP POP POP POP DUP2 MSTORE PUSH1 0x20 ADD PUSH1 0x1 DUP3 ADD DUP1 SLOAD PUSH2 0x89B SWAP1 PUSH2 0x2B47 JUMP JUMPDEST DUP1 PUSH1 0x1F ADD PUSH1 0x20 DUP1 SWAP2 DIV MUL PUSH1 0x20 ADD PUSH1 0x40 MLOAD SWAP1 DUP2 ADD PUSH1 0x40 MSTORE DUP1 SWAP3 SWAP2 SWAP1 DUP2 DUP2 MSTORE PUSH1 0x20 ADD DUP3 DUP1 SLOAD PUSH2 0x8C7 SWAP1 PUSH2 0x2B47 JUMP JUMPDEST DUP1 ISZERO PUSH2 0x912 JUMPI DUP1 PUSH1 0x1F LT PUSH2 0x8E9 JUMPI PUSH2 0x100 DUP1 DUP4 SLOAD DIV MUL DUP4 MSTORE SWAP2 PUSH1 0x20 ADD SWAP2 PUSH2 0x912 JUMP JUMPDEST DUP3 ADD SWAP2 SWAP1 PUSH0 MSTORE PUSH1 0x20 PUSH0 KECCAK256 SWAP1 JUMPDEST DUP2 SLOAD DUP2 MSTORE SWAP1 PUSH1 0x1 ADD SWAP1 PUSH1 0x20 ADD DUP1 DUP4 GT PUSH2 0x8F5 JUMPI DUP3 SWAP1 SUB PUSH1 0x1F AND DUP3 ADD SWAP2 JUMPDEST POP POP POP POP POP DUP2 MSTORE PUSH1 0x20 ADD PUSH1 0x2 DUP3 ADD PUSH0 SWAP1 SLOAD SWAP1 PUSH2 0x100 EXP SWAP1 DIV PUSH20 0xFFFFFFFFFFFFFFFFFFFFFFFFFFFFFFFFFFFFFFFF AND PUSH20 0xFFFFFFFFFFFFFFFFFFFFFFFFFFFFFFFFFFFFFFFF AND PUSH20 0xFFFFFFFFFFFFFFFFFFFFFFFFFFFFFFFFFFFFFFFF AND DUP2 MSTORE PUSH1 0x20 ADD PUSH1 0x2 DUP3 ADD PUSH1 0x14 SWAP1 SLOAD SWAP1 PUSH2 0x100 EXP SWAP1 DIV PUSH1 0xFF AND ISZERO ISZERO ISZERO ISZERO DUP2 MSTORE PUSH1 0x20 ADD PUSH1 0x2 DUP3 ADD PUSH1 0x15 SWAP1 SLOAD SWAP1 PUSH2 0x100 EXP SWAP1 DIV PUSH1 0xFF AND PUSH1 0x2 DUP2 GT ISZERO PUSH2 0x9B0 JUMPI PUSH2 0x9AF PUSH2 0x2764 JUMP JUMPDEST JUMPDEST PUSH1 0x2 DUP2 GT ISZERO PUSH2 0x9C2 JUMPI PUSH2 0x9C1 PUSH2 0x2764 JUMP JUMPDEST JUMPDEST DUP2 MSTORE PUSH1 0x20 ADD PUSH1 0x3 DUP3 ADD SLOAD DUP2 MSTORE POP POP SWAP1 POP DUP1 PUSH0 ADD MLOAD DUP2 PUSH1 0x20 ADD MLOAD DUP3 PUSH1 0x40 ADD MLOAD DUP4 PUSH1 0x80 ADD MLOAD SWAP5 POP SWAP5 POP SWAP5 POP SWAP5 POP POP SWAP2 SWAP4 POP SWAP2 SWAP4 JUMP JUMPDEST PUSH1 0x2 PUSH0 CALLER PUSH20 0xFFFFFFFFFFFFFFFFFFFFFFFFFFFFFFFFFFFFFFFF AND PUSH20 0xFFFFFFFFFFFFFFFFFFFFFFFFFFFFFFFFFFFFFFFF AND DUP2 MSTORE PUSH1 0x20 ADD SWAP1 DUP2 MSTORE PUSH1 0x20 ADD PUSH0 KECCAK256 PUSH0 SWAP1 SLOAD SWAP1 PUSH2 0x100 EXP SWAP1 DIV PUSH1 0xFF AND PUSH2 0xA7E JUMPI PUSH1 0x40 MLOAD PUSH32 0x8C379A000000000000000000000000000000000000000000000000000000000 DUP2 MSTORE PUSH1 0x4 ADD PUSH2 0xA75 SWAP1 PUSH2 0x2BC1 JUMP JUMPDEST PUSH1 0x40 MLOAD DUP1 SWAP2 SUB SWAP1 REVERT JUMPDEST PUSH1 0x6 PUSH0 CALLER PUSH20 0xFFFFFFFFFFFFFFFFFFFFFFFFFFFFFFFFFFFFFFFF AND PUSH20 0xFFFFFFFFFFFFFFFFFFFFFFFFFFFFFFFFFFFFFFFF AND DUP2 MSTORE PUSH1 0x20 ADD SWAP1 DUP2 MSTORE PUSH1 0x20 ADD PUSH0 KECCAK256 PUSH0 DUP3 PUSH20 0xFFFFFFFFFFFFFFFFFFFFFFFFFFFFFFFFFFFFFFFF AND PUSH20 0xFFFFFFFFFFFFFFFFFFFFFFFFFFFFFFFFFFFFFFFF AND DUP2 MSTORE PUSH1 0x20 ADD SWAP1 DUP2 MSTORE PUSH1 0x20 ADD PUSH0 KECCAK256 PUSH0 SWAP1 SLOAD SWAP1 PUSH2 0x100 EXP SWAP1 DIV PUSH1 0xFF AND PUSH2 0xB42 JUMPI PUSH1 0x40 MLOAD PUSH32 0x8C379A000000000000000000000000000000000000000000000000000000000 DUP2 MSTORE PUSH1 0x4 ADD PUSH2 0xB39 SWAP1 PUSH2 0x2C4F JUMP JUMPDEST PUSH1 0x40 MLOAD DUP1 SWAP2 SUB SWAP1 REVERT JUMPDEST PUSH2 0xB88 PUSH1 0x4 PUSH0 CALLER PUSH20 0xFFFFFFFFFFFFFFFFFFFFFFFFFFFFFFFFFFFFFFFF AND PUSH20 0xFFFFFFFFFFFFFFFFFFFFFFFFFFFFFFFFFFFFFFFF AND DUP2 MSTORE PUSH1 0x20 ADD SWAP1 DUP2 MSTORE PUSH1 0x20 ADD PUSH0 KECCAK256 DUP3 PUSH2 0x2370 JUMP JUMPDEST POP PUSH0 PUSH1 0x6 PUSH0 CALLER PUSH20 0xFFFFFFFFFFFFFFFFFFFFFFFFFFFFFFFFFFFFFFFF AND PUSH20 0xFFFFFFFFFFFFFFFFFFFFFFFFFFFFFFFFFFFFFFFF AND DUP2 MSTORE PUSH1 0x20 ADD SWAP1 DUP2 MSTORE PUSH1 0x20 ADD PUSH0 KECCAK256 PUSH0 DUP4 PUSH20 0xFFFFFFFFFFFFFFFFFFFFFFFFFFFFFFFFFFFFFFFF AND PUSH20 0xFFFFFFFFFFFFFFFFFFFFFFFFFFFFFFFFFFFFFFFF AND DUP2 MSTORE PUSH1 0x20 ADD SWAP1 DUP2 MSTORE PUSH1 0x20 ADD PUSH0 KECCAK256 PUSH0 PUSH2 0x100 EXP DUP2 SLOAD DUP2 PUSH1 0xFF MUL NOT AND SWAP1 DUP4 ISZERO ISZERO MUL OR SWAP1 SSTORE POP PUSH1 0x5 PUSH0 CALLER PUSH20 0xFFFFFFFFFFFFFFFFFFFFFFFFFFFFFFFFFFFFFFFF AND PUSH20 0xFFFFFFFFFFFFFFFFFFFFFFFFFFFFFFFFFFFFFFFF AND DUP2 MSTORE PUSH1 0x20 ADD SWAP1 DUP2 MSTORE PUSH1 0x20 ADD PUSH0 KECCAK256 DUP2 SWAP1 DUP1 PUSH1 0x1 DUP2 SLOAD ADD DUP1 DUP3 SSTORE DUP1 SWAP2 POP POP PUSH1 0x1 SWAP1 SUB SWAP1 PUSH0 MSTORE PUSH1 0x20 PUSH0 KECCAK256 ADD PUSH0 SWAP1 SWAP2 SWAP1 SWAP2 SWAP1 SWAP2 PUSH2 0x100 EXP DUP2 SLOAD DUP2 PUSH20 0xFFFFFFFFFFFFFFFFFFFFFFFFFFFFFFFFFFFFFFFF MUL NOT AND SWAP1 DUP4 PUSH20 0xFFFFFFFFFFFFFFFFFFFFFFFFFFFFFFFFFFFFFFFF AND MUL OR SWAP1 SSTORE POP PUSH1 0x2 PUSH1 0x1 PUSH0 DUP4 PUSH20 0xFFFFFFFFFFFFFFFFFFFFFFFFFFFFFFFFFFFFFFFF AND PUSH20 0xFFFFFFFFFFFFFFFFFFFFFFFFFFFFFFFFFFFFFFFF AND DUP2 MSTORE PUSH1 0x20 ADD SWAP1 DUP2 MSTORE PUSH1 0x20 ADD PUSH0 KECCAK256 PUSH1 0x2 ADD PUSH1 0x15 PUSH2 0x100 EXP DUP2 SLOAD DUP2 PUSH1 0xFF MUL NOT AND SWAP1 DUP4 PUSH1 0x2 DUP2 GT ISZERO PUSH2 0xD17 JUMPI PUSH2 0xD16 PUSH2 0x2764 JUMP JUMPDEST JUMPDEST MUL OR SWAP1 SSTORE POP CALLER PUSH20 0xFFFFFFFFFFFFFFFFFFFFFFFFFFFFFFFFFFFFFFFF AND DUP2 PUSH20 0xFFFFFFFFFFFFFFFFFFFFFFFFFFFFFFFFFFFFFFFF AND PUSH32 0x1FD08C43FF018B384F5037A68179F90E0808A91887EEB0C991BC72DBC96A53FD PUSH1 0x40 MLOAD PUSH1 0x40 MLOAD DUP1 SWAP2 SUB SWAP1 LOG3 POP JUMP JUMPDEST PUSH1 0x1 PUSH0 CALLER PUSH20 0xFFFFFFFFFFFFFFFFFFFFFFFFFFFFFFFFFFFFFFFF AND PUSH20 0xFFFFFFFFFFFFFFFFFFFFFFFFFFFFFFFFFFFFFFFF AND DUP2 MSTORE PUSH1 0x20 ADD SWAP1 DUP2 MSTORE PUSH1 0x20 ADD PUSH0 KECCAK256 PUSH1 0x2 ADD PUSH1 0x14 SWAP1 SLOAD SWAP1 PUSH2 0x100 EXP SWAP1 DIV PUSH1 0xFF AND PUSH2 0xE06 JUMPI PUSH1 0x40 MLOAD PUSH32 0x8C379A000000000000000000000000000000000000000000000000000000000 DUP2 MSTORE PUSH1 0x4 ADD PUSH2 0xDFD SWAP1 PUSH2 0x2CB7 JUMP JUMPDEST PUSH1 0x40 MLOAD DUP1 SWAP2 SUB SWAP1 REVERT JUMPDEST PUSH1 0x2 PUSH0 DUP3 PUSH20 0xFFFFFFFFFFFFFFFFFFFFFFFFFFFFFFFFFFFFFFFF AND PUSH20 0xFFFFFFFFFFFFFFFFFFFFFFFFFFFFFFFFFFFFFFFF AND DUP2 MSTORE PUSH1 0x20 ADD SWAP1 DUP2 MSTORE PUSH1 0x20 ADD PUSH0 KECCAK256 PUSH0 SWAP1 SLOAD SWAP1 PUSH2 0x100 EXP SWAP1 DIV PUSH1 0xFF AND PUSH2 0xE8F JUMPI PUSH1 0x40 MLOAD PUSH32 0x8C379A000000000000000000000000000000000000000000000000000000000 DUP2 MSTORE PUSH1 0x4 ADD PUSH2 0xE86 SWAP1 PUSH2 0x2D1F JUMP JUMPDEST PUSH1 0x40 MLOAD DUP1 SWAP2 SUB SWAP1 REVERT JUMPDEST PUSH1 0x1 PUSH0 CALLER PUSH20 0xFFFFFFFFFFFFFFFFFFFFFFFFFFFFFFFFFFFFFFFF AND PUSH20 0xFFFFFFFFFFFFFFFFFFFFFFFFFFFFFFFFFFFFFFFF AND DUP2 MSTORE PUSH1 0x20 ADD SWAP1 DUP2 MSTORE PUSH1 0x20 ADD PUSH0 KECCAK256 PUSH1 0x2 ADD PUSH0 SWAP1 SLOAD SWAP1 PUSH2 0x100 EXP SWAP1 DIV PUSH20 0xFFFFFFFFFFFFFFFFFFFFFFFFFFFFFFFFFFFFFFFF AND PUSH20 0xFFFFFFFFFFFFFFFFFFFFFFFFFFFFFFFFFFFFFFFF AND DUP2 PUSH20 0xFFFFFFFFFFFFFFFFFFFFFFFFFFFFFFFFFFFFFFFF AND SUB PUSH2 0xF5C JUMPI PUSH1 0x40 MLOAD PUSH32 0x8C379A000000000000000000000000000000000000000000000000000000000 DUP2 MSTORE PUSH1 0x4 ADD PUSH2 0xF53 SWAP1 PUSH2 0x2D87 JUMP JUMPDEST PUSH1 0x40 MLOAD DUP1 SWAP2 SUB SWAP1 REVERT JUMPDEST PUSH1 0x6 PUSH0 DUP3 PUSH20 0xFFFFFFFFFFFFFFFFFFFFFFFFFFFFFFFFFFFFFFFF AND PUSH20 0xFFFFFFFFFFFFFFFFFFFFFFFFFFFFFFFFFFFFFFFF AND DUP2 MSTORE PUSH1 0x20 ADD SWAP1 DUP2 MSTORE PUSH1 0x20 ADD PUSH0 KECCAK256 PUSH0 CALLER PUSH20 0xFFFFFFFFFFFFFFFFFFFFFFFFFFFFFFFFFFFFFFFF AND PUSH20 0xFFFFFFFFFFFFFFFFFFFFFFFFFFFFFFFFFFFFFFFF AND DUP2 MSTORE PUSH1 0x20 ADD SWAP1 DUP2 MSTORE PUSH1 0x20 ADD PUSH0 KECCAK256 PUSH0 SWAP1 SLOAD SWAP1 PUSH2 0x100 EXP SWAP1 DIV PUSH1 0xFF AND ISZERO PUSH2 0x1021 JUMPI PUSH1 0x40 MLOAD PUSH32 0x8C379A000000000000000000000000000000000000000000000000000000000 DUP2 MSTORE PUSH1 0x4 ADD PUSH2 0x1018 SWAP1 PUSH2 0x2DEF JUMP JUMPDEST PUSH1 0x40 MLOAD DUP1 SWAP2 SUB SWAP1 REVERT JUMPDEST PUSH1 0x4 PUSH0 DUP3 PUSH20 0xFFFFFFFFFFFFFFFFFFFFFFFFFFFFFFFFFFFFFFFF AND PUSH20 0xFFFFFFFFFFFFFFFFFFFFFFFFFFFFFFFFFFFFFFFF AND DUP2 MSTORE PUSH1 0x20 ADD SWAP1 DUP2 MSTORE PUSH1 0x20 ADD PUSH0 KECCAK256 CALLER SWAP1 DUP1 PUSH1 0x1 DUP2 SLOAD ADD DUP1 DUP3 SSTORE DUP1 SWAP2 POP POP PUSH1 0x1 SWAP1 SUB SWAP1 PUSH0 MSTORE PUSH1 0x20 PUSH0 KECCAK256 ADD PUSH0 SWAP1 SWAP2 SWAP1 SWAP2 SWAP1 SWAP2 PUSH2 0x100 EXP DUP2 SLOAD DUP2 PUSH20 0xFFFFFFFFFFFFFFFFFFFFFFFFFFFFFFFFFFFFFFFF MUL NOT AND SWAP1 DUP4 PUSH20 0xFFFFFFFFFFFFFFFFFFFFFFFFFFFFFFFFFFFFFFFF AND MUL OR SWAP1 SSTORE POP PUSH1 0x1 PUSH1 0x6 PUSH0 DUP4 PUSH20 0xFFFFFFFFFFFFFFFFFFFFFFFFFFFFFFFFFFFFFFFF AND PUSH20 0xFFFFFFFFFFFFFFFFFFFFFFFFFFFFFFFFFFFFFFFF AND DUP2 MSTORE PUSH1 0x20 ADD SWAP1 DUP2 MSTORE PUSH1 0x20 ADD PUSH0 KECCAK256 PUSH0 CALLER PUSH20 0xFFFFFFFFFFFFFFFFFFFFFFFFFFFFFFFFFFFFFFFF AND PUSH20 0xFFFFFFFFFFFFFFFFFFFFFFFFFFFFFFFFFFFFFFFF AND DUP2 MSTORE PUSH1 0x20 ADD SWAP1 DUP2 MSTORE PUSH1 0x20 ADD PUSH0 KECCAK256 PUSH0 PUSH2 0x100 EXP DUP2 SLOAD DUP2 PUSH1 0xFF MUL NOT AND SWAP1 DUP4 ISZERO ISZERO MUL OR SWAP1 SSTORE POP DUP1 PUSH20 0xFFFFFFFFFFFFFFFFFFFFFFFFFFFFFFFFFFFFFFFF AND CALLER PUSH20 0xFFFFFFFFFFFFFFFFFFFFFFFFFFFFFFFFFFFFFFFF AND PUSH32 0xA222276C388157FDC7AD53E39FB6AC4D993FAD09B12DB3CCE6CB691657C04D3A PUSH1 0x40 MLOAD PUSH1 0x40 MLOAD DUP1 SWAP2 SUB SWAP1 LOG3 POP JUMP JUMPDEST PUSH1 0x2 PUSH1 0x20 MSTORE DUP1 PUSH0 MSTORE PUSH1 0x40 PUSH0 KECCAK256 PUSH0 SWAP2 POP SLOAD SWAP1 PUSH2 0x100 EXP SWAP1 DIV PUSH1 0xFF AND DUP2 JUMP JUMPDEST PUSH0 DUP1 SLOAD SWAP1 PUSH2 0x100 EXP SWAP1 DIV PUSH20 0xFFFFFFFFFFFFFFFFFFFFFFFFFFFFFFFFFFFFFFFF AND PUSH20 0xFFFFFFFFFFFFFFFFFFFFFFFFFFFFFFFFFFFFFFFF AND CALLER PUSH20 0xFFFFFFFFFFFFFFFFFFFFFFFFFFFFFFFFFFFFFFFF AND EQ PUSH2 0x1253 JUMPI PUSH1 0x40 MLOAD PUSH32 0x8C379A000000000000000000000000000000000000000000000000000000000 DUP2 MSTORE PUSH1 0x4 ADD PUSH2 0x124A SWAP1 PUSH2 0x2A94 JUMP JUMPDEST PUSH1 0x40 MLOAD DUP1 SWAP2 SUB SWAP1 REVERT JUMPDEST PUSH1 0x2 PUSH0 DUP3 PUSH20 0xFFFFFFFFFFFFFFFFFFFFFFFFFFFFFFFFFFFFFFFF AND PUSH20 0xFFFFFFFFFFFFFFFFFFFFFFFFFFFFFFFFFFFFFFFF AND DUP2 MSTORE PUSH1 0x20 ADD SWAP1 DUP2 MSTORE PUSH1 0x20 ADD PUSH0 KECCAK256 PUSH0 SWAP1 SLOAD SWAP1 PUSH2 0x100 EXP SWAP1 DIV PUSH1 0xFF AND PUSH2 0x12DC JUMPI PUSH1 0x40 MLOAD PUSH32 0x8C379A000000000000000000000000000000000000000000000000000000000 DUP2 MSTORE PUSH1 0x4 ADD PUSH2 0x12D3 SWAP1 PUSH2 0x2E57 JUMP JUMPDEST PUSH1 0x40 MLOAD DUP1 SWAP2 SUB SWAP1 REVERT JUMPDEST PUSH0 PUSH1 0x2 PUSH0 DUP4 PUSH20 0xFFFFFFFFFFFFFFFFFFFFFFFFFFFFFFFFFFFFFFFF AND PUSH20 0xFFFFFFFFFFFFFFFFFFFFFFFFFFFFFFFFFFFFFFFF AND DUP2 MSTORE PUSH1 0x20 ADD SWAP1 DUP2 MSTORE PUSH1 0x20 ADD PUSH0 KECCAK256 PUSH0 PUSH2 0x100 EXP DUP2 SLOAD DUP2 PUSH1 0xFF MUL NOT AND SWAP1 DUP4 ISZERO ISZERO MUL OR SWAP1 SSTORE POP DUP1 PUSH20 0xFFFFFFFFFFFFFFFFFFFFFFFFFFFFFFFFFFFFFFFF AND PUSH32 0x1589F8555933761A3CFF8AA925061BE3B46E2DD43F621322AB611D300F62B1D9 PUSH1 0x40 MLOAD PUSH1 0x40 MLOAD DUP1 SWAP2 SUB SWAP1 LOG2 POP JUMP JUMPDEST PUSH0 DUP1 SLOAD SWAP1 PUSH2 0x100 EXP SWAP1 DIV PUSH20 0xFFFFFFFFFFFFFFFFFFFFFFFFFFFFFFFFFFFFFFFF AND DUP2 JUMP JUMPDEST PUSH1 0x60 PUSH1 0x5 PUSH0 DUP4 PUSH20 0xFFFFFFFFFFFFFFFFFFFFFFFFFFFFFFFFFFFFFFFF AND PUSH20 0xFFFFFFFFFFFFFFFFFFFFFFFFFFFFFFFFFFFFFFFF AND DUP2 MSTORE PUSH1 0x20 ADD SWAP1 DUP2 MSTORE PUSH1 0x20 ADD PUSH0 KECCAK256 DUP1 SLOAD DUP1 PUSH1 0x20 MUL PUSH1 0x20 ADD PUSH1 0x40 MLOAD SWAP1 DUP2 ADD PUSH1 0x40 MSTORE DUP1 SWAP3 SWAP2 SWAP1 DUP2 DUP2 MSTORE PUSH1 0x20 ADD DUP3 DUP1 SLOAD DUP1 ISZERO PUSH2 0x1455 JUMPI PUSH1 0x20 MUL DUP3 ADD SWAP2 SWAP1 PUSH0 MSTORE PUSH1 0x20 PUSH0 KECCAK256 SWAP1 JUMPDEST DUP2 PUSH0 SWAP1 SLOAD SWAP1 PUSH2 0x100 EXP SWAP1 DIV PUSH20 0xFFFFFFFFFFFFFFFFFFFFFFFFFFFFFFFFFFFFFFFF AND PUSH20 0xFFFFFFFFFFFFFFFFFFFFFFFFFFFFFFFFFFFFFFFF AND DUP2 MSTORE PUSH1 0x20 ADD SWAP1 PUSH1 0x1 ADD SWAP1 DUP1 DUP4 GT PUSH2 0x140C JUMPI JUMPDEST POP POP POP POP POP SWAP1 POP SWAP2 SWAP1 POP JUMP JUMPDEST PUSH1 0x1 PUSH1 0x20 MSTORE DUP1 PUSH0 MSTORE PUSH1 0x40 PUSH0 KECCAK256 PUSH0 SWAP2 POP SWAP1 POP DUP1 PUSH0 ADD DUP1 SLOAD PUSH2 0x1480 SWAP1 PUSH2 0x2B47 JUMP JUMPDEST DUP1 PUSH1 0x1F ADD PUSH1 0x20 DUP1 SWAP2 DIV MUL PUSH1 0x20 ADD PUSH1 0x40 MLOAD SWAP1 DUP2 ADD PUSH1 0x40 MSTORE DUP1 SWAP3 SWAP2 SWAP1 DUP2 DUP2 MSTORE PUSH1 0x20 ADD DUP3 DUP1 SLOAD PUSH2 0x14AC SWAP1 PUSH2 0x2B47 JUMP JUMPDEST DUP1 ISZERO PUSH2 0x14F7 JUMPI DUP1 PUSH1 0x1F LT PUSH2 0x14CE JUMPI PUSH2 0x100 DUP1 DUP4 SLOAD DIV MUL DUP4 MSTORE SWAP2 PUSH1 0x20 ADD SWAP2 PUSH2 0x14F7 JUMP JUMPDEST DUP3 ADD SWAP2 SWAP1 PUSH0 MSTORE PUSH1 0x20 PUSH0 KECCAK256 SWAP1 JUMPDEST DUP2 SLOAD DUP2 MSTORE SWAP1 PUSH1 0x1 ADD SWAP1 PUSH1 0x20 ADD DUP1 DUP4 GT PUSH2 0x14DA JUMPI DUP3 SWAP1 SUB PUSH1 0x1F AND DUP3 ADD SWAP2 JUMPDEST POP POP POP POP POP SWAP1 DUP1 PUSH1 0x1 ADD DUP1 SLOAD PUSH2 0x150C SWAP1 PUSH2 0x2B47 JUMP JUMPDEST DUP1 PUSH1 0x1F ADD PUSH1 0x20 DUP1 SWAP2 DIV MUL PUSH1 0x20 ADD PUSH1 0x40 MLOAD SWAP1 DUP2 ADD PUSH1 0x40 MSTORE DUP1 SWAP3 SWAP2 SWAP1 DUP2 DUP2 MSTORE PUSH1 0x20 ADD DUP3 DUP1 SLOAD PUSH2 0x1538 SWAP1 PUSH2 0x2B47 JUMP JUMPDEST DUP1 ISZERO PUSH2 0x1583 JUMPI DUP1 PUSH1 0x1F LT PUSH2 0x155A JUMPI PUSH2 0x100 DUP1 DUP4 SLOAD DIV MUL DUP4 MSTORE SWAP2 PUSH1 0x20 ADD SWAP2 PUSH2 0x1583 JUMP JUMPDEST DUP3 ADD SWAP2 SWAP1 PUSH0 MSTORE PUSH1 0x20 PUSH0 KECCAK256 SWAP1 JUMPDEST DUP2 SLOAD DUP2 MSTORE SWAP1 PUSH1 0x1 ADD SWAP1 PUSH1 0x20 ADD DUP1 DUP4 GT PUSH2 0x1566 JUMPI DUP3 SWAP1 SUB PUSH1 0x1F AND DUP3 ADD SWAP2 JUMPDEST POP POP POP POP POP SWAP1 DUP1 PUSH1 0x2 ADD PUSH0 SWAP1 SLOAD SWAP1 PUSH2 0x100 EXP SWAP1 DIV PUSH20 0xFFFFFFFFFFFFFFFFFFFFFFFFFFFFFFFFFFFFFFFF AND SWAP1 DUP1 PUSH1 0x2 ADD PUSH1 0x14 SWAP1 SLOAD SWAP1 PUSH2 0x100 EXP SWAP1 DIV PUSH1 0xFF AND SWAP1 DUP1 PUSH1 0x2 ADD PUSH1 0x15 SWAP1 SLOAD SWAP1 PUSH2 0x100 EXP SWAP1 DIV PUSH1 0xFF AND SWAP1 DUP1 PUSH1 0x3 ADD SLOAD SWAP1 POP DUP7 JUMP JUMPDEST PUSH1 0x6 PUSH1 0x20 MSTORE DUP2 PUSH0 MSTORE PUSH1 0x40 PUSH0 KECCAK256 PUSH1 0x20 MSTORE DUP1 PUSH0 MSTORE PUSH1 0x40 PUSH0 KECCAK256 PUSH0 SWAP2 POP SWAP2 POP SWAP1 SLOAD SWAP1 PUSH2 0x100 EXP SWAP1 DIV PUSH1 0xFF AND DUP2 JUMP JUMPDEST PUSH1 0x2 PUSH0 CALLER PUSH20 0xFFFFFFFFFFFFFFFFFFFFFFFFFFFFFFFFFFFFFFFF AND PUSH20 0xFFFFFFFFFFFFFFFFFFFFFFFFFFFFFFFFFFFFFFFF AND DUP2 MSTORE PUSH1 0x20 ADD SWAP1 DUP2 MSTORE PUSH1 0x20 ADD PUSH0 KECCAK256 PUSH0 SWAP1 SLOAD SWAP1 PUSH2 0x100 EXP SWAP1 DIV PUSH1 0xFF AND PUSH2 0x1691 JUMPI PUSH1 0x40 MLOAD PUSH32 0x8C379A000000000000000000000000000000000000000000000000000000000 DUP2 MSTORE PUSH1 0x4 ADD PUSH2 0x1688 SWAP1 PUSH2 0x2BC1 JUMP JUMPDEST PUSH1 0x40 MLOAD DUP1 SWAP2 SUB SWAP1 REVERT JUMPDEST PUSH1 0x6 PUSH0 CALLER PUSH20 0xFFFFFFFFFFFFFFFFFFFFFFFFFFFFFFFFFFFFFFFF AND PUSH20 0xFFFFFFFFFFFFFFFFFFFFFFFFFFFFFFFFFFFFFFFF AND DUP2 MSTORE PUSH1 0x20 ADD SWAP1 DUP2 MSTORE PUSH1 0x20 ADD PUSH0 KECCAK256 PUSH0 DUP3 PUSH20 0xFFFFFFFFFFFFFFFFFFFFFFFFFFFFFFFFFFFFFFFF AND PUSH20 0xFFFFFFFFFFFFFFFFFFFFFFFFFFFFFFFFFFFFFFFF AND DUP2 MSTORE PUSH1 0x20 ADD SWAP1 DUP2 MSTORE PUSH1 0x20 ADD PUSH0 KECCAK256 PUSH0 SWAP1 SLOAD SWAP1 PUSH2 0x100 EXP SWAP1 DIV PUSH1 0xFF AND PUSH2 0x1755 JUMPI PUSH1 0x40 MLOAD PUSH32 0x8C379A000000000000000000000000000000000000000000000000000000000 DUP2 MSTORE PUSH1 0x4 ADD PUSH2 0x174C SWAP1 PUSH2 0x2C4F JUMP JUMPDEST PUSH1 0x40 MLOAD DUP1 SWAP2 SUB SWAP1 REVERT JUMPDEST PUSH2 0x179B PUSH1 0x4 PUSH0 CALLER PUSH20 0xFFFFFFFFFFFFFFFFFFFFFFFFFFFFFFFFFFFFFFFF AND PUSH20 0xFFFFFFFFFFFFFFFFFFFFFFFFFFFFFFFFFFFFFFFF AND DUP2 MSTORE PUSH1 0x20 ADD SWAP1 DUP2 MSTORE PUSH1 0x20 ADD PUSH0 KECCAK256 DUP3 PUSH2 0x2370 JUMP JUMPDEST POP PUSH0 PUSH1 0x6 PUSH0 CALLER PUSH20 0xFFFFFFFFFFFFFFFFFFFFFFFFFFFFFFFFFFFFFFFF AND PUSH20 0xFFFFFFFFFFFFFFFFFFFFFFFFFFFFFFFFFFFFFFFF AND DUP2 MSTORE PUSH1 0x20 ADD SWAP1 DUP2 MSTORE PUSH1 0x20 ADD PUSH0 KECCAK256 PUSH0 DUP4 PUSH20 0xFFFFFFFFFFFFFFFFFFFFFFFFFFFFFFFFFFFFFFFF AND PUSH20 0xFFFFFFFFFFFFFFFFFFFFFFFFFFFFFFFFFFFFFFFF AND DUP2 MSTORE PUSH1 0x20 ADD SWAP1 DUP2 MSTORE PUSH1 0x20 ADD PUSH0 KECCAK256 PUSH0 PUSH2 0x100 EXP DUP2 SLOAD DUP2 PUSH1 0xFF MUL NOT AND SWAP1 DUP4 ISZERO ISZERO MUL OR SWAP1 SSTORE POP PUSH0 PUSH1 0x1 PUSH0 DUP4 PUSH20 0xFFFFFFFFFFFFFFFFFFFFFFFFFFFFFFFFFFFFFFFF AND PUSH20 0xFFFFFFFFFFFFFFFFFFFFFFFFFFFFFFFFFFFFFFFF AND DUP2 MSTORE PUSH1 0x20 ADD SWAP1 DUP2 MSTORE PUSH1 0x20 ADD PUSH0 KECCAK256 PUSH1 0x2 ADD PUSH0 SWAP1 SLOAD SWAP1 PUSH2 0x100 EXP SWAP1 DIV PUSH20 0xFFFFFFFFFFFFFFFFFFFFFFFFFFFFFFFFFFFFFFFF AND SWAP1 POP PUSH0 PUSH20 0xFFFFFFFFFFFFFFFFFFFFFFFFFFFFFFFFFFFFFFFF AND DUP2 PUSH20 0xFFFFFFFFFFFFFFFFFFFFFFFFFFFFFFFFFFFFFFFF AND EQ ISZERO DUP1 ISZERO PUSH2 0x18F6 JUMPI POP CALLER PUSH20 0xFFFFFFFFFFFFFFFFFFFFFFFFFFFFFFFFFFFFFFFF AND DUP2 PUSH20 0xFFFFFFFFFFFFFFFFFFFFFFFFFFFFFFFFFFFFFFFF AND EQ ISZERO JUMPDEST ISZERO PUSH2 0x19B4 JUMPI PUSH2 0x1941 PUSH1 0x3 PUSH0 DUP4 PUSH20 0xFFFFFFFFFFFFFFFFFFFFFFFFFFFFFFFFFFFFFFFF AND PUSH20 0xFFFFFFFFFFFFFFFFFFFFFFFFFFFFFFFFFFFFFFFF AND DUP2 MSTORE PUSH1 0x20 ADD SWAP1 DUP2 MSTORE PUSH1 0x20 ADD PUSH0 KECCAK256 DUP4 PUSH2 0x2370 JUMP JUMPDEST POP CALLER PUSH20 0xFFFFFFFFFFFFFFFFFFFFFFFFFFFFFFFFFFFFFFFF AND DUP2 PUSH20 0xFFFFFFFFFFFFFFFFFFFFFFFFFFFFFFFFFFFFFFFF AND DUP4 PUSH20 0xFFFFFFFFFFFFFFFFFFFFFFFFFFFFFFFFFFFFFFFF AND PUSH32 0x55C82A6B32B2E2DEA7F4E2A04B12A041302F02402B487929279529D06142849 PUSH1 0x40 MLOAD PUSH1 0x40 MLOAD DUP1 SWAP2 SUB SWAP1 LOG4 JUMPDEST PUSH1 0x3 PUSH0 CALLER PUSH20 0xFFFFFFFFFFFFFFFFFFFFFFFFFFFFFFFFFFFFFFFF AND PUSH20 0xFFFFFFFFFFFFFFFFFFFFFFFFFFFFFFFFFFFFFFFF AND DUP2 MSTORE PUSH1 0x20 ADD SWAP1 DUP2 MSTORE PUSH1 0x20 ADD PUSH0 KECCAK256 DUP3 SWAP1 DUP1 PUSH1 0x1 DUP2 SLOAD ADD DUP1 DUP3 SSTORE DUP1 SWAP2 POP POP PUSH1 0x1 SWAP1 SUB SWAP1 PUSH0 MSTORE PUSH1 0x20 PUSH0 KECCAK256 ADD PUSH0 SWAP1 SWAP2 SWAP1 SWAP2 SWAP1 SWAP2 PUSH2 0x100 EXP DUP2 SLOAD DUP2 PUSH20 0xFFFFFFFFFFFFFFFFFFFFFFFFFFFFFFFFFFFFFFFF MUL NOT AND SWAP1 DUP4 PUSH20 0xFFFFFFFFFFFFFFFFFFFFFFFFFFFFFFFFFFFFFFFF AND MUL OR SWAP1 SSTORE POP CALLER PUSH1 0x1 PUSH0 DUP5 PUSH20 0xFFFFFFFFFFFFFFFFFFFFFFFFFFFFFFFFFFFFFFFF AND PUSH20 0xFFFFFFFFFFFFFFFFFFFFFFFFFFFFFFFFFFFFFFFF AND DUP2 MSTORE PUSH1 0x20 ADD SWAP1 DUP2 MSTORE PUSH1 0x20 ADD PUSH0 KECCAK256 PUSH1 0x2 ADD PUSH0 PUSH2 0x100 EXP DUP2 SLOAD DUP2 PUSH20 0xFFFFFFFFFFFFFFFFFFFFFFFFFFFFFFFFFFFFFFFF MUL NOT AND SWAP1 DUP4 PUSH20 0xFFFFFFFFFFFFFFFFFFFFFFFFFFFFFFFFFFFFFFFF AND MUL OR SWAP1 SSTORE POP PUSH1 0x1 DUP1 PUSH0 DUP5 PUSH20 0xFFFFFFFFFFFFFFFFFFFFFFFFFFFFFFFFFFFFFFFF AND PUSH20 0xFFFFFFFFFFFFFFFFFFFFFFFFFFFFFFFFFFFFFFFF AND DUP2 MSTORE PUSH1 0x20 ADD SWAP1 DUP2 MSTORE PUSH1 0x20 ADD PUSH0 KECCAK256 PUSH1 0x2 ADD PUSH1 0x15 PUSH2 0x100 EXP DUP2 SLOAD DUP2 PUSH1 0xFF MUL NOT AND SWAP1 DUP4 PUSH1 0x2 DUP2 GT ISZERO PUSH2 0x1B30 JUMPI PUSH2 0x1B2F PUSH2 0x2764 JUMP JUMPDEST JUMPDEST MUL OR SWAP1 SSTORE POP CALLER PUSH20 0xFFFFFFFFFFFFFFFFFFFFFFFFFFFFFFFFFFFFFFFF AND DUP3 PUSH20 0xFFFFFFFFFFFFFFFFFFFFFFFFFFFFFFFFFFFFFFFF AND PUSH32 0x71594B34A69973DA9BFF6F72CC0AAD2C51069B6B8E9C70C0648B58D10D7BD84B NUMBER TIMESTAMP PUSH1 0x40 MLOAD PUSH2 0x1B94 SWAP3 SWAP2 SWAP1 PUSH2 0x2E75 JUMP JUMPDEST PUSH1 0x40 MLOAD DUP1 SWAP2 SUB SWAP1 LOG3 POP POP JUMP JUMPDEST PUSH1 0x60 DUP1 PUSH0 DUP4 PUSH20 0xFFFFFFFFFFFFFFFFFFFFFFFFFFFFFFFFFFFFFFFF AND CALLER PUSH20 0xFFFFFFFFFFFFFFFFFFFFFFFFFFFFFFFFFFFFFFFF AND PUSH32 0x77062E8F0E8E0EDA223A7E9844E2EAC2A5CDDCFA57A93C432300DAA0F3E20F2C PUSH1 0x40 MLOAD PUSH1 0x40 MLOAD DUP1 SWAP2 SUB SWAP1 LOG3 PUSH0 PUSH1 0x1 PUSH0 DUP7 PUSH20 0xFFFFFFFFFFFFFFFFFFFFFFFFFFFFFFFFFFFFFFFF AND PUSH20 0xFFFFFFFFFFFFFFFFFFFFFFFFFFFFFFFFFFFFFFFF AND DUP2 MSTORE PUSH1 0x20 ADD SWAP1 DUP2 MSTORE PUSH1 0x20 ADD PUSH0 KECCAK256 PUSH1 0x40 MLOAD DUP1 PUSH1 0xC0 ADD PUSH1 0x40 MSTORE SWAP1 DUP2 PUSH0 DUP3 ADD DUP1 SLOAD PUSH2 0x1C56 SWAP1 PUSH2 0x2B47 JUMP JUMPDEST DUP1 PUSH1 0x1F ADD PUSH1 0x20 DUP1 SWAP2 DIV MUL PUSH1 0x20 ADD PUSH1 0x40 MLOAD SWAP1 DUP2 ADD PUSH1 0x40 MSTORE DUP1 SWAP3 SWAP2 SWAP1 DUP2 DUP2 MSTORE PUSH1 0x20 ADD DUP3 DUP1 SLOAD PUSH2 0x1C82 SWAP1 PUSH2 0x2B47 JUMP JUMPDEST DUP1 ISZERO PUSH2 0x1CCD JUMPI DUP1 PUSH1 0x1F LT PUSH2 0x1CA4 JUMPI PUSH2 0x100 DUP1 DUP4 SLOAD DIV MUL DUP4 MSTORE SWAP2 PUSH1 0x20 ADD SWAP2 PUSH2 0x1CCD JUMP JUMPDEST DUP3 ADD SWAP2 SWAP1 PUSH0 MSTORE PUSH1 0x20 PUSH0 KECCAK256 SWAP1 JUMPDEST DUP2 SLOAD DUP2 MSTORE SWAP1 PUSH1 0x1 ADD SWAP1 PUSH1 0x20 ADD DUP1 DUP4 GT PUSH2 0x1CB0 JUMPI DUP3 SWAP1 SUB PUSH1 0x1F AND DUP3 ADD SWAP2 JUMPDEST POP POP POP POP POP DUP2 MSTORE PUSH1 0x20 ADD PUSH1 0x1 DUP3 ADD DUP1 SLOAD PUSH2 0x1CE6 SWAP1 PUSH2 0x2B47 JUMP JUMPDEST DUP1 PUSH1 0x1F ADD PUSH1 0x20 DUP1 SWAP2 DIV MUL PUSH1 0x20 ADD PUSH1 0x40 MLOAD SWAP1 DUP2 ADD PUSH1 0x40 MSTORE DUP1 SWAP3 SWAP2 SWAP1 DUP2 DUP2 MSTORE PUSH1 0x20 ADD DUP3 DUP1 SLOAD PUSH2 0x1D12 SWAP1 PUSH2 0x2B47 JUMP JUMPDEST DUP1 ISZERO PUSH2 0x1D5D JUMPI DUP1 PUSH1 0x1F LT PUSH2 0x1D34 JUMPI PUSH2 0x100 DUP1 DUP4 SLOAD DIV MUL DUP4 MSTORE SWAP2 PUSH1 0x20 ADD SWAP2 PUSH2 0x1D5D JUMP JUMPDEST DUP3 ADD SWAP2 SWAP1 PUSH0 MSTORE PUSH1 0x20 PUSH0 KECCAK256 SWAP1 JUMPDEST DUP2 SLOAD DUP2 MSTORE SWAP1 PUSH1 0x1 ADD SWAP1 PUSH1 0x20 ADD DUP1 DUP4 GT PUSH2 0x1D40 JUMPI DUP3 SWAP1 SUB PUSH1 0x1F AND DUP3 ADD SWAP2 JUMPDEST POP POP POP POP POP DUP2 MSTORE PUSH1 0x20 ADD PUSH1 0x2 DUP3 ADD PUSH0 SWAP1 SLOAD SWAP1 PUSH2 0x100 EXP SWAP1 DIV PUSH20 0xFFFFFFFFFFFFFFFFFFFFFFFFFFFFFFFFFFFFFFFF AND PUSH20 0xFFFFFFFFFFFFFFFFFFFFFFFFFFFFFFFFFFFFFFFF AND PUSH20 0xFFFFFFFFFFFFFFFFFFFFFFFFFFFFFFFFFFFFFFFF AND DUP2 MSTORE PUSH1 0x20 ADD PUSH1 0x2 DUP3 ADD PUSH1 0x14 SWAP1 SLOAD SWAP1 PUSH2 0x100 EXP SWAP1 DIV PUSH1 0xFF AND ISZERO ISZERO ISZERO ISZERO DUP2 MSTORE PUSH1 0x20 ADD PUSH1 0x2 DUP3 ADD PUSH1 0x15 SWAP1 SLOAD SWAP1 PUSH2 0x100 EXP SWAP1 DIV PUSH1 0xFF AND PUSH1 0x2 DUP2 GT ISZERO PUSH2 0x1DFB JUMPI PUSH2 0x1DFA PUSH2 0x2764 JUMP JUMPDEST JUMPDEST PUSH1 0x2 DUP2 GT ISZERO PUSH2 0x1E0D JUMPI PUSH2 0x1E0C PUSH2 0x2764 JUMP JUMPDEST JUMPDEST DUP2 MSTORE PUSH1 0x20 ADD PUSH1 0x3 DUP3 ADD SLOAD DUP2 MSTORE POP POP SWAP1 POP DUP1 PUSH0 ADD MLOAD DUP2 PUSH1 0x20 ADD MLOAD DUP3 PUSH1 0x40 ADD MLOAD SWAP4 POP SWAP4 POP SWAP4 POP POP SWAP2 SWAP4 SWAP1 SWAP3 POP JUMP JUMPDEST PUSH0 DUP6 DUP6 SWAP1 POP GT DUP1 ISZERO PUSH2 0x1E4D JUMPI POP PUSH0 DUP4 DUP4 SWAP1 POP GT JUMPDEST PUSH2 0x1E8C JUMPI PUSH1 0x40 MLOAD PUSH32 0x8C379A000000000000000000000000000000000000000000000000000000000 DUP2 MSTORE PUSH1 0x4 ADD PUSH2 0x1E83 SWAP1 PUSH2 0x2EE6 JUMP JUMPDEST PUSH1 0x40 MLOAD DUP1 SWAP2 SUB SWAP1 REVERT JUMPDEST PUSH1 0x1 PUSH0 CALLER PUSH20 0xFFFFFFFFFFFFFFFFFFFFFFFFFFFFFFFFFFFFFFFF AND PUSH20 0xFFFFFFFFFFFFFFFFFFFFFFFFFFFFFFFFFFFFFFFF AND DUP2 MSTORE PUSH1 0x20 ADD SWAP1 DUP2 MSTORE PUSH1 0x20 ADD PUSH0 KECCAK256 PUSH1 0x2 ADD PUSH1 0x14 SWAP1 SLOAD SWAP1 PUSH2 0x100 EXP SWAP1 DIV PUSH1 0xFF AND ISZERO PUSH2 0x1F1A JUMPI PUSH1 0x40 MLOAD PUSH32 0x8C379A000000000000000000000000000000000000000000000000000000000 DUP2 MSTORE PUSH1 0x4 ADD PUSH2 0x1F11 SWAP1 PUSH2 0x2F4E JUMP JUMPDEST PUSH1 0x40 MLOAD DUP1 SWAP2 SUB SWAP1 REVERT JUMPDEST PUSH1 0x2 PUSH0 DUP3 PUSH20 0xFFFFFFFFFFFFFFFFFFFFFFFFFFFFFFFFFFFFFFFF AND PUSH20 0xFFFFFFFFFFFFFFFFFFFFFFFFFFFFFFFFFFFFFFFF AND DUP2 MSTORE PUSH1 0x20 ADD SWAP1 DUP2 MSTORE PUSH1 0x20 ADD PUSH0 KECCAK256 PUSH0 SWAP1 SLOAD SWAP1 PUSH2 0x100 EXP SWAP1 DIV PUSH1 0xFF AND PUSH2 0x1FA3 JUMPI PUSH1 0x40 MLOAD PUSH32 0x8C379A000000000000000000000000000000000000000000000000000000000 DUP2 MSTORE PUSH1 0x4 ADD PUSH2 0x1F9A SWAP1 PUSH2 0x2D1F JUMP JUMPDEST PUSH1 0x40 MLOAD DUP1 SWAP2 SUB SWAP1 REVERT JUMPDEST PUSH1 0x40 MLOAD DUP1 PUSH1 0xC0 ADD PUSH1 0x40 MSTORE DUP1 DUP7 DUP7 DUP1 DUP1 PUSH1 0x1F ADD PUSH1 0x20 DUP1 SWAP2 DIV MUL PUSH1 0x20 ADD PUSH1 0x40 MLOAD SWAP1 DUP2 ADD PUSH1 0x40 MSTORE DUP1 SWAP4 SWAP3 SWAP2 SWAP1 DUP2 DUP2 MSTORE PUSH1 0x20 ADD DUP4 DUP4 DUP1 DUP3 DUP5 CALLDATACOPY PUSH0 DUP2 DUP5 ADD MSTORE PUSH1 0x1F NOT PUSH1 0x1F DUP3 ADD AND SWAP1 POP DUP1 DUP4 ADD SWAP3 POP POP POP POP POP POP POP DUP2 MSTORE PUSH1 0x20 ADD DUP5 DUP5 DUP1 DUP1 PUSH1 0x1F ADD PUSH1 0x20 DUP1 SWAP2 DIV MUL PUSH1 0x20 ADD PUSH1 0x40 MLOAD SWAP1 DUP2 ADD PUSH1 0x40 MSTORE DUP1 SWAP4 SWAP3 SWAP2 SWAP1 DUP2 DUP2 MSTORE PUSH1 0x20 ADD DUP4 DUP4 DUP1 DUP3 DUP5 CALLDATACOPY PUSH0 DUP2 DUP5 ADD MSTORE PUSH1 0x1F NOT PUSH1 0x1F DUP3 ADD AND SWAP1 POP DUP1 DUP4 ADD SWAP3 POP POP POP POP POP POP POP DUP2 MSTORE PUSH1 0x20 ADD DUP3 PUSH20 0xFFFFFFFFFFFFFFFFFFFFFFFFFFFFFFFFFFFFFFFF AND DUP2 MSTORE PUSH1 0x20 ADD PUSH1 0x1 ISZERO ISZERO DUP2 MSTORE PUSH1 0x20 ADD PUSH0 PUSH1 0x2 DUP2 GT ISZERO PUSH2 0x2078 JUMPI PUSH2 0x2077 PUSH2 0x2764 JUMP JUMPDEST JUMPDEST DUP2 MSTORE PUSH1 0x20 ADD TIMESTAMP DUP2 MSTORE POP PUSH1 0x1 PUSH0 CALLER PUSH20 0xFFFFFFFFFFFFFFFFFFFFFFFFFFFFFFFFFFFFFFFF AND PUSH20 0xFFFFFFFFFFFFFFFFFFFFFFFFFFFFFFFFFFFFFFFF AND DUP2 MSTORE PUSH1 0x20 ADD SWAP1 DUP2 MSTORE PUSH1 0x20 ADD PUSH0 KECCAK256 PUSH0 DUP3 ADD MLOAD DUP2 PUSH0 ADD SWAP1 DUP2 PUSH2 0x20D1 SWAP2 SWAP1 PUSH2 0x3136 JUMP JUMPDEST POP PUSH1 0x20 DUP3 ADD MLOAD DUP2 PUSH1 0x1 ADD SWAP1 DUP2 PUSH2 0x20E7 SWAP2 SWAP1 PUSH2 0x3136 JUMP JUMPDEST POP PUSH1 0x40 DUP3 ADD MLOAD DUP2 PUSH1 0x2 ADD PUSH0 PUSH2 0x100 EXP DUP2 SLOAD DUP2 PUSH20 0xFFFFFFFFFFFFFFFFFFFFFFFFFFFFFFFFFFFFFFFF MUL NOT AND SWAP1 DUP4 PUSH20 0xFFFFFFFFFFFFFFFFFFFFFFFFFFFFFFFFFFFFFFFF AND MUL OR SWAP1 SSTORE POP PUSH1 0x60 DUP3 ADD MLOAD DUP2 PUSH1 0x2 ADD PUSH1 0x14 PUSH2 0x100 EXP DUP2 SLOAD DUP2 PUSH1 0xFF MUL NOT AND SWAP1 DUP4 ISZERO ISZERO MUL OR SWAP1 SSTORE POP PUSH1 0x80 DUP3 ADD MLOAD DUP2 PUSH1 0x2 ADD PUSH1 0x15 PUSH2 0x100 EXP DUP2 SLOAD DUP2 PUSH1 0xFF MUL NOT AND SWAP1 DUP4 PUSH1 0x2 DUP2 GT ISZERO PUSH2 0x2179 JUMPI PUSH2 0x2178 PUSH2 0x2764 JUMP JUMPDEST JUMPDEST MUL OR SWAP1 SSTORE POP PUSH1 0xA0 DUP3 ADD MLOAD DUP2 PUSH1 0x3 ADD SSTORE SWAP1 POP POP PUSH1 0x4 PUSH0 DUP3 PUSH20 0xFFFFFFFFFFFFFFFFFFFFFFFFFFFFFFFFFFFFFFFF AND PUSH20 0xFFFFFFFFFFFFFFFFFFFFFFFFFFFFFFFFFFFFFFFF AND DUP2 MSTORE PUSH1 0x20 ADD SWAP1 DUP2 MSTORE PUSH1 0x20 ADD PUSH0 KECCAK256 CALLER SWAP1 DUP1 PUSH1 0x1 DUP2 SLOAD ADD DUP1 DUP3 SSTORE DUP1 SWAP2 POP POP PUSH1 0x1 SWAP1 SUB SWAP1 PUSH0 MSTORE PUSH1 0x20 PUSH0 KECCAK256 ADD PUSH0 SWAP1 SWAP2 SWAP1 SWAP2 SWAP1 SWAP2 PUSH2 0x100 EXP DUP2 SLOAD DUP2 PUSH20 0xFFFFFFFFFFFFFFFFFFFFFFFFFFFFFFFFFFFFFFFF MUL NOT AND SWAP1 DUP4 PUSH20 0xFFFFFFFFFFFFFFFFFFFFFFFFFFFFFFFFFFFFFFFF AND MUL OR SWAP1 SSTORE POP PUSH1 0x1 PUSH1 0x6 PUSH0 DUP4 PUSH20 0xFFFFFFFFFFFFFFFFFFFFFFFFFFFFFFFFFFFFFFFF AND PUSH20 0xFFFFFFFFFFFFFFFFFFFFFFFFFFFFFFFFFFFFFFFF AND DUP2 MSTORE PUSH1 0x20 ADD SWAP1 DUP2 MSTORE PUSH1 0x20 ADD PUSH0 KECCAK256 PUSH0 CALLER PUSH20 0xFFFFFFFFFFFFFFFFFFFFFFFFFFFFFFFFFFFFFFFF AND PUSH20 0xFFFFFFFFFFFFFFFFFFFFFFFFFFFFFFFFFFFFFFFF AND DUP2 MSTORE PUSH1 0x20 ADD SWAP1 DUP2 MSTORE PUSH1 0x20 ADD PUSH0 KECCAK256 PUSH0 PUSH2 0x100 EXP DUP2 SLOAD DUP2 PUSH1 0xFF MUL NOT AND SWAP1 DUP4 ISZERO ISZERO MUL OR SWAP1 SSTORE POP DUP1 PUSH20 0xFFFFFFFFFFFFFFFFFFFFFFFFFFFFFFFFFFFFFFFF AND CALLER PUSH20 0xFFFFFFFFFFFFFFFFFFFFFFFFFFFFFFFFFFFFFFFF AND PUSH32 0x90935B2E8EA2A16F5CB7D5B4437F4637E6824AFA100EE9B42A9647CDE7316F63 DUP8 DUP8 DUP8 DUP8 PUSH1 0x40 MLOAD PUSH2 0x2319 SWAP5 SWAP4 SWAP3 SWAP2 SWAP1 PUSH2 0x323F JUMP JUMPDEST PUSH1 0x40 MLOAD DUP1 SWAP2 SUB SWAP1 LOG3 POP POP POP POP POP JUMP JUMPDEST PUSH1 0x5 PUSH1 0x20 MSTORE DUP2 PUSH0 MSTORE PUSH1 0x40 PUSH0 KECCAK256 DUP2 DUP2 SLOAD DUP2 LT PUSH2 0x2341 JUMPI PUSH0 DUP1 REVERT JUMPDEST SWAP1 PUSH0 MSTORE PUSH1 0x20 PUSH0 KECCAK256 ADD PUSH0 SWAP2 POP SWAP2 POP SWAP1 SLOAD SWAP1 PUSH2 0x100 EXP SWAP1 DIV PUSH20 0xFFFFFFFFFFFFFFFFFFFFFFFFFFFFFFFFFFFFFFFF AND DUP2 JUMP JUMPDEST PUSH0 DUP1 PUSH0 SWAP1 POP JUMPDEST DUP4 DUP1 SLOAD SWAP1 POP DUP2 LT ISZERO PUSH2 0x24EC JUMPI DUP3 PUSH20 0xFFFFFFFFFFFFFFFFFFFFFFFFFFFFFFFFFFFFFFFF AND DUP5 DUP3 DUP2 SLOAD DUP2 LT PUSH2 0x23AC JUMPI PUSH2 0x23AB PUSH2 0x3278 JUMP JUMPDEST JUMPDEST SWAP1 PUSH0 MSTORE PUSH1 0x20 PUSH0 KECCAK256 ADD PUSH0 SWAP1 SLOAD SWAP1 PUSH2 0x100 EXP SWAP1 DIV PUSH20 0xFFFFFFFFFFFFFFFFFFFFFFFFFFFFFFFFFFFFFFFF AND PUSH20 0xFFFFFFFFFFFFFFFFFFFFFFFFFFFFFFFFFFFFFFFF AND SUB PUSH2 0x24DF JUMPI DUP4 PUSH1 0x1 DUP6 DUP1 SLOAD SWAP1 POP PUSH2 0x2401 SWAP2 SWAP1 PUSH2 0x32D2 JUMP JUMPDEST DUP2 SLOAD DUP2 LT PUSH2 0x2412 JUMPI PUSH2 0x2411 PUSH2 0x3278 JUMP JUMPDEST JUMPDEST SWAP1 PUSH0 MSTORE PUSH1 0x20 PUSH0 KECCAK256 ADD PUSH0 SWAP1 SLOAD SWAP1 PUSH2 0x100 EXP SWAP1 DIV PUSH20 0xFFFFFFFFFFFFFFFFFFFFFFFFFFFFFFFFFFFFFFFF AND DUP5 DUP3 DUP2 SLOAD DUP2 LT PUSH2 0x244D JUMPI PUSH2 0x244C PUSH2 0x3278 JUMP JUMPDEST JUMPDEST SWAP1 PUSH0 MSTORE PUSH1 0x20 PUSH0 KECCAK256 ADD PUSH0 PUSH2 0x100 EXP DUP2 SLOAD DUP2 PUSH20 0xFFFFFFFFFFFFFFFFFFFFFFFFFFFFFFFFFFFFFFFF MUL NOT AND SWAP1 DUP4 PUSH20 0xFFFFFFFFFFFFFFFFFFFFFFFFFFFFFFFFFFFFFFFF AND MUL OR SWAP1 SSTORE POP DUP4 DUP1 SLOAD DUP1 PUSH2 0x24A3 JUMPI PUSH2 0x24A2 PUSH2 0x3305 JUMP JUMPDEST JUMPDEST PUSH1 0x1 SWAP1 SUB DUP2 DUP2 SWAP1 PUSH0 MSTORE PUSH1 0x20 PUSH0 KECCAK256 ADD PUSH0 PUSH2 0x100 EXP DUP2 SLOAD SWAP1 PUSH20 0xFFFFFFFFFFFFFFFFFFFFFFFFFFFFFFFFFFFFFFFF MUL NOT AND SWAP1 SSTORE SWAP1 SSTORE PUSH1 0x1 SWAP2 POP POP PUSH2 0x24F1 JUMP JUMPDEST DUP1 DUP1 PUSH1 0x1 ADD SWAP2 POP POP PUSH2 0x2376 JUMP JUMPDEST POP PUSH0 SWAP1 POP JUMPDEST SWAP3 SWAP2 POP POP JUMP JUMPDEST PUSH0 DUP1 REVERT JUMPDEST PUSH0 DUP1 REVERT JUMPDEST PUSH0 PUSH20 0xFFFFFFFFFFFFFFFFFFFFFFFFFFFFFFFFFFFFFFFF DUP3 AND SWAP1 POP SWAP2 SWAP1 POP JUMP JUMPDEST PUSH0 PUSH2 0x2528 DUP3 PUSH2 0x24FF JUMP JUMPDEST SWAP1 POP SWAP2 SWAP1 POP JUMP JUMPDEST PUSH2 0x2538 DUP2 PUSH2 0x251E JUMP JUMPDEST DUP2 EQ PUSH2 0x2542 JUMPI PUSH0 DUP1 REVERT JUMPDEST POP JUMP JUMPDEST PUSH0 DUP2 CALLDATALOAD SWAP1 POP PUSH2 0x2553 DUP2 PUSH2 0x252F JUMP JUMPDEST SWAP3 SWAP2 POP POP JUMP JUMPDEST PUSH0 PUSH1 0x20 DUP3 DUP5 SUB SLT ISZERO PUSH2 0x256E JUMPI PUSH2 0x256D PUSH2 0x24F7 JUMP JUMPDEST JUMPDEST PUSH0 PUSH2 0x257B DUP5 DUP3 DUP6 ADD PUSH2 0x2545 JUMP JUMPDEST SWAP2 POP POP SWAP3 SWAP2 POP POP JUMP JUMPDEST PUSH0 DUP2 MLOAD SWAP1 POP SWAP2 SWAP1 POP JUMP JUMPDEST PUSH0 DUP3 DUP3 MSTORE PUSH1 0x20 DUP3 ADD SWAP1 POP SWAP3 SWAP2 POP POP JUMP JUMPDEST PUSH0 DUP2 SWAP1 POP PUSH1 0x20 DUP3 ADD SWAP1 POP SWAP2 SWAP1 POP JUMP JUMPDEST PUSH2 0x25B6 DUP2 PUSH2 0x251E JUMP JUMPDEST DUP3 MSTORE POP POP JUMP JUMPDEST PUSH0 PUSH2 0x25C7 DUP4 DUP4 PUSH2 0x25AD JUMP JUMPDEST PUSH1 0x20 DUP4 ADD SWAP1 POP SWAP3 SWAP2 POP POP JUMP JUMPDEST PUSH0 PUSH1 0x20 DUP3 ADD SWAP1 POP SWAP2 SWAP1 POP JUMP JUMPDEST PUSH0 PUSH2 0x25E9 DUP3 PUSH2 0x2584 JUMP JUMPDEST PUSH2 0x25F3 DUP2 DUP6 PUSH2 0x258E JUMP JUMPDEST SWAP4 POP PUSH2 0x25FE DUP4 PUSH2 0x259E JUMP JUMPDEST DUP1 PUSH0 JUMPDEST DUP4 DUP2 LT ISZERO PUSH2 0x262E JUMPI DUP2 MLOAD PUSH2 0x2615 DUP9 DUP3 PUSH2 0x25BC JUMP JUMPDEST SWAP8 POP PUSH2 0x2620 DUP4 PUSH2 0x25D3 JUMP JUMPDEST SWAP3 POP POP PUSH1 0x1 DUP2 ADD SWAP1 POP PUSH2 0x2601 JUMP JUMPDEST POP DUP6 SWAP4 POP POP POP POP SWAP3 SWAP2 POP POP JUMP JUMPDEST PUSH0 PUSH1 0x20 DUP3 ADD SWAP1 POP DUP2 DUP2 SUB PUSH0 DUP4 ADD MSTORE PUSH2 0x2653 DUP2 DUP5 PUSH2 0x25DF JUMP JUMPDEST SWAP1 POP SWAP3 SWAP2 POP POP JUMP JUMPDEST PUSH0 DUP2 SWAP1 POP SWAP2 SWAP1 POP JUMP JUMPDEST PUSH2 0x266D DUP2 PUSH2 0x265B JUMP JUMPDEST DUP2 EQ PUSH2 0x2677 JUMPI PUSH0 DUP1 REVERT JUMPDEST POP JUMP JUMPDEST PUSH0 DUP2 CALLDATALOAD SWAP1 POP PUSH2 0x2688 DUP2 PUSH2 0x2664 JUMP JUMPDEST SWAP3 SWAP2 POP POP JUMP JUMPDEST PUSH0 DUP1 PUSH1 0x40 DUP4 DUP6 SUB SLT ISZERO PUSH2 0x26A4 JUMPI PUSH2 0x26A3 PUSH2 0x24F7 JUMP JUMPDEST JUMPDEST PUSH0 PUSH2 0x26B1 DUP6 DUP3 DUP7 ADD PUSH2 0x2545 JUMP JUMPDEST SWAP3 POP POP PUSH1 0x20 PUSH2 0x26C2 DUP6 DUP3 DUP7 ADD PUSH2 0x267A JUMP JUMPDEST SWAP2 POP POP SWAP3 POP SWAP3 SWAP1 POP JUMP JUMPDEST PUSH2 0x26D5 DUP2 PUSH2 0x251E JUMP JUMPDEST DUP3 MSTORE POP POP JUMP JUMPDEST PUSH0 PUSH1 0x20 DUP3 ADD SWAP1 POP PUSH2 0x26EE PUSH0 DUP4 ADD DUP5 PUSH2 0x26CC JUMP JUMPDEST SWAP3 SWAP2 POP POP JUMP JUMPDEST PUSH0 DUP2 MLOAD SWAP1 POP SWAP2 SWAP1 POP JUMP JUMPDEST PUSH0 DUP3 DUP3 MSTORE PUSH1 0x20 DUP3 ADD SWAP1 POP SWAP3 SWAP2 POP POP JUMP JUMPDEST DUP3 DUP2 DUP4 MCOPY PUSH0 DUP4 DUP4 ADD MSTORE POP POP POP JUMP JUMPDEST PUSH0 PUSH1 0x1F NOT PUSH1 0x1F DUP4 ADD AND SWAP1 POP SWAP2 SWAP1 POP JUMP JUMPDEST PUSH0 PUSH2 0x2736 DUP3 PUSH2 0x26F4 JUMP JUMPDEST PUSH2 0x2740 DUP2 DUP6 PUSH2 0x26FE JUMP JUMPDEST SWAP4 POP PUSH2 0x2750 DUP2 DUP6 PUSH1 0x20 DUP7 ADD PUSH2 0x270E JUMP JUMPDEST PUSH2 0x2759 DUP2 PUSH2 0x271C JUMP JUMPDEST DUP5 ADD SWAP2 POP POP SWAP3 SWAP2 POP POP JUMP JUMPDEST PUSH32 0x4E487B7100000000000000000000000000000000000000000000000000000000 PUSH0 MSTORE PUSH1 0x21 PUSH1 0x4 MSTORE PUSH1 0x24 PUSH0 REVERT JUMPDEST PUSH1 0x3 DUP2 LT PUSH2 0x27A2 JUMPI PUSH2 0x27A1 PUSH2 0x2764 JUMP JUMPDEST JUMPDEST POP JUMP JUMPDEST PUSH0 DUP2 SWAP1 POP PUSH2 0x27B2 DUP3 PUSH2 0x2791 JUMP JUMPDEST SWAP2 SWAP1 POP JUMP JUMPDEST PUSH0 PUSH2 0x27C1 DUP3 PUSH2 0x27A5 JUMP JUMPDEST SWAP1 POP SWAP2 SWAP1 POP JUMP JUMPDEST PUSH2 0x27D1 DUP2 PUSH2 0x27B7 JUMP JUMPDEST DUP3 MSTORE POP POP JUMP JUMPDEST PUSH0 PUSH1 0x80 DUP3 ADD SWAP1 POP DUP2 DUP2 SUB PUSH0 DUP4 ADD MSTORE PUSH2 0x27EF DUP2 DUP8 PUSH2 0x272C JUMP JUMPDEST SWAP1 POP DUP2 DUP2 SUB PUSH1 0x20 DUP4 ADD MSTORE PUSH2 0x2803 DUP2 DUP7 PUSH2 0x272C JUMP JUMPDEST SWAP1 POP PUSH2 0x2812 PUSH1 0x40 DUP4 ADD DUP6 PUSH2 0x26CC JUMP JUMPDEST PUSH2 0x281F PUSH1 0x60 DUP4 ADD DUP5 PUSH2 0x27C8 JUMP JUMPDEST SWAP6 SWAP5 POP POP POP POP POP JUMP JUMPDEST PUSH0 DUP2 ISZERO ISZERO SWAP1 POP SWAP2 SWAP1 POP JUMP JUMPDEST PUSH2 0x283C DUP2 PUSH2 0x2828 JUMP JUMPDEST DUP3 MSTORE POP POP JUMP JUMPDEST PUSH0 PUSH1 0x20 DUP3 ADD SWAP1 POP PUSH2 0x2855 PUSH0 DUP4 ADD DUP5 PUSH2 0x2833 JUMP JUMPDEST SWAP3 SWAP2 POP POP JUMP JUMPDEST PUSH2 0x2864 DUP2 PUSH2 0x265B JUMP JUMPDEST DUP3 MSTORE POP POP JUMP JUMPDEST PUSH0 PUSH1 0xC0 DUP3 ADD SWAP1 POP DUP2 DUP2 SUB PUSH0 DUP4 ADD MSTORE PUSH2 0x2882 DUP2 DUP10 PUSH2 0x272C JUMP JUMPDEST SWAP1 POP DUP2 DUP2 SUB PUSH1 0x20 DUP4 ADD MSTORE PUSH2 0x2896 DUP2 DUP9 PUSH2 0x272C JUMP JUMPDEST SWAP1 POP PUSH2 0x28A5 PUSH1 0x40 DUP4 ADD DUP8 PUSH2 0x26CC JUMP JUMPDEST PUSH2 0x28B2 PUSH1 0x60 DUP4 ADD DUP7 PUSH2 0x2833 JUMP JUMPDEST PUSH2 0x28BF PUSH1 0x80 DUP4 ADD DUP6 PUSH2 0x27C8 JUMP JUMPDEST PUSH2 0x28CC PUSH1 0xA0 DUP4 ADD DUP5 PUSH2 0x285B JUMP JUMPDEST SWAP8 SWAP7 POP POP POP POP POP POP POP JUMP JUMPDEST PUSH0 DUP1 PUSH1 0x40 DUP4 DUP6 SUB SLT ISZERO PUSH2 0x28ED JUMPI PUSH2 0x28EC PUSH2 0x24F7 JUMP JUMPDEST JUMPDEST PUSH0 PUSH2 0x28FA DUP6 DUP3 DUP7 ADD PUSH2 0x2545 JUMP JUMPDEST SWAP3 POP POP PUSH1 0x20 PUSH2 0x290B DUP6 DUP3 DUP7 ADD PUSH2 0x2545 JUMP JUMPDEST SWAP2 POP POP SWAP3 POP SWAP3 SWAP1 POP JUMP JUMPDEST PUSH0 PUSH1 0x60 DUP3 ADD SWAP1 POP DUP2 DUP2 SUB PUSH0 DUP4 ADD MSTORE PUSH2 0x292D DUP2 DUP7 PUSH2 0x272C JUMP JUMPDEST SWAP1 POP DUP2 DUP2 SUB PUSH1 0x20 DUP4 ADD MSTORE PUSH2 0x2941 DUP2 DUP6 PUSH2 0x272C JUMP JUMPDEST SWAP1 POP PUSH2 0x2950 PUSH1 0x40 DUP4 ADD DUP5 PUSH2 0x26CC JUMP JUMPDEST SWAP5 SWAP4 POP POP POP POP JUMP JUMPDEST PUSH0 DUP1 REVERT JUMPDEST PUSH0 DUP1 REVERT JUMPDEST PUSH0 DUP1 REVERT JUMPDEST PUSH0 DUP1 DUP4 PUSH1 0x1F DUP5 ADD SLT PUSH2 0x2979 JUMPI PUSH2 0x2978 PUSH2 0x2958 JUMP JUMPDEST JUMPDEST DUP3 CALLDATALOAD SWAP1 POP PUSH8 0xFFFFFFFFFFFFFFFF DUP2 GT ISZERO PUSH2 0x2996 JUMPI PUSH2 0x2995 PUSH2 0x295C JUMP JUMPDEST JUMPDEST PUSH1 0x20 DUP4 ADD SWAP2 POP DUP4 PUSH1 0x1 DUP3 MUL DUP4 ADD GT ISZERO PUSH2 0x29B2 JUMPI PUSH2 0x29B1 PUSH2 0x2960 JUMP JUMPDEST JUMPDEST SWAP3 POP SWAP3 SWAP1 POP JUMP JUMPDEST PUSH0 DUP1 PUSH0 DUP1 PUSH0 PUSH1 0x60 DUP7 DUP9 SUB SLT ISZERO PUSH2 0x29D2 JUMPI PUSH2 0x29D1 PUSH2 0x24F7 JUMP JUMPDEST JUMPDEST PUSH0 DUP7 ADD CALLDATALOAD PUSH8 0xFFFFFFFFFFFFFFFF DUP2 GT ISZERO PUSH2 0x29EF JUMPI PUSH2 0x29EE PUSH2 0x24FB JUMP JUMPDEST JUMPDEST PUSH2 0x29FB DUP9 DUP3 DUP10 ADD PUSH2 0x2964 JUMP JUMPDEST SWAP6 POP SWAP6 POP POP PUSH1 0x20 DUP7 ADD CALLDATALOAD PUSH8 0xFFFFFFFFFFFFFFFF DUP2 GT ISZERO PUSH2 0x2A1E JUMPI PUSH2 0x2A1D PUSH2 0x24FB JUMP JUMPDEST JUMPDEST PUSH2 0x2A2A DUP9 DUP3 DUP10 ADD PUSH2 0x2964 JUMP JUMPDEST SWAP4 POP SWAP4 POP POP PUSH1 0x40 PUSH2 0x2A3D DUP9 DUP3 DUP10 ADD PUSH2 0x2545 JUMP JUMPDEST SWAP2 POP POP SWAP3 SWAP6 POP SWAP3 SWAP6 SWAP1 SWAP4 POP JUMP JUMPDEST PUSH32 0x4E6F7420636F6E7472616374206F776E65720000000000000000000000000000 PUSH0 DUP3 ADD MSTORE POP JUMP JUMPDEST PUSH0 PUSH2 0x2A7E PUSH1 0x12 DUP4 PUSH2 0x26FE JUMP JUMPDEST SWAP2 POP PUSH2 0x2A89 DUP3 PUSH2 0x2A4A JUMP JUMPDEST PUSH1 0x20 DUP3 ADD SWAP1 POP SWAP2 SWAP1 POP JUMP JUMPDEST PUSH0 PUSH1 0x20 DUP3 ADD SWAP1 POP DUP2 DUP2 SUB PUSH0 DUP4 ADD MSTORE PUSH2 0x2AAB DUP2 PUSH2 0x2A72 JUMP JUMPDEST SWAP1 POP SWAP2 SWAP1 POP JUMP JUMPDEST PUSH32 0x496E76616C69642070726F766964657220616464726573730000000000000000 PUSH0 DUP3 ADD MSTORE POP JUMP JUMPDEST PUSH0 PUSH2 0x2AE6 PUSH1 0x18 DUP4 PUSH2 0x26FE JUMP JUMPDEST SWAP2 POP PUSH2 0x2AF1 DUP3 PUSH2 0x2AB2 JUMP JUMPDEST PUSH1 0x20 DUP3 ADD SWAP1 POP SWAP2 SWAP1 POP JUMP JUMPDEST PUSH0 PUSH1 0x20 DUP3 ADD SWAP1 POP DUP2 DUP2 SUB PUSH0 DUP4 ADD MSTORE PUSH2 0x2B13 DUP2 PUSH2 0x2ADA JUMP JUMPDEST SWAP1 POP SWAP2 SWAP1 POP JUMP JUMPDEST PUSH32 0x4E487B7100000000000000000000000000000000000000000000000000000000 PUSH0 MSTORE PUSH1 0x22 PUSH1 0x4 MSTORE PUSH1 0x24 PUSH0 REVERT JUMPDEST PUSH0 PUSH1 0x2 DUP3 DIV SWAP1 POP PUSH1 0x1 DUP3 AND DUP1 PUSH2 0x2B5E JUMPI PUSH1 0x7F DUP3 AND SWAP2 POP JUMPDEST PUSH1 0x20 DUP3 LT DUP2 SUB PUSH2 0x2B71 JUMPI PUSH2 0x2B70 PUSH2 0x2B1A JUMP JUMPDEST JUMPDEST POP SWAP2 SWAP1 POP JUMP JUMPDEST PUSH32 0x4E6F7420612072656769737465726564206761732070726F7669646572000000 PUSH0 DUP3 ADD MSTORE POP JUMP JUMPDEST PUSH0 PUSH2 0x2BAB PUSH1 0x1D DUP4 PUSH2 0x26FE JUMP JUMPDEST SWAP2 POP PUSH2 0x2BB6 DUP3 PUSH2 0x2B77 JUMP JUMPDEST PUSH1 0x20 DUP3 ADD SWAP1 POP SWAP2 SWAP1 POP JUMP JUMPDEST PUSH0 PUSH1 0x20 DUP3 ADD SWAP1 POP DUP2 DUP2 SUB PUSH0 DUP4 ADD MSTORE PUSH2 0x2BD8 DUP2 PUSH2 0x2B9F JUMP JUMPDEST SWAP1 POP SWAP2 SWAP1 POP JUMP JUMPDEST PUSH32 0x5573657220646964206E6F74206170706C7920746F20746869732070726F7669 PUSH0 DUP3 ADD MSTORE PUSH32 0x6465720000000000000000000000000000000000000000000000000000000000 PUSH1 0x20 DUP3 ADD MSTORE POP JUMP JUMPDEST PUSH0 PUSH2 0x2C39 PUSH1 0x23 DUP4 PUSH2 0x26FE JUMP JUMPDEST SWAP2 POP PUSH2 0x2C44 DUP3 PUSH2 0x2BDF JUMP JUMPDEST PUSH1 0x40 DUP3 ADD SWAP1 POP SWAP2 SWAP1 POP JUMP JUMPDEST PUSH0 PUSH1 0x20 DUP3 ADD SWAP1 POP DUP2 DUP2 SUB PUSH0 DUP4 ADD MSTORE PUSH2 0x2C66 DUP2 PUSH2 0x2C2D JUMP JUMPDEST SWAP1 POP SWAP2 SWAP1 POP JUMP JUMPDEST PUSH32 0x4B5943206E6F74207375626D6974746564000000000000000000000000000000 PUSH0 DUP3 ADD MSTORE POP JUMP JUMPDEST PUSH0 PUSH2 0x2CA1 PUSH1 0x11 DUP4 PUSH2 0x26FE JUMP JUMPDEST SWAP2 POP PUSH2 0x2CAC DUP3 PUSH2 0x2C6D JUMP JUMPDEST PUSH1 0x20 DUP3 ADD SWAP1 POP SWAP2 SWAP1 POP JUMP JUMPDEST PUSH0 PUSH1 0x20 DUP3 ADD SWAP1 POP DUP2 DUP2 SUB PUSH0 DUP4 ADD MSTORE PUSH2 0x2CCE DUP2 PUSH2 0x2C95 JUMP JUMPDEST SWAP1 POP SWAP2 SWAP1 POP JUMP JUMPDEST PUSH32 0x496E76616C69642070726F766964657200000000000000000000000000000000 PUSH0 DUP3 ADD MSTORE POP JUMP JUMPDEST PUSH0 PUSH2 0x2D09 PUSH1 0x10 DUP4 PUSH2 0x26FE JUMP JUMPDEST SWAP2 POP PUSH2 0x2D14 DUP3 PUSH2 0x2CD5 JUMP JUMPDEST PUSH1 0x20 DUP3 ADD SWAP1 POP SWAP2 SWAP1 POP JUMP JUMPDEST PUSH0 PUSH1 0x20 DUP3 ADD SWAP1 POP DUP2 DUP2 SUB PUSH0 DUP4 ADD MSTORE PUSH2 0x2D36 DUP2 PUSH2 0x2CFD JUMP JUMPDEST SWAP1 POP SWAP2 SWAP1 POP JUMP JUMPDEST PUSH32 0x416C7265616479207769746820746869732070726F7669646572000000000000 PUSH0 DUP3 ADD MSTORE POP JUMP JUMPDEST PUSH0 PUSH2 0x2D71 PUSH1 0x1A DUP4 PUSH2 0x26FE JUMP JUMPDEST SWAP2 POP PUSH2 0x2D7C DUP3 PUSH2 0x2D3D JUMP JUMPDEST PUSH1 0x20 DUP3 ADD SWAP1 POP SWAP2 SWAP1 POP JUMP JUMPDEST PUSH0 PUSH1 0x20 DUP3 ADD SWAP1 POP DUP2 DUP2 SUB PUSH0 DUP4 ADD MSTORE PUSH2 0x2D9E DUP2 PUSH2 0x2D65 JUMP JUMPDEST SWAP1 POP SWAP2 SWAP1 POP JUMP JUMPDEST PUSH32 0x416C726561647920726571756573746564000000000000000000000000000000 PUSH0 DUP3 ADD MSTORE POP JUMP JUMPDEST PUSH0 PUSH2 0x2DD9 PUSH1 0x11 DUP4 PUSH2 0x26FE JUMP JUMPDEST SWAP2 POP PUSH2 0x2DE4 DUP3 PUSH2 0x2DA5 JUMP JUMPDEST PUSH1 0x20 DUP3 ADD SWAP1 POP SWAP2 SWAP1 POP JUMP JUMPDEST PUSH0 PUSH1 0x20 DUP3 ADD SWAP1 POP DUP2 DUP2 SUB PUSH0 DUP4 ADD MSTORE PUSH2 0x2E06 DUP2 PUSH2 0x2DCD JUMP JUMPDEST SWAP1 POP SWAP2 SWAP1 POP JUMP JUMPDEST PUSH32 0x50726F7669646572206E6F742072656769737465726564000000000000000000 PUSH0 DUP3 ADD MSTORE POP JUMP JUMPDEST PUSH0 PUSH2 0x2E41 PUSH1 0x17 DUP4 PUSH2 0x26FE JUMP JUMPDEST SWAP2 POP PUSH2 0x2E4C DUP3 PUSH2 0x2E0D JUMP JUMPDEST PUSH1 0x20 DUP3 ADD SWAP1 POP SWAP2 SWAP1 POP JUMP JUMPDEST PUSH0 PUSH1 0x20 DUP3 ADD SWAP1 POP DUP2 DUP2 SUB PUSH0 DUP4 ADD MSTORE PUSH2 0x2E6E DUP2 PUSH2 0x2E35 JUMP JUMPDEST SWAP1 POP SWAP2 SWAP1 POP JUMP JUMPDEST PUSH0 PUSH1 0x40 DUP3 ADD SWAP1 POP PUSH2 0x2E88 PUSH0 DUP4 ADD DUP6 PUSH2 0x285B JUMP JUMPDEST PUSH2 0x2E95 PUSH1 0x20 DUP4 ADD DUP5 PUSH2 0x285B JUMP JUMPDEST SWAP4 SWAP3 POP POP POP JUMP JUMPDEST PUSH32 0x4950465320686173682063616E6E6F7420626520656D70747900000000000000 PUSH0 DUP3 ADD MSTORE POP JUMP JUMPDEST PUSH0 PUSH2 0x2ED0 PUSH1 0x19 DUP4 PUSH2 0x26FE JUMP JUMPDEST SWAP2 POP PUSH2 0x2EDB DUP3 PUSH2 0x2E9C JUMP JUMPDEST PUSH1 0x20 DUP3 ADD SWAP1 POP SWAP2 SWAP1 POP JUMP JUMPDEST PUSH0 PUSH1 0x20 DUP3 ADD SWAP1 POP DUP2 DUP2 SUB PUSH0 DUP4 ADD MSTORE PUSH2 0x2EFD DUP2 PUSH2 0x2EC4 JUMP JUMPDEST SWAP1 POP SWAP2 SWAP1 POP JUMP JUMPDEST PUSH32 0x4B594320616C7265616479207375626D69747465640000000000000000000000 PUSH0 DUP3 ADD MSTORE POP JUMP JUMPDEST PUSH0 PUSH2 0x2F38 PUSH1 0x15 DUP4 PUSH2 0x26FE JUMP JUMPDEST SWAP2 POP PUSH2 0x2F43 DUP3 PUSH2 0x2F04 JUMP JUMPDEST PUSH1 0x20 DUP3 ADD SWAP1 POP SWAP2 SWAP1 POP JUMP JUMPDEST PUSH0 PUSH1 0x20 DUP3 ADD SWAP1 POP DUP2 DUP2 SUB PUSH0 DUP4 ADD MSTORE PUSH2 0x2F65 DUP2 PUSH2 0x2F2C JUMP JUMPDEST SWAP1 POP SWAP2 SWAP1 POP JUMP JUMPDEST PUSH32 0x4E487B7100000000000000000000000000000000000000000000000000000000 PUSH0 MSTORE PUSH1 0x41 PUSH1 0x4 MSTORE PUSH1 0x24 PUSH0 REVERT JUMPDEST PUSH0 DUP2 SWAP1 POP DUP2 PUSH0 MSTORE PUSH1 0x20 PUSH0 KECCAK256 SWAP1 POP SWAP2 SWAP1 POP JUMP JUMPDEST PUSH0 PUSH1 0x20 PUSH1 0x1F DUP4 ADD DIV SWAP1 POP SWAP2 SWAP1 POP JUMP JUMPDEST PUSH0 DUP3 DUP3 SHL SWAP1 POP SWAP3 SWAP2 POP POP JUMP JUMPDEST PUSH0 PUSH1 0x8 DUP4 MUL PUSH2 0x2FF5 PUSH32 0xFFFFFFFFFFFFFFFFFFFFFFFFFFFFFFFFFFFFFFFFFFFFFFFFFFFFFFFFFFFFFFFF DUP3 PUSH2 0x2FBA JUMP JUMPDEST PUSH2 0x2FFF DUP7 DUP4 PUSH2 0x2FBA JUMP JUMPDEST SWAP6 POP DUP1 NOT DUP5 AND SWAP4 POP DUP1 DUP7 AND DUP5 OR SWAP3 POP POP POP SWAP4 SWAP3 POP POP POP JUMP JUMPDEST PUSH0 DUP2 SWAP1 POP SWAP2 SWAP1 POP JUMP JUMPDEST PUSH0 PUSH2 0x303A PUSH2 0x3035 PUSH2 0x3030 DUP5 PUSH2 0x265B JUMP JUMPDEST PUSH2 0x3017 JUMP JUMPDEST PUSH2 0x265B JUMP JUMPDEST SWAP1 POP SWAP2 SWAP1 POP JUMP JUMPDEST PUSH0 DUP2 SWAP1 POP SWAP2 SWAP1 POP JUMP JUMPDEST PUSH2 0x3053 DUP4 PUSH2 0x3020 JUMP JUMPDEST PUSH2 0x3067 PUSH2 0x305F DUP3 PUSH2 0x3041 JUMP JUMPDEST DUP5 DUP5 SLOAD PUSH2 0x2FC6 JUMP JUMPDEST DUP3 SSTORE POP POP POP POP JUMP JUMPDEST PUSH0 SWAP1 JUMP JUMPDEST PUSH2 0x307B PUSH2 0x306F JUMP JUMPDEST PUSH2 0x3086 DUP2 DUP5 DUP5 PUSH2 0x304A JUMP JUMPDEST POP POP POP JUMP JUMPDEST JUMPDEST DUP2 DUP2 LT ISZERO PUSH2 0x30A9 JUMPI PUSH2 0x309E PUSH0 DUP3 PUSH2 0x3073 JUMP JUMPDEST PUSH1 0x1 DUP2 ADD SWAP1 POP PUSH2 0x308C JUMP JUMPDEST POP POP JUMP JUMPDEST PUSH1 0x1F DUP3 GT ISZERO PUSH2 0x30EE JUMPI PUSH2 0x30BF DUP2 PUSH2 0x2F99 JUMP JUMPDEST PUSH2 0x30C8 DUP5 PUSH2 0x2FAB JUMP JUMPDEST DUP2 ADD PUSH1 0x20 DUP6 LT ISZERO PUSH2 0x30D7 JUMPI DUP2 SWAP1 POP JUMPDEST PUSH2 0x30EB PUSH2 0x30E3 DUP6 PUSH2 0x2FAB JUMP JUMPDEST DUP4 ADD DUP3 PUSH2 0x308B JUMP JUMPDEST POP POP JUMPDEST POP POP POP JUMP JUMPDEST PUSH0 DUP3 DUP3 SHR SWAP1 POP SWAP3 SWAP2 POP POP JUMP JUMPDEST PUSH0 PUSH2 0x310E PUSH0 NOT DUP5 PUSH1 0x8 MUL PUSH2 0x30F3 JUMP JUMPDEST NOT DUP1 DUP4 AND SWAP2 POP POP SWAP3 SWAP2 POP POP JUMP JUMPDEST PUSH0 PUSH2 0x3126 DUP4 DUP4 PUSH2 0x30FF JUMP JUMPDEST SWAP2 POP DUP3 PUSH1 0x2 MUL DUP3 OR SWAP1 POP SWAP3 SWAP2 POP POP JUMP JUMPDEST PUSH2 0x313F DUP3 PUSH2 0x26F4 JUMP JUMPDEST PUSH8 0xFFFFFFFFFFFFFFFF DUP2 GT ISZERO PUSH2 0x3158 JUMPI PUSH2 0x3157 PUSH2 0x2F6C JUMP JUMPDEST JUMPDEST PUSH2 0x3162 DUP3 SLOAD PUSH2 0x2B47 JUMP JUMPDEST PUSH2 0x316D DUP3 DUP3 DUP6 PUSH2 0x30AD JUMP JUMPDEST PUSH0 PUSH1 0x20 SWAP1 POP PUSH1 0x1F DUP4 GT PUSH1 0x1 DUP2 EQ PUSH2 0x319E JUMPI PUSH0 DUP5 ISZERO PUSH2 0x318C JUMPI DUP3 DUP8 ADD MLOAD SWAP1 POP JUMPDEST PUSH2 0x3196 DUP6 DUP3 PUSH2 0x311B JUMP JUMPDEST DUP7 SSTORE POP PUSH2 0x31FD JUMP JUMPDEST PUSH1 0x1F NOT DUP5 AND PUSH2 0x31AC DUP7 PUSH2 0x2F99 JUMP JUMPDEST PUSH0 JUMPDEST DUP3 DUP2 LT ISZERO PUSH2 0x31D3 JUMPI DUP5 DUP10 ADD MLOAD DUP3 SSTORE PUSH1 0x1 DUP3 ADD SWAP2 POP PUSH1 0x20 DUP6 ADD SWAP5 POP PUSH1 0x20 DUP2 ADD SWAP1 POP PUSH2 0x31AE JUMP JUMPDEST DUP7 DUP4 LT ISZERO PUSH2 0x31F0 JUMPI DUP5 DUP10 ADD MLOAD PUSH2 0x31EC PUSH1 0x1F DUP10 AND DUP3 PUSH2 0x30FF JUMP JUMPDEST DUP4 SSTORE POP JUMPDEST PUSH1 0x1 PUSH1 0x2 DUP9 MUL ADD DUP9 SSTORE POP POP POP JUMPDEST POP POP POP POP POP POP JUMP JUMPDEST DUP3 DUP2 DUP4 CALLDATACOPY PUSH0 DUP4 DUP4 ADD MSTORE POP POP POP JUMP JUMPDEST PUSH0 PUSH2 0x321E DUP4 DUP6 PUSH2 0x26FE JUMP JUMPDEST SWAP4 POP PUSH2 0x322B DUP4 DUP6 DUP5 PUSH2 0x3205 JUMP JUMPDEST PUSH2 0x3234 DUP4 PUSH2 0x271C JUMP JUMPDEST DUP5 ADD SWAP1 POP SWAP4 SWAP3 POP POP POP JUMP JUMPDEST PUSH0 PUSH1 0x40 DUP3 ADD SWAP1 POP DUP2 DUP2 SUB PUSH0 DUP4 ADD MSTORE PUSH2 0x3258 DUP2 DUP7 DUP9 PUSH2 0x3213 JUMP JUMPDEST SWAP1 POP DUP2 DUP2 SUB PUSH1 0x20 DUP4 ADD MSTORE PUSH2 0x326D DUP2 DUP5 DUP7 PUSH2 0x3213 JUMP JUMPDEST SWAP1 POP SWAP6 SWAP5 POP POP POP POP POP JUMP JUMPDEST PUSH32 0x4E487B7100000000000000000000000000000000000000000000000000000000 PUSH0 MSTORE PUSH1 0x32 PUSH1 0x4 MSTORE PUSH1 0x24 PUSH0 REVERT JUMPDEST PUSH32 0x4E487B7100000000000000000000000000000000000000000000000000000000 PUSH0 MSTORE PUSH1 0x11 PUSH1 0x4 MSTORE PUSH1 0x24 PUSH0 REVERT JUMPDEST PUSH0 PUSH2 0x32DC DUP3 PUSH2 0x265B JUMP JUMPDEST SWAP2 POP PUSH2 0x32E7 DUP4 PUSH2 0x265B JUMP JUMPDEST SWAP3 POP DUP3 DUP3 SUB SWAP1 POP DUP2 DUP2 GT ISZERO PUSH2 0x32FF JUMPI PUSH2 0x32FE PUSH2 0x32A5 JUMP JUMPDEST JUMPDEST SWAP3 SWAP2 POP POP JUMP JUMPDEST PUSH32 0x4E487B7100000000000000000000000000000000000000000000000000000000 PUSH0 MSTORE PUSH1 0x31 PUSH1 0x4 MSTORE PUSH1 0x24 PUSH0 REVERT INVALID LOG2 PUSH5 0x6970667358 0x22 SLT KECCAK256 0x4D CALLDATALOAD SWAP9 0xCE DUP10 0xC7 0xD PUSH21 0x971FA7DA5F507DD92B68A469020502EC0D312CD39 0xD9 LOG1 0x28 PUSH5 0x736F6C6343 STOP ADDMOD BYTE STOP CALLER "
				},
				"gasEstimates": {
					"creation": {
						"codeDepositCost": "2632000",
						"executionCost": "52630",
						"totalCost": "2684630"
					},
					"external": {
						"addProvider(address)": "28187",
						"approveUser(address)": "infinite",
						"getApprovedUsers(address)": "infinite",
						"getKYC(address)": "infinite",
						"getPendingUsers(address)": "infinite",
						"getRejectedUsers(address)": "infinite",
						"hasApplied(address,address)": "infinite",
						"isGasProvider(address)": "2944",
						"owner()": "2550",
						"providerApprovedUsers(address,uint256)": "infinite",
						"providerPendingUsers(address,uint256)": "infinite",
						"providerRejectedUsers(address,uint256)": "infinite",
						"rejectUser(address)": "infinite",
						"removeProvider(address)": "30392",
						"requestChangeProvider(address)": "84315",
						"submitKYC(string,string,address)": "infinite",
						"users(address)": "infinite",
						"viewKYC(address)": "infinite"
					},
					"internal": {
						"_removeFromArray(address[] storage pointer,address)": "infinite"
					}
				},
				"methodIdentifiers": {
					"addProvider(address)": "46e2577a",
					"approveUser(address)": "d624fdb6",
					"getApprovedUsers(address)": "0a7b31ab",
					"getKYC(address)": "4d1a687d",
					"getPendingUsers(address)": "321dbe17",
					"getRejectedUsers(address)": "98b99021",
					"hasApplied(address,address)": "c41dc267",
					"isGasProvider(address)": "726b2763",
					"owner()": "8da5cb5b",
					"providerApprovedUsers(address,uint256)": "266e9a7c",
					"providerPendingUsers(address,uint256)": "1e721429",
					"providerRejectedUsers(address,uint256)": "eece635a",
					"rejectUser(address)": "4dc92885",
					"removeProvider(address)": "8a355a57",
					"requestChangeProvider(address)": "5c593d74",
					"submitKYC(string,string,address)": "df017a04",
					"users(address)": "a87430ba",
					"viewKYC(address)": "d9b18f04"
				}
			},
			"storageLayout": {
				"storage": [
					{
						"astId": 3,
						"contract": "MainKYC/kyc1.sol:KYCGasConsumer",
						"label": "owner",
						"offset": 0,
						"slot": "0",
						"type": "t_address"
					},
					{
						"astId": 26,
						"contract": "MainKYC/kyc1.sol:KYCGasConsumer",
						"label": "users",
						"offset": 0,
						"slot": "1",
						"type": "t_mapping(t_address,t_struct(User)21_storage)"
					},
					{
						"astId": 30,
						"contract": "MainKYC/kyc1.sol:KYCGasConsumer",
						"label": "isGasProvider",
						"offset": 0,
						"slot": "2",
						"type": "t_mapping(t_address,t_bool)"
					},
					{
						"astId": 35,
						"contract": "MainKYC/kyc1.sol:KYCGasConsumer",
						"label": "providerApprovedUsers",
						"offset": 0,
						"slot": "3",
						"type": "t_mapping(t_address,t_array(t_address)dyn_storage)"
					},
					{
						"astId": 40,
						"contract": "MainKYC/kyc1.sol:KYCGasConsumer",
						"label": "providerPendingUsers",
						"offset": 0,
						"slot": "4",
						"type": "t_mapping(t_address,t_array(t_address)dyn_storage)"
					},
					{
						"astId": 45,
						"contract": "MainKYC/kyc1.sol:KYCGasConsumer",
						"label": "providerRejectedUsers",
						"offset": 0,
						"slot": "5",
						"type": "t_mapping(t_address,t_array(t_address)dyn_storage)"
					},
					{
						"astId": 51,
						"contract": "MainKYC/kyc1.sol:KYCGasConsumer",
						"label": "hasApplied",
						"offset": 0,
						"slot": "6",
						"type": "t_mapping(t_address,t_mapping(t_address,t_bool))"
					}
				],
				"types": {
					"t_address": {
						"encoding": "inplace",
						"label": "address",
						"numberOfBytes": "20"
					},
					"t_array(t_address)dyn_storage": {
						"base": "t_address",
						"encoding": "dynamic_array",
						"label": "address[]",
						"numberOfBytes": "32"
					},
					"t_bool": {
						"encoding": "inplace",
						"label": "bool",
						"numberOfBytes": "1"
					},
					"t_enum(KYCStatus)7": {
						"encoding": "inplace",
						"label": "enum KYCGasConsumer.KYCStatus",
						"numberOfBytes": "1"
					},
					"t_mapping(t_address,t_array(t_address)dyn_storage)": {
						"encoding": "mapping",
						"key": "t_address",
						"label": "mapping(address => address[])",
						"numberOfBytes": "32",
						"value": "t_array(t_address)dyn_storage"
					},
					"t_mapping(t_address,t_bool)": {
						"encoding": "mapping",
						"key": "t_address",
						"label": "mapping(address => bool)",
						"numberOfBytes": "32",
						"value": "t_bool"
					},
					"t_mapping(t_address,t_mapping(t_address,t_bool))": {
						"encoding": "mapping",
						"key": "t_address",
						"label": "mapping(address => mapping(address => bool))",
						"numberOfBytes": "32",
						"value": "t_mapping(t_address,t_bool)"
					},
					"t_mapping(t_address,t_struct(User)21_storage)": {
						"encoding": "mapping",
						"key": "t_address",
						"label": "mapping(address => struct KYCGasConsumer.User)",
						"numberOfBytes": "32",
						"value": "t_struct(User)21_storage"
					},
					"t_string_storage": {
						"encoding": "bytes",
						"label": "string",
						"numberOfBytes": "32"
					},
					"t_struct(User)21_storage": {
						"encoding": "inplace",
						"label": "struct KYCGasConsumer.User",
						"members": [
							{
								"astId": 9,
								"contract": "MainKYC/kyc1.sol:KYCGasConsumer",
								"label": "aadhar_ipfsHash",
								"offset": 0,
								"slot": "0",
								"type": "t_string_storage"
							},
							{
								"astId": 11,
								"contract": "MainKYC/kyc1.sol:KYCGasConsumer",
								"label": "electricity_ipfsHash",
								"offset": 0,
								"slot": "1",
								"type": "t_string_storage"
							},
							{
								"astId": 13,
								"contract": "MainKYC/kyc1.sol:KYCGasConsumer",
								"label": "currentProvider",
								"offset": 0,
								"slot": "2",
								"type": "t_address"
							},
							{
								"astId": 15,
								"contract": "MainKYC/kyc1.sol:KYCGasConsumer",
								"label": "kycSubmitted",
								"offset": 20,
								"slot": "2",
								"type": "t_bool"
							},
							{
								"astId": 18,
								"contract": "MainKYC/kyc1.sol:KYCGasConsumer",
								"label": "Status",
								"offset": 21,
								"slot": "2",
								"type": "t_enum(KYCStatus)7"
							},
							{
								"astId": 20,
								"contract": "MainKYC/kyc1.sol:KYCGasConsumer",
								"label": "submittedAt",
								"offset": 0,
								"slot": "3",
								"type": "t_uint256"
							}
						],
						"numberOfBytes": "128"
					},
					"t_uint256": {
						"encoding": "inplace",
						"label": "uint256",
						"numberOfBytes": "32"
					}
				}
			},
			"userdoc": {
				"kind": "user",
				"methods": {},
				"version": 1
			}
		}
	}
}